:020000040000FA
:1000000008020020D5000000EF000000F504000009
:1000100000000000000000000000000000000000E0
:10002000000000000000000000000000F3000000DD
:100030000000000000000000F5000000A105000025
:10004000450500004D050000550500006105000054
:1000500029040000AD070000CD070000D90700000B
:10006000250500002D050000750500008105000034
:100070000105000009050000950700009D0700002C
:10008000A507000019050000B5070000BD07000026
:10009000C507000035050000E30800006D050000FD
:1000A0004F0300003D050000CF080000E5070000F9
:1000B0001504000011050000310400001D040000BB
:1000C0000348854600F02AF9004800474103000034
:1000D0000802002009480A4A002100A1814200D9F3
:1000E0000244084802600848804708480047FEE785
:1000F000FEE7FEE7FEE7FEE7FEE700000000002067
:100100000000000008ED00E031070000C100000021
:1001100003460B439B0703D009E008C9121F08C020
:10012000042AFAD203E00B780370401C491C521ECB
:10013000F9D27047F8B502464A40D40F42004B004E
:1001400052085B089A4202D20246084611464A000B
:1001500023D0C30D4A00DDB2120EAD1A202D35DAC0
:1001600049020126490AF6058A19002C00D052429C
:1001700020214F1B1146B9402A411018C20D9A4246
:1001800021D0002C17D0012D08DCDA05801AD20FFF
:100190008019D207DBB200F087F8F8BDDA05801AC3
:1001A000012340001B06C01880185A428018CA0F4D
:1001B0001043490007E04908C2071143DA05801AD5
:1001C00080194008801800F067F8F8BD610001222E
:1001D000511A001BF7E70122D2075140AAE701227A
:1001E000D2075040A6E770B502464A40D50F4000FE
:1001F0004A00ED0740085208002814D0002A12D007
:10020000C40DD30D41020120C0055202490A520A11
:10021000E41A091812187D34914201D3641C00E0DD
:100220004900002C01DA002070BD0023914201D367
:10023000891A0343400849000028F7D100290AD051
:10024000914202D10121C90705E0914201D2012169
:1002500001E00121C943E005C018401900F01CF875
:1002600070BD10B500229623114600F01DF810BD98
:10027000410040020122400AD205090E80187F2960
:1002800001DA00207047962903DC9622511AC840F3
:100290007047963988407047002904DA401C4900AD
:1002A00001D140084000704770B40024050C05D10E
:1002B0001024000402D1002921D01124050E01D1FF
:1002C00000020834050F01D10001241D850F01D162
:1002D0008000A41C002801DB4000641C002908D019
:1002E00020252E1B0D46F540A14000D001212943B9
:1002F000084301061B1B000ADB1D02D5002070BC51
:100300007047DB05181880180029F8DA401C4900EE
:10031000F5D170BC4008400070470000064C012534
:10032000064E05E0E36807CC2B430C3C984710349D
:10033000B442F7D3FFF7C8FEC0090000E00900008F
:1003400010B500F0F5F900F0F5FA002010BD10B579
:10035000C046C046C046C04610BD1CB50721684611
:1003600000F0DFFA01211C2000F0C8F900206946E6
:1003700048706A46092100F067F80122092100202F
:1003800000F0AEF80120694648706A460A21002054
:1003900000F05AF801220A21002000F0A1F81CBD4B
:1003A00010B588B01021684600F0BBFA022107A8FA
:1003B00000F0B7FA0C2104A800F0B3FA01210020E4
:1003C00000F09CF9C0206946087000204880042095
:1003D00048704B20C001039001204002888000F04B
:1003E00081F90124A40702906946204600F018FA1A
:1003F0000021204600F0FAF90121204600F0F6F92C
:100400000021204600F000FA0121204600F0FCF90E
:1004100008B010BD10B5C046C04610BD10B5C046EE
:10042000C046C046C04610BD10B5C046C04610BD4F
:1004300010B5C046C046C046C04610BD0068C840A2
:10044000C007C00F7047000070B50446214815462C
:100450000E460022201800F099F8B1001E4A091932
:100460000020891808601B482A78001F3146201890
:1004700000F08CF817486A780C383146201800F0E4
:1004800085F81448AA7810303146201800F07EF81C
:100490001048EA7814303146201800F077F80D48FB
:1004A0002A7918303146201800F070F809486A7926
:1004B00020303146201800F069F808498868012288
:1004C000D2039043AA79D207120C1043886000200F
:1004D00070BD00000C0D0240000C0240000F0240F5
:1004E0008900081802494018026000207047000087
:1004F000000C024008B5002000900028FDD008BD87
:1005000010B5C046C04610BD10B5C046C04610BDAF
:1005100010B5C046C04610BD10B5C046C046C04666
:10052000C04610BD10B5C046C04610BD10B5C0468F
:10053000C04610BD10B5C046C04610BD10B5C0467F
:10054000C04610BD10B5C046C04610BD10B5C0466F
:10055000C04610BD10B5C046C046C046C04610BD1E
:1005600010B5C046C046C046C04610BD10B5C04616
:10057000C04610BD10B5C046C046C046C04610BDFE
:1005800010B5C046C046C046C04610BD01238B40D2
:100590000168012A02D09943016070471943FBE7C3
:1005A00010B5C046C04610BD10B58AB00024142254
:1005B00048496846FFF7ACFD4648001F00680890B0
:1005C0000020059006900790434801886A46918371
:1005D0004188518381881183C088D0823E48203071
:1005E00000883E49908208680006420F3C4813008C
:1005F00000F07BF905042A2C383B6800C8686A467D
:100600004005928B400D904201D1049C5AE0C8688D
:100610006A464005528B400D904201D1039C51E047
:10062000C8686A464005128B400D904201D1029C79
:1006300048E0C8686A464005D28A400D904201D120
:10064000019C3FE0009C3DE004463BE06846808A18
:100650004A699205920D9042684601D1448C31E07E
:10066000048C2FE00124E4032CE0CA6BD2439207F0
:1006700024D16846808BCA685205520D904201D140
:1006800004981BE06846408BCA685205520D9042A0
:1006900001D1039812E06846008BCA685205520DDA
:1006A000904201D1029809E06846C08ACA685205A2
:1006B000520D904201D1019800E00098CA6BD2051A
:1006C000140F444308680AB04005410F2046C84053
:1006D00010BD0000A4090000000C10000020004024
:1006E00000127A0010B5FFF75FFF03490968C904DB
:1006F000890FC84010BD00000020004010B50A4618
:10070000810603D5DF210140044802E00146034889
:10071000001FFFF73BFF002010BD00002420004019
:1007200010B5FFF741FF0149086010BD000000202F
:1007300010B514484088144C80056169800D890A01
:100740008902014361610F4820380089E168400552
:10075000400DC90AC9020143E160FFF7E1FF216AC8
:10076000206AE203104320620848C268084B1A401E
:10077000C2600368B02213430360036A1343036239
:10078000216210BD200C100000200040401D0240DE
:100790004FFF000010B5C046C04610BD10B5C046A2
:1007A000C04610BD10B5C046C04610BD10B5C0460D
:1007B000C04610BD10B5C046C04610BD10B5C046FD
:1007C000C04610BD10B5C046C04610BD10B5C046ED
:1007D000C046C046C04610BD10B5C046C046C04663
:1007E000C04610BD10B5C046C04610BD10B50022B1
:1007F0001430FFF7CBFE002010BD10B50122001D04
:10080000FFF7C4FE002010BD10B50122001DFFF748
:10081000BDFE002010BD10B51030FFF70FFE10BD5B
:100820007CB505461A480C0003C8019100900FD012
:10083000002068606088617822780843A1881143AD
:10084000084368602078402804D0C02802D01DE00A
:1008500004207CBDA0886946400A8000095CE068ED
:100860008840FFF7FEFC0646A068FFF7FAFC314619
:10087000FFF7B9FC3F210906FFF75CFCFFF7F8FC26
:1008800080B2A86104212846FFF7B7FF00207CBD95
:10089000B80900000068C0B2704770B50D46044644
:1008A00003212046FFF7B7FF0028F9D02068000A8F
:1008B00000022843206001212046FFF7ACFF0028FA
:1008C000F9D001212046FFF791FF002070BD10B53F
:1008D000C046C046C046C046C046C046C046C046E8
:1008E00010BD10B5C046C04610BD30B47446641E7D
:1008F0002578641CAB4200D21D46635D5B00E318A3
:1009000030BC184702E008C8121F08C1002AFAD1FB
:1009100070477047002001E001C1121F002AFBD17F
:100920007047002805D00022491E02D30270401CE7
:10093000FAE77047FFF711FDFFF732FD0126174D6B
:10094000B60702213046FFF766FF002805D10421D3
:100950003046FFF760FF002807D002213046FFF73E
:1009600045FF04213046FFF741FF00213046FFF7E5
:1009700052FF0028E5D000213046FFF737FF304610
:10098000FFF788FF28700024295D3046FFF785FFB8
:10099000641CE4B2022CF7D3D3E70000040000206B
:1009A0000080009600093D0000127A000024F40047
:1009B0004086510100366E01040000000300000073
:1009C000E009000000000020080000000409000009
:1009D000E8090000080000200002000014090000DF
:0809E00020000000005500009A
:04000005000000C136
:00000001FF
