:020000040000FA
:10000000B00A0020D5000000EF000000AD1700008E
:1000100000000000000000000000000000000000E0
:10002000000000000000000000000000F3000000DD
:100030000000000000000000F50000009D1D000011
:10004000791A0000811A0000891A0000951A000030
:10005000CF0E0000B9240000112600004127000047
:100060003D1A0000451A0000711D00007D1D0000B2
:10007000B9170000C1170000A1240000A924000046
:10008000B1240000311A0000C1240000C92400007E
:10009000D1240000691A0000A72900008F1B00006E
:1000A0004B0A0000711A000093290000F12700009C
:1000B000D10C0000291A0000351100008D0E00003F
:1000C0000348854600F0D2FA004800473D0A000088
:1000D000B00A002009480A4A002100A1814200D943
:1000E0000244084802600848804708480047FEE785
:1000F000FEE7FEE7FEE7FEE7FEE700000000002067
:100100000000000008ED00E03D240000C1000000F8
:1001100030B50B46014600202022012409E00D469F
:10012000D5409D4205D31D469540491B2546954027
:1001300040191546521E002DF1DC30BD03460B431D
:100140009B0703D009E008C9121F08C0042AFAD28D
:1001500003E00B780370401C491C521EF9D2704713
:10016000D2B201E00270401C491EFBD2704700224F
:10017000F6E710B513460A4604461946FFF7F0FFA6
:10018000204610BD421E5378521C002BFBD10B7829
:100190001370491C521C002BF9D1704730B505462D
:1001A0002A460B4610781C78521C5B1C002801D094
:1001B000A042F7D0002C03D0002802D06D1CEFE73E
:1001C000284630BDCAB2401E4178401C8A4202D047
:1001D0000029F9D100207047421C0178401C0029F9
:1001E000FBD1801A704710B5044600E0401C03782C
:1001F000002BFBD100E0401C521E04D30B78491C9D
:100200000370002BF7D100210170204610BD0000C3
:100210000FB400B58DB009900B9010A9002000918B
:10022000C0430A9000200C900648069006480790AC
:100230006A4609A80F9900F0A5F90DB008BC04B0F2
:1002400018470000A5050000C5050000FFB5002700
:10025000FF4383B000205C6801909E681D46A96939
:100260007F1C049888470090296A88470028F6D1A7
:100270000098401C0CD0032040028443002E19DD5E
:10028000600614D500982B2809D02D280FD103E043
:100290000020C04307B0F0BD012080020443A969DB
:1002A0007F1C04988847761E0090002E02DD00987F
:1002B000302803D00598002825D035E001204002E1
:1002C0000443A969761E7F1C049888470090002E7D
:1002D00003DD782805D0582803D00598002810D0D1
:1002E00022E00598002801D010281DD101204002ED
:1002F0008443A969761E7F1C0498884700901020CB
:1003000002E0082000E00A2005900DE001214902EA
:100310000C43059A0199761E514308180190A9696A
:100320007F1C049888470090002E05DD05990098F1
:1003300000F013F90028E9DAE96904988847A00574
:1003400002D40120C043A5E7E00722D1600611D501
:100350006005019800D5404229680A1D2A60096895
:10036000220501D5087014E0220701D5088010E0AD
:1003700008600EE02868011D29600068210502D58B
:100380000199017005E02107019901D5018000E084
:10039000016038467EE7F8B502464A40D40F420075
:1003A0004B0052085B089A4202D2024608461146A8
:1003B0004A0023D0C30D4A00DDB2120EAD1A202D23
:1003C00035DA49020126490AF6058A19002C00D0BF
:1003D000524220214F1B1146B9402A411018C20D2C
:1003E0009A4221D0002C17D0012D08DCDA05801AA2
:1003F000D20F8019D207DBB200F0FEF8F8BDDA05A3
:10040000801A012340001B06C01880185A42801829
:10041000CA0F1043490007E04908C2071143DA0533
:10042000801A80194008801800F0DEF8F8BD6100DD
:100430000122511A001BF7E70122D2075140AAE717
:100440000122D2075040A6E770B502464A40D50FB8
:1004500040004A00ED0740085208002814D0002A46
:1004600012D0C40DD30D41020120C0055202490A29
:10047000520AE41A091812187D34914201D3641CFF
:1004800000E04900002C01DA002070BD00239142F9
:1004900001D3891A0343400849000028F7D10029F5
:1004A0000AD0914202D10121C90705E0914201D24F
:1004B000012101E00121C943E005C018401900F005
:1004C00093F870BD10B500229623114600F094F801
:1004D00010BD410040020122400AD205090E8018D9
:1004E0007F2901DA00207047962903DC9622511AF1
:1004F000C8407047963988407047F0B51FB406462B
:10050000002082B005464024019100901BE0019933
:1005100022460F46304600F0CBF8049A059B801A1D
:10052000994110D310461946224600F0B1F8361A08
:100530008F410197224601200021009F00F0A8F87A
:1005400038184D4100902046641E0028DFDC019BD6
:1005500000982946324607B0F0BD3A2800D230381C
:10056000202302469A43412A01D310463738884255
:1005700001D30020C043704702681378511801600E
:100580001846704710B5D1600449516104491162A1
:1005900000211161114600F0A3F810BD790500009B
:1005A000D30600004268002A08D001680B78491C75
:1005B000002B03D0521E06C0184670470121C160AF
:1005C000881E70474268002A0BD0C3680168002B60
:1005D00007D183688B4204D0491E521C06C00020FC
:1005E00070470020C0437047002904DA401C4900CE
:1005F00001D140084000704770B40024050C05D1BB
:100600001024000402D1002921D01124050E01D1AB
:1006100000020834050F01D10001241D850F01D10E
:100620008000A41C002801DB4000641C002908D0C5
:1006300020252E1B0D46F540A14000D00121294365
:10064000084301061B1B000ADB1D02D5002070BCFD
:100650007047DB05181880180029F8DA401C49009B
:10066000F5D170BC4008400070470000064C0125E1
:10067000064E05E0E36807CC2B430C3C984710344A
:10068000B442F7D3FFF720FD00350000203500000D
:1006900010B5202A04DB0146203A9140002010BD0D
:1006A000914020239C1A0346E3401943904010BD1B
:1006B00010B5202A04DB0846203AD040002110BDA6
:1006C0000B46D340D0402024A21A9140084319463B
:1006D00010BD10B50F21C0B2490200F09DF910BD48
:1006E000F3B58DB000200A9001200B90002608463B
:1006F0000C300C4609906269012109989047051E4B
:100700002ED0252D2DD0216A8847002818D0626967
:10071000012109989047216A88470028F7D1411E96
:1007200062690998904700E0761CA1690D98884796
:10073000216A88470028F7D1E1690D988847DAE7F0
:10074000A1690D9888470746A84201D1761CD2E7D7
:10075000E1690D9888477F1C02D10A98002877D05C
:1007600049E1002762693D463946099890472A28A1
:100770000CD16269012109989047012506E00A2100
:100780004F433F18303FEBD41020054362690121ED
:1007900009989047014630390A2903D29B498F4274
:1007A000DEDCECE7E90600D4994F6C280AD04C282F
:1007B00010D0682824D06A282ED074280CD07A282B
:1007C0000AD00DE062690121099890476C2823D076
:1007D00004211CE02020054362690121099890470B
:1007E000A760656065284FD026DC582839D01ADC10
:1007F000452849D012DC252834D04128B0D143E027
:100800006269012109989047682802D008210D43A8
:10081000E6E70120C002DEE70220DCE7462833D00D
:1008200047282CD130E05B2870D061282CD0632879
:100830006CD0642823D161E06F284FD009DC662892
:1008400022D0672820D0692826D06E2817D12EE024
:10085000CDE070284DD073286FD075284ED0782801
:100860000DD154E0A1690D9888470546252800D18F
:100870006CE7E1690D9888476D1C00D16DE7BAE01F
:100880000A224CE00A2252E0012023466A46C04375
:100890000D99C046C046A3E0284640210843606049
:1008A000A807234601D5002239E000223FE0E807EF
:1008B00000D020E72068011D21600068290501D5CE
:1008C000067018E7290701D5068014E7A90703D5A4
:1008D000F117066041600EE706600CE728464021EC
:1008E00008436060A807234601D5082217E00822C4
:1008F0001DE0484928460840606016E0284640212F
:1009000008436060A8072346BCD5B9E715E0284630
:10091000402108436060A80707D523461022012024
:10092000C0430D99C046C0465AE02346102201201C
:10093000C0430D99FFF78AFC52E000210C910B4651
:100940000091632802D05B2807D043E0E80601D479
:100950000120A060012000903CE06269012109981B
:1009600090475E2805D101200C90014662690998E4
:1009700090472169002906D10B4601AA8F00491C26
:10098000D3510829FADB002835D0216900290ED17E
:10099000C117C90E09184A11930001AA9A184909EA
:1009A0004901411A012013688840034313606269BA
:1009B0000121099890475D28E5D10C98002808D0BE
:1009C000002001AB81005A58401CD2435A500828DD
:1009D000F8DB01AB01202246C0430D99C046C0465A
:1009E00000280ADA401C06D10B98002803D000200A
:1009F000C0430FB0F0BD0A98FBE7E90702D10A999E
:100A0000491C0A91361800200B9074E6CCCCCC0C13
:100A1000FFFFFF7FF1F7FFFF7F2801D9002207E0EA
:100A2000054B42089A5CC00700D112091207120F49
:100A300001209040084070471034000010B501F0CC
:100A4000FDFC02F035FC002010BD10B5C046C046CC
:100A5000C046C04610BD000070B50546364988B096
:100A60003220087000244C708C70CC700101334827
:100A7000FFF77DFB0121212001F088FC01211C20D2
:100A800001F084FC012669464E738E73CC730C749E
:100A90004C748E7403AA0821402000F027FE69469A
:100AA0004C7303AA0921402000F020FE03AA08216C
:100AB000002000F01BFE03220821402000F062FE0F
:100AC00005220921402000F05DFE0821002000F0F1
:100AD000E3FD03206946C87002200871487101F0E7
:100AE000B7FB6946CA7809795118C91C6943FFF7F1
:100AF0000FFB6946401E88710F2008720A20C871DA
:100B00000C704E708C70684600F0E6F869464C77C1
:100B10000C770B4806900121059405A800F096F883
:100B20000121802000F032F9012200211C2000F078
:100B300015FA08B070BD0000A8030020880000204E
:100B4000FFFFFF1F7FB505460121142001F01EFCA9
:100B500001216A461170002414715170957055205E
:100B60001072517210209072172010730420D072EE
:100B70005073192090735171D480104601F064F8BD
:100B8000012001F009F80648012284700321172092
:100B900000F0E4F9012001F01FF801F0D7F87FBD63
:100BA0000400002008B5002001F002FC012001F043
:100BB0002FFC032001F00AFC0121084601F01CFA79
:100BC0000A2002F085FA0120694608700420487066
:100BD000002088700620C870684601F069FB01207B
:100BE00000F0AEFA0121042001F006FA042001F021
:100BF000FBFB08BD1CB504460721684602F00EFA4F
:100C000001210B2001F0C2FB0021684601704171F7
:100C10000422C2700122827101718170417001F061
:100C2000B7FC01200004041BA0B201F085FCA0B2B7
:100C300001F08EFC002001F04FFC01F09FFC01222E
:100C40000321052000F08AF91CBD000030B51F4AC1
:100C50001378802423431370137D047A1B091B012E
:100C60002407240F23431375137DDF2423401375BA
:100C7000164B0468203B9C63147D20252C4314757F
:100C800044689C639C6B5506AC43457AAD07ED0FF9
:100C9000AD072C439C639C6B9D05AC43457AED07E7
:100CA000AD082C439C6301230129917D007A0AD071
:100CB00083409943917510784006400E107010786B
:100CC000C009FCD130BD83401943F3E7A0000340C5
:100CD00010B500F0E1F810BD10B52B490A7880235B
:100CE0001A430A70284A203A936A84791B021B0A25
:100CF000240623439362936AC4781B0A1B0223438E
:100D00009362936A7F242402A34304796406640CEB
:100D100023439362936A7F242404A34344796406A3
:100D2000640A234393620A785206520E0A700A78C4
:100D3000D209FCD1CA79C3791207120F1B011A43D9
:100D4000CA71CA79037A120912011B071B0F1A43D1
:100D5000CA718A78DF231A408378DB079B0E1A4317
:100D60008A70CA78F7231A400378DB071B0F1A43EF
:100D7000CA70CA784078BF23C0071A40400E0243A9
:100D8000CA700020087110BDA0000340044A012968
:100D9000116802D08143116070470143FBE70000F6
:100DA000A4000340044A034913680B400343136043
:100DB00070470000FF002AFFA400034003490968B0
:100DC000014201D00120704700207047A400034079
:100DD0001FB58EB0AA206C462070552060700C2084
:100DE000A0700020E0701020207110220EA9601D5C
:100DF000FFF7A4F91321A01C02F094F86946487586
:100E0000000A8875054A044810601721684601F0F9
:100E10000DFD12B010BD000010270000780000206A
:100E200007490A6802604A6842608A688260C96845
:100E3000C1600348A030C17810221143C1707047CF
:100E4000000003400C4A5178037C4906490EDB013F
:100E5000194351700849036860390B6143684B615D
:100E600083688B61C368CB61007C012803D19078D3
:100E70004021084390707047A000034002494A781F
:100E800002434A7070470000A000034010B5C046FE
:100E9000C046C046C04610BD10B50124E40320463C
:100EA000FFF78CFF012809D12046FFF77BFF04489C
:100EB000FFF7B6FF02480FC802F056F810BD000059
:100EC0006800002010B502F003FA002010BD10B534
:100ED00000F036F810BD0000810004480818416990
:100EE0000722120491434161704700000010024044
:100EF00081000348081801694900490801617047E9
:100F00000010024002480168C204114301607047AA
:100F10000010024081000448081841690122D204EF
:100F200011434161704700000010024003498000F6
:100F3000401840694003400F704700000010024015
:100F400010B50420FFF7F2FF052802D10420FFF7B7
:100F5000CFFF0420FFF7C0FF10BD000030B5C4066E
:100F6000E40E0123A340134C23608407E50EFF2405
:100F7000AC408907090EA94000280BDA0007000FD2
:100F8000083885080C48AD002818C569A5430D43ED
:100F9000C56107E085080948AD0028180568A54324
:100FA0000D430560012A02D00548036030BD0448A6
:100FB0008038FAE780E200E000ED00E000E400E0C5
:100FC00080E100E01CB501206A465070907000215D
:100FD000D1701171517190710A21002000F086FBCF
:100FE0006A460021C02000F081FB03220A21002074
:100FF00000F068FB02220021C02000F063FB00210A
:10100000C02000F03FFB0A21002000F03BFB012242
:1010100003210020FFF7A2FF032101220846FFF76A
:101020009DFF1CBD0C225043034A00218018C18043
:101030000181418170470000180700200C235843AC
:10104000044B1950C01882800021C1800181418168
:10105000704700001807002070B514460D4606467C
:1010600000F024F80C20104946437318D888A04299
:1010700017D3D888001BD8800DE05A89885980186A
:10108000521C5A810078287058899A886D1C9042A9
:1010900001D1002058812046641EA4B20028ECD162
:1010A00070BDFF2070BD0000180700200C214843D0
:1010B0000C4940184189C2888918828889B28A42BD
:1010C00002D88288891A89B202898A4209D00189A4
:1010D000C2889142018901D882888918C288891AF8
:1010E00041817047180700200C21484301494018EE
:1010F000C08870471807002030B50C220C4C5043B4
:101100000219D3889588AB4210D213892058C01891
:101110005B1C1381017010899188884201D10020E5
:101120001081D088401CD080002030BDFF2030BD11
:101130001807002010B5C046C046C046C04610BDC6
:1011400010B508490246064B0020CB62064BCB6225
:101150000B6A0C249207A343120F13430B6210BDBA
:101160005A5A000000000240A5A5000070B51446C0
:10117000282901D8FF2070BD2C21FFF723F8401C3F
:1011800006462C21FFF71EF80546821B31462046F5
:10119000FEF7D4FF6D1C2C212846FFF713F82C21F5
:1011A000401CFFF70FF82C21401CFFF70BF82C21F7
:1011B000401CFFF707F80646421B204629460E3022
:1011C000FEF7BCFF2C21701CFEF7FCFF401C0546FF
:1011D0002C21FEF7F7FF0646421B204629463E30EB
:1011E000FEF7ACFF2C21701CFEF7ECFF401C0546FF
:1011F0002C21FEF7E7FF0646421B204629464430D5
:10120000FEF79CFF2C21701CFEF7DCFF2C21401CFC
:10121000FEF7D8FF401C05462C21FEF7D3FF0646FB
:10122000421B2046294656300546FEF787FF2C21F3
:10123000701CFEF7C7FF401C04462C21FEF7C2FFBE
:10124000064605A12846FEF79DFF321B214628468B
:10125000FEF7C9FF002070BD2C00000070B51646D7
:10126000192901D8FF2070BD2C21FEF7ABFF401CCF
:1012700005462C21FEF7A6FF2C21401CFEF7A2FFFD
:101280002C21401CFEF79EFF2C21401CFEF79AFFEC
:101290000446421B304629460E30FEF74FFF641CC1
:1012A0002C212046FEF78EFF0546021B21463046C4
:1012B000FEF744FF681C2C21FEF784FF401C044607
:1012C0002C21FEF77FFF2078412801D10120707387
:1012D000002070BDF0B5FF26C3B00136314602A82C
:1012E000FEF745FF664D00246868002874D1FF2092
:1012F000F53068600120FFF7F7FE00286CD0B0429F
:1013000000D930460646024602A90120FFF7A4FE96
:101310005C48286002AA31465BA001F083FB2421CF
:1013200002A8FEF74FFF070056D02A2102A8FEF7B9
:1013300049FF060050D0F51B681E81B2781C01F0F1
:1013400045FF0190707869460870B078487068462B
:1013500001F0A4FF0199C0B288423DD14FA13846A7
:10136000FEF71CFF002807D0A9B24D4A3846FFF708
:10137000FDFE002800D101244AA13846FEF70EFFE9
:10138000002807D0A9B2464A384600F0A1FB002841
:1013900000D1012444A13846FEF700FF002807D001
:1013A000A9B23F4A3846FFF759FF002800D101246F
:1013B00001F0C0FE002C57D0394A3CA110468030C5
:1013C00001F040FB84B23648354D407B8035002823
:1013D00003D02819412202E041E02819562234A105
:1013E00001F030FB001984B22D480E300646FEF79E
:1013F000F3FE002835D0281932462CA101F022FB3B
:101400000019274A84B228193E3228A101F01AFB9C
:101410000019234A84B22819443224A101F012FB96
:1014200000191F4A84B228194A3220A101F00AFB90
:1014300000191B4A84B2281956321CA101F002FB84
:101440000019174A84B2281962321AA101F0FAFA77
:101450000019134982B280310F2000F053FA43B0D3
:10146000F0BD281914A2C8E780210D48FEF77FFEC1
:101470000B4812A20FA1803001F0E4FAE9E7000066
:101480007800002010270000475053207265635BEE
:1014900025645D3A25730D0A0000000047474100AE
:1014A000E0070020524D4300474C4C0025732C00B0
:1014B00025632C00257300002C2C2C002C562C2C82
:1014C0002C2C2C2C2C2C2C2C4E00000010B5102178
:1014D000034801F0D9F90120FFF7A4FD10BD000079
:1014E0004400002010B51021034801F0CDF901207F
:1014F000FFF798FD10BD00005400002070B59CB0AF
:10150000642102A8FEF733FE002401211C2000F014
:101510003DFF00206A46507001219170D07010711B
:10152000507191710B21402000F0E0F86A460A21C9
:10153000402000F0DBF80B21402000F0ADF8012046
:10154000FFF770FDFF262D360120FFF7CDFD054684
:1015500001462EA001F066FA642D00D96425002D05
:1015600013D02A4602A90120FFF776FD02AA2946D8
:1015700029A001F057FA2CA102A8FEF70FFE0028BF
:1015800003D02BA001F04EFA1AE00B21402000F00E
:1015900003F9C82001F09CFD0B21402000F07CF8ED
:1015A0000120FFF73FFD304601F092FD641CE4B2DC
:1015B000214623A001F036FA01F0FAF90A2CC3D330
:1015C0000A2C1BD001F0F4F91F4C606801F00AFEF0
:1015D00001F0EEF9206901F005FE01F0E9F960681B
:1015E00001F000FE01F0E4F9A06801F0FBFD01F05C
:1015F000DFF9E06801F0F6FD1CB070BD0B21402062
:1016000000F0CAF811A001F00DFAF5E772785F6CEE
:10161000656E3A25640D0A007265635B25645D3A68
:1016200025730D0A0000000031363630000000003E
:1016300047505320696E6974206F6B0D0A000000DB
:10164000693A25640D0A00001C00002067707320B1
:10165000696E6974206973206661696C0D0A000007
:1016600010B50B21402000F097F810BD10B50B21EC
:10167000402000F011F810BD0068C840C007C00F3E
:1016800070470000034B10B50022C01800F07CFB2F
:10169000002010BD100E0240034B10B50122C018EF
:1016A00000F072FB002010BD140D024092001018D3
:1016B000034A10B58018002200F066FB002010BD20
:1016C000300D024092001018034A10B58018012214
:1016D00000F05AFB002010BD300D0240024A10B548
:1016E0008018FFF7C9FF10BD000E024070B5044618
:1016F000214815460E460022201800F045FBB10097
:101700001E4A09190020891808601B482A78001F02
:101710003146201800F038FB17486A780C383146FB
:10172000201800F031FB1448AA78103031462018F8
:1017300000F02AFB1048EA7814303146201800F0F7
:1017400023FB0D482A7918303146201800F01CFB85
:1017500009486A7920303146201800F015FB084905
:1017600088680122D2039043AA79D207120C104351
:101770008860002070BD00000C0D0240000C02408B
:10178000000F02408900081802494018026000203A
:1017900070470000000C0240034B10B50122C01836
:1017A00000F0F2FA002010BD100D024008B5002034
:1017B00000900028FDD008BD10B5C046C04610BD41
:1017C00010B5C046C04610BD38B50122694600209C
:1017D000FFF742FC002820D1394C00256078062212
:1017E000030001F043F908051B232B344151561A1D
:1017F00068460078AA2810D1324838210068E06095
:101800003148FEF7B4FC012060706580E5802581D9
:1018100025702F49A5802D48086038BD684600789E
:10182000552801D102201DE0657038BD68466188E9
:101830000078091861802070032013E068466188F1
:101840000078091861800002E08004200AE06946FF
:10185000E08809780843E08063885918618000288F
:1018600010D00520607038BD68460178164B20897D
:101870001954401C80B22081638859186180E18826
:101880008842F0D1627038BD68460078A080072099
:10189000E8E7684600780102A0880143A1806288D9
:1018A0000C4842406280914205D1E2880649207886
:1018B00000F050F8B8E708A001F0B4F8B4E7000071
:1018C0000C00002008000020A807002010270000BE
:1018D00078000020FFFF0000636865636B2065727D
:1018E000726F722C207265765F73756D3A25303495
:1018F000782C20636865636B5F73756D3A253034AF
:10190000780D0A00F0B50C46C1B00746FF21164617
:1019100001316846FEF72BFCAA206D462870552041
:101920006870AF7032462146E81CFEF707FCF01CD9
:1019300084B2B11EA81C01F0F5FA2855641CA1B2AE
:10194000000A6854491C89B2684600F06FFF41B034
:10195000F0BD0000F0B50E460746014687B01546BB
:1019600029A001F05FF8093F00243B0001F07EF858
:1019700006423A35042D25232A46314602A8FEF7B1
:10198000DDFB6846007B029CC10980218D43C109B3
:10199000C9010D4340218D434106C90F89010D4303
:1019A000290900070901000F0143059B049A2046FD
:1019B000009600F02DF807B0F0BDFFF757FE68461F
:1019C0000471012201A90E201BE0FFF749FE6846C1
:1019D0000471012201A90D2013E02946304600F0D0
:1019E00053FFE8E7FFF772FD68460471012201A981
:1019F0000A2006E068460471FFF774FD012201A980
:101A00000920FFF77FFFD6E7636D643A2564000085
:101A10000FB410B502A8FFF715FA1020FFF72EFA41
:101A200010BC08BC04B0184710B5C046C04610BD75
:101A300010B5C046C046C046C04610BD10B5C04631
:101A4000C04610BD10B5C046C04610BD05490A6964
:101A500004231A430A610A69012383401A430A6175
:101A600030BF704700ED00E010B5C046C04610BD65
:101A700010B5C046C04610BD10B500F011F810BD3D
:101A800010B5C046C04610BD10B5C046C046C046E1
:101A9000C04610BD10B500F00FF8C046C04610BDDE
:101AA00010B50A210020FFF719FE012803D10A21F1
:101AB0000020FFF7E7FD10BD10B50021C020FFF7A3
:101AC0000DFE012803D10021C020FFF7DBFD10BD72
:101AD00070B51446202901D8FF2070BD2C21FEF7D7
:101AE00071FB401C05462C21FEF76CFB0646421B91
:101AF00029462046FEF722FB761C2C213046FEF7B5
:101B000061FB3178412901D101216173451C2C21F0
:101B10002846FEF757FB2C21401CFEF753FB2C21D7
:101B2000401CFEF74FFB2C21401CFEF74BFB0646EA
:101B3000421B204629460E30FEF700FB2C21701C6C
:101B4000FEF740FB2C21701CFEF73CFB401C0546B9
:101B50002C21FEF737FB0646421B204629464A3019
:101B6000FEF7ECFA2C21701CFEF72CFB2C21401CFC
:101B7000FEF728FB401C05462C21FEF723FB421BE9
:101B8000204629466230FEF7D9FA002070BD10B514
:101B900000F04EF810BD000070B5094C054600225B
:101BA0000321204600F0F0F800220421204600F036
:101BB000EBF82A460621204600F0E6F870BD00004A
:101BC0000414004010B500220321024800F0DCF8A4
:101BD00010BD00000414004010B502460721024861
:101BE00000F0D2F810BD000000140040034630B5EC
:101BF0000120020293420FD8084A146BC503C9079B
:101C0000AC43090C0C431463116BDB05490A490210
:101C1000DB0D1943116330BD042030BD00140040BA
:101C200010B503210148FFF727FD10BD0414004043
:101C300010B5FFF7F5FF012803D102498870FFF7BF
:101C4000C1FF10BD0400002070B504460020FFF75E
:101C5000C3FF0F4D2868082188432178C907090F61
:101C600008432860601C00F015F868680721090225
:101C7000884321794907490D084368606179E08804
:101C8000FFF7B4FF2046083000F02CF870BD0000CC
:101C900000140040124A1168131499430378DB07BB
:101CA0005B0C194311600178002902D0012907D08B
:101CB00013E011688078C908C9004007400F0AE0A6
:101CC0004078402801D30420704711683F231B024D
:101CD00099438006800C014311600020704700008A
:101CE0000014004010B5184A7D211368C9001B0676
:101CF0000ED5536801242343536002E053689B07C9
:101D000004D4491E0904090CF8D11BE0002919D09C
:101D1000017891604178D160817811610179916198
:101D20004179D16181791162C07850615068400871
:101D3000400050601068000602D550688007FCD44F
:101D4000002010BD092010BD001400400748416864
:101D500001221143416041688907FCD54168490867
:101D60004900416041688907FCD470470014004075
:101D700010B5C046C046C046C04610BD10B5C046EE
:101D8000C046C046C04610BD01238B400168012AF1
:101D900002D09943016070471943FBE710B500F08A
:101DA00001F810BD704700007CB5214E3068002856
:101DB0003CD120A000F036FE0620FEF7C3FE002135
:101DC000212000F0E3FA0021084600F0DFFA0721A5
:101DD000684601F023F90120694648706A460921E6
:101DE0000020FFF783FC6A460121C020FFF77EFC3C
:101DF0000521C020FFF7D0FCFFF7E4F800F0D8FD84
:101E00000025104C00F0D4FD0020FFF71FFEA07845
:101E1000002804D00CA000F005FEA570F2E701F048
:101E200076FA0CA000F0FEFD0D4830607CBD00008D
:101E300078000020656E74657220736C6565700DA6
:101E40000A0000000400002077616B652E2E2E0D25
:101E50000A000000737973207765656B0D0A000036
:101E6000102700007CB50D2401210F2000F08EFA10
:101E70002146002000F0A4FD00F0B4FD002000F099
:101E8000F3F9002000F002FAFEF78CFE0121032096
:101E900000F0B2F801211C2000F078FA0024684616
:101EA000447001258570C4700471447185716A465F
:101EB0000F214020FFF71AFC6A460E214020FFF751
:101EC00015FC6A460D214020FFF710FC0E21402032
:101ED000FFF7E2FB0D214020FFF7DEFB0F21402042
:101EE000FFF7DAFB0721684601F098F801211C2072
:101EF00000F04CFA684644708570C47004714471F7
:101F000085716A4602210020FFF7F0FBE1256D0292
:101F1000284600F01BFC284600F0B6FB01F05CF8F8
:101F2000FFF7ECFA1048FEF797FD00F041FD0F486F
:101F3000FEF760FE00F018FB0E490D4808600EA287
:101F400010A113A000F06EFD00231A46194615A03B
:101F5000009400F067FD1E4801681EA000F062FDBD
:101F600022A000F05FFD7CBD90D00300B80B000004
:101F7000102700007800002031383A30363A3438E3
:101F8000000000004F6374203131203230323400C1
:101F9000636F6D70696C652074696D653A25732592
:101FA000730D0A00534F4654564953494F4E3A2534
:101FB000303278253032782C204857564953494FD3
:101FC0004E3A25303278253032780D0A0000000074
:101FD0000000002053797374656D436F7265436C24
:101FE0006F636B3A25640D0A00000000737973205B
:101FF000696E69740D0A0000F3B581B00C460026C5
:1020000000F004FD002C00D001243E4D2F6A019801
:10201000E90303283AD006DC00280CD0012815D0AB
:10202000022804D126E0042845D048285CD00426A4
:102030002F623046FEBD28684008400020432860DB
:10204000002CF5D0E8680005FAD5F1E7286A0843C6
:1020500028622D4AD06803210843D06028680221F5
:102060008843610008432860002CE1D028694006BD
:10207000FAD5DDE7286804218843A10008432860D9
:10208000002CD5D06869C004FAD5D1E7286A084386
:1020900028621E4AD068032189030843D06028685B
:1020A00008218843E10008432860002CC0D0A869BB
:1020B0004006FAD5BCE7286A0121090408432862D2
:1020C000134A1068012108431060142000F0D8FF63
:1020D000286810218843210108432860002CA7D0DC
:1020E000E86B4003FAD5A3E70648403081698214C3
:1020F0009143220311438161002C99D08169090524
:10210000FAD595E700200040401D0240800D0240B6
:102110000024004010B58AB00024142248496846C3
:10212000FEF70CF84648001F006808900020059054
:1021300006900790434801886A46918341885183FD
:1021400081881183C088D0823E48203000883E4973
:10215000908208680006420F3C48130000F086FC9D
:1021600005042A2C383B6800C8686A464005928BF3
:10217000400D904201D1049C5AE0C8686A4640056F
:10218000528B400D904201D1039C51E0C8686A46D1
:102190004005128B400D904201D1029C48E0C86876
:1021A0006A464005D28A400D904201D1019C3FE031
:1021B000009C3DE004463BE06846808A4A699205FF
:1021C000920D9042684601D1448C31E0048C2FE09E
:1021D0000124E4032CE0CA6BD243920724D1684661
:1021E000808BCA685205520D904201D104981BE0C1
:1021F0006846408BCA685205520D904201D103983F
:1022000012E06846008BCA685205520D904201D117
:10221000029809E06846C08ACA685205520D904289
:1022200001D1019800E00098CA6BD205140F444315
:1022300008680AB04005410F2046C84010BD0000A4
:10224000F4330000000C10000020004000127A005F
:1022500010B5FFF75FFF03490968C904890FC8403B
:1022600010BD00000020004010B5044600F0CEFB79
:10227000054A11680720000281436007400D0143B1
:102280001160002010BD00000020004010B5044681
:1022900000F0BCFB054A11680320C0028143A0077F
:1022A000C00C01431160002010BD00000020004060
:1022B0001EB5002231490092019202920B886C46B1
:1022C00023814B88E3808B88A380C98861808378D1
:1022D0002B49032B07D0C3782A4C63432A4CA342D3
:1022E00028D906201EBD2389CC686405640DA3424D
:1022F00002D1C378022BF4D86B46DB88CC68640526
:10230000640DA34202D1C378022BEAD86B469B88A6
:10231000CC686405640DA34202D1C378032BE0D8D6
:102320006B465B88CC686405640DA34202D1C37818
:10233000062BD6D8CB6B03246403A3430478A407ED
:10234000640C2343CB63CB6B1C24A3434478640706
:10235000E40E2343CB63CB6BFF24E134A343C47867
:102360002407E40D2343CB63CB6B80789B089B0051
:102370008007800F0343CB6310461EBD000C100086
:102380000020004000127A00006CDC0210B50A4602
:10239000810603D5DF210140044802E001460348DD
:1023A000001FFFF7F1FC002010BD000024200040BA
:1023B00010B5054A0146136900200C248907A34380
:1023C000090F0B43136110BD0020004010B5054AF2
:1023D00001461369002030248907A343890E0B436B
:1023E000136110BD0020004070B50446002500F0C8
:1023F0000DFB06480168E02291436207120E11436B
:10240000016000F013F8284670BD00000020004075
:10241000054A0146136900209B089B008907890F24
:102420000B431361704700000020004010B5FFF718
:1024300071FE0149086010BD0000002010B514486D
:102440004088144C80056169800D890A8902014326
:1024500061610F4820380089E1684005400DC90AD4
:10246000C9020143E160FFF7E1FF216A206AE2034C
:10247000104320620848C268084B1A40C2600368D3
:10248000B02213430360036A13430362216210BD49
:10249000200C100000200040401D02404FFF0000B3
:1024A00010B5C046C04610BD10B5C046C04610BDF0
:1024B00010B5C046C04610BD10B500F01FF810BDE5
:1024C00010B5C046C04610BD10B5C046C04610BDD0
:1024D00010B5C046C04610BD0146012200208A400A
:1024E000D143014A516170470058004002490969CF
:1024F000C140C807C00F70470058004010B5002009
:10250000FFF7F4FF012812D10020FFF7E5FF08488C
:10251000084B4168491C4160002081005A58002A3C
:1025200001D0521E5A50401CC0B20428F5D310BD31
:102530000400002078000020044A014613680020AF
:102540001B0C1B040B431360704700000058004035
:10255000044A0146536800201B0C1B040B435360C4
:10256000704700000058004003490020CA6801235A
:102570001A43CA6070470000005800400349002019
:10258000CA680B151A43CA60704700000058004023
:1025900010B51E490022CB6803242403A34304780A
:1025A000A407A40C2343CB60CB684C15A343447809
:1025B000E407A40D2343CB60CB688C15A343847838
:1025C000E407E40D2343CB60CB687024A343C478B5
:1025D0006407640E2343CB60CB680824A3430479CB
:1025E000E407240F2343CB60CB680424A34344793E
:1025F000E407640F2343CB60CB6880790224C007D3
:10260000A343800F0343CB60104610BD0058004029
:1026100010B500F0F1F8C046C04610BD10B501215C
:102620001D20FFF7B3FE3421164800F0F7FC1548D3
:10263000012189074162091241614900C161891084
:102640008161024600212032012311721B060361C1
:10265000C160012383800160492381601374C162DA
:102660000420FEF739FC0420FEF754FC012203216C
:102670000420FEF773FC0420FEF73AFCFEF742FC50
:1026800010BD0000AC06002030B587B0044607211D
:1026900004A800F0C3FC01211C20FFF777FE0025F1
:1026A0006A46557404AA09212846FFF71FF801223B
:1026B00009210020FFF766F801216A46517404AA37
:1026C0000A210020FFF712F801220A210020FFF75B
:1026D00059F81021684600F0A1FC01210020FFF705
:1026E00055FEC0206A461070558004205070C0010D
:1026F00003949080FFF7ACFD0124A4070290694683
:10270000204600F0EFF80021204600F0D1F811211A
:10271000204600F0D4F80021204600F0D7F801222E
:1027200003210620FEF71AFCA21504490020FEF73B
:1027300085FCFFF773FF07B030BD0000AC0300203D
:1027400010B500F087F8C046C04610BD30B587B060
:102750000546072104A800F061FC01211C20FFF7B9
:1027600015FE01216846417404AA03210020FEF7EA
:10277000BDFF012203210020FFF704F80024684672
:10278000447404AA04212046FEF7B0FF022204216B
:102790000020FEF7F7FF01210846FFF7F7FD402173
:1027A0006846017044804470CC0003958480FFF734
:1027B0004FFD0D4D02906946284600F093F8002128
:1027C000284600F075F80021284600F07FF8012225
:1027D00003210720FEF7C2FB224604490120FEF731
:1027E0002DFC07B030BD000000010040AC0400200B
:1027F00010B5C046C04610BD10B50124A407002185
:10280000204600F06AF800280CD00021204600F095
:102810004FF8204600F0A0F8034908700146002058
:10282000FEF76AFC10BD000004000020F8B500248B
:1028300001270D460646BF0705E0315D384600F02A
:102840008EF8641CA4B228466D1EADB20028F4D1E7
:10285000F8BD000010B50A4C0021204600F03DF8FC
:1028600000280CD00021204600F022F8204600F07D
:1028700073F80449487001460120FEF73DFC10BD85
:102880000001004004000020F8B50D460646002473
:10289000064F05E0315D384600F061F8641CA4B2D3
:1028A00028466D1EADB20028F4D1F8BD00010040ED
:1028B00010B500221430FFF767FA002010BD10B5E4
:1028C0000122001DFFF760FA002010BD10B50122A3
:1028D000001DFFF759FA002010BD10B51030FEF7AB
:1028E000CBFE10BD7CB505461A480C0003C801910B
:1028F00000900FD0002068606088617822780843DB
:10290000A1881143084368602078402804D0C0287B
:1029100002D01DE004207CBDA0886946400A8000EA
:10292000095CE0688840FDF7CDFD0646A068FDF72C
:10293000C9FD3146FDF788FD3F210906FDF72BFD56
:10294000FDF7C7FD80B2A86104212846FFF7B7FF55
:1029500000207CBD083400000068C0B2704770B52C
:102960000D46044603212046FFF7B7FF0028F9D0A3
:102970002068000A00022843206001212046FFF75A
:10298000ACFF0028F9D001212046FFF791FF00207D
:1029900070BD10B5C046C046C046C046C046C04621
:1029A000C046C04610BD10B5C046C04610BD0000B0
:1029B00002481E210160E12101607047800F004044
:1029C00000B50346084600F015F80549486820227E
:1029D0009043DA07920E10434860002000BD0000CB
:1029E000800F004002481E210160E1210160704714
:1029F000800F004004494A68000712091201000FC5
:102A000002434A6070470000800F004003480249BB
:102A100081600349816070475A5A000000200040DD
:102A2000A5A500000FB410B503A9044B044A0298F1
:102A300000F038F810BC08BC04B018471D31000085
:102A4000640000200FB410B504A9074B02AA039834
:102A500000F028F8044602A9002000F05DFA2046A4
:102A600010BC08BC04B01847192F000030B47446DD
:102A7000641E2578641CAB4200D21D46635D5B007A
:102A8000E31830BC184702E008C8121F08C1002A2A
:102A9000FAD170477047002001E001C1121F002ADF
:102AA000FBD17047FFB591B00F460546002606E002
:102AB00025280AD0149A139990476D1C761C287803
:102AC0000028F5D1304615B0F0BD00240094012156
:102AD000F34A029400E004436D1C2B780846203B27
:102AE00098401042F7D128782A280ED00221287861
:102AF0000246303A092A15D8009A0A235A43303A36
:102B000080180C436D1C0090F1E701CF0090002865
:102B100005DA01204003044300984042009002205F
:102B200004436D1C28782E2815D1042004436878AE
:102B30006D1C2A280AD101CF6D1C02900BE002996E
:102B40000A225143303940186D1C02902878014602
:102B500030390929F3D928786C2810D006DC4C28A4
:102B60001AD068280ED06A2817D104E0742813D030
:102B70007A2812D110E00120400504430CE0012125
:102B8000090501E0032109050C436978814203D15D
:102B90000120000524186D1C6D1C287803906E28F8
:102BA0001ED00CDC632831D004DC00288AD05828E1
:102BB00011D1B2E064287BD069280CD178E0732869
:102BC0002DD004DC6F2870D0702804D1A7E07528C0
:102BD0006CD078286BD0149A13999047761C62E0D9
:102BE0006002400F022807D003280AD00428386862
:102BF0000AD006603F1D56E03868F1170660416054
:102C0000F8E738680680F5E70670F3E73878694634
:102C100008740020487404A80390012003E0386879
:102C200003900020C0433F1D61070FD5002101E044
:102C30000199491C029A0191914213DA8142F7DB12
:102C4000019A0399895C0029F2D10BE0002101E08F
:102C50000199491C01918142FADB019A0399895C2F
:102C60000029F5D101990098139A401A0090214645
:102C7000149B00F03BF901998019461807E003986E
:102C800003990078491C0391149A1399904701986D
:102C9000401E0190401CF2D12146149B139A0098CB
:102CA00000F014F986196D1C09E741E033E034E0C7
:102CB0000A200021049005916002410F022905D0ED
:102CC00001CFC2179446032905D007E0FF1DFF0876
:102CD000FF0003CF06E000B2C2179446042902D1D8
:102CE00040B2C1178C4600226146944506DA0A4676
:102CF0000021404291418C462D2102E0210504D55E
:102D00002B216A461176012103E0E10701D0202141
:102D1000F7E7019154E00A200BE0102009E01020B1
:102D2000049000210420044308200591029003E050
:102D300008200021059104906002410F022905D06E
:102D400001CF00229446032906D006E0FF1DFF08AC
:102D5000FF0003CF8C4603E080B2042900D1C0B24B
:102D60000021019121072BD50399702906D0049ADF
:102D70001021059B4A401A4305D00EE040216A46C7
:102D80001176012108E06146014306D030216A46F0
:102D900011760399517602210191049A0821059B2D
:102DA0004A401A430CD16146014301D1610707D55E
:102DB00030216A461176012101910299491E029142
:102DC0000399582904D037A103910FA90F910DE061
:102DD00039A1F9E76146059B049AFDF78EFB039B39
:102DE0008C469B5C0F9A521E0F92137061460143F2
:102DF000F0D10F9807A9081A20300390600704D576
:102E0000012000048443029801E00120029003990C
:102E1000884201DD401A00E000204118029001982C
:102E200009180098401A0090E00306D42146149B2C
:102E3000139A009800F05AF886190020049008E0D0
:102E400006A9085C149A139990470498401C761CB4
:102E5000049001998842F3DBE0030CD52146149BD2
:102E6000139A009800F042F8861904E0149A302072
:102E700013999047761C0299481E02900029F5DCB0
:102E800008E00F980F990078491C0F91149A139934
:102E90009047761C0399481E03900029F1DCFBE65D
:102EA0000928010030313233343536373839616220
:102EB00063646566000000003031323334353637E4
:102EC000383941424344454600000000F8B5044605
:102ED00000251E461746880404D405E03946202004
:102EE000B0476D1C641EF9D52846F8BDFFB50446F1
:102EF000002581B01E46C80301D5302700E02027F9
:102F0000880404D505E038460399B0476D1C641E5B
:102F1000F9D5284605B0F0BD0A68531C0B60107047
:102F200070470000034610B50020024603E09C5C99
:102F3000201880B2521C8A42F9D30149484010BD82
:102F4000FFFF00001FB504460648C078002807D0E0
:102F5000684600F025F8002C02D068460FC8A0474C
:102F60001FBD0000A803002070B50B4CE578267843
:102F7000B54201D26D1CE5706578084E2D01AD1982
:102F80000FC56078401CC0B260702178884201D1C2
:102F90000020607070BD0000A803002088000020A1
:102FA00030B50B49CA78002A10D0521ECA708A78F0
:102FB000084B1201D2183CCA3CC08878401CC0B2F1
:102FC00088700A78904201D10020887030BD0000DE
:102FD000A80300208800002010B50F214020FEF734
:102FE0005BFBFF20F53000F073F80F214020FEF767
:102FF000D3FB054800F06CF80F214020FEF74CFB96
:1030000002A0FFF70FFD10BDB80B00006361743123
:1030100020706F776572206F6B0D0A00002805D055
:103020000022491E02D30270401CFAE770470000DC
:10303000F8B504460F4D0E4868610026AE610520C4
:1030400028610D48012700683F06009008E0AE6146
:103050000A490098FDF75CF8381AA9698142FCD842
:10306000641EF4D22869400840002861F8BD0000C1
:10307000FFFFFF0000E000E000000020102700003C
:10308000F8B504460F4D0E4868610026AE61052074
:1030900028610D48012700683F06009008E0AE61F6
:1030A0000A490098FDF734F8381AA9698142FCD81A
:1030B000641EF4D22869400840002861F8BD000071
:1030C000FFFFFF0000E000E000000020A0860100FC
:1030D000F8B504460F4D0E4868610026AE61052024
:1030E00028610D48012700683F06009009E0AE61A5
:1030F0007D21C9000098FDF70BF8381AA9698142B3
:10310000FCD8641EF3D22869400840002861F8BD4D
:10311000FFFFFF0000E000E00000002010B50446C3
:10312000C0B2FDF7CFFE002802D00020C04310BD82
:10313000204610BD10B5244C2178002906D0204629
:10314000406901290FD0022921D129E0A068FDF7AB
:1031500043F881B2A068FFF797FBE069FDF73CF800
:1031600081B2E0690AE0FDF737F881B26069FFF7E4
:103170008BFBA069FDF730F881B2A069FFF784FBF3
:10318000606AFDF729F881B2606AFFF77DFB20785D
:10319000401CC0B22070032801D10020207010BD57
:1031A000FDF71AF881B26069FFF76EFBE069FDF781
:1031B00013F881B2E069FFF767FB206AFDF70CF8AE
:1031C00081B2206AE1E700001C00002010B5034630
:1031D0000078012203E09C5C6040521C92B28A425B
:1031E000F9D310BD70B59AB0064664216846FCF765
:1031F000BEFF00240120FDF715FF3046FCF7ECFF71
:1032000081B23046FFF740FBC820FFF761FF012085
:10321000FDF76AFF642800D9642005000FD002463C
:1032200069460120FDF718FF6A4629460FA0FFF7FF
:10323000F9FB12A16846FCF7B1FF00280DD101206F
:10324000FDF7F0FE3046FCF7C7FF81B23046FFF7CE
:103250001BFB641CE4B20A2CD6D30A2C03D13146E2
:1032600007A0FFF7DFFB1AB070BD00007265635B5B
:1032700025645D3A25730D0A00000000244F4B00C1
:10328000636D643A25732067707320636D642073E7
:10329000656E64206572726F720D0A0008B56A4629
:1032A00002A1FCF7B5FF009808BD000025780000DA
:1032B000FEF7D8FDFEF70EF8FEF786FA0348FFF793
:1032C00041FEFEF771FDFFF773FBF3E7D10D000040
:1032D000F8B500240746012608E0002C06D0092C8A
:1032E00009D0601E354685403D4204D102210020B0
:1032F000FEF7D2F903E002210020FEF74DFA01208B
:10330000FFF796FE641CE4B20A2CE6D3F8BD7CB548
:1033100003220A210020FEF7C9F902220021C02061
:10332000FEF7C4F9002203211046FDF717FE032122
:1033300000220846FDF712FE0020FEF72DFC0022B9
:1033400003211720FDF70AFE0020FEF745FC0121AE
:103350002120FFF71BF801210020FFF717F80121BA
:103360001C20FFF713F8012568464570002485707E
:10337000C4700471447185716A462146C020FEF70D
:10338000B5F9684644706A460121C020FEF7AEF9DF
:103390006A460521C020FEF7A9F901220021C020BC
:1033A000FEF7F0F901221146C020FEF7EBF90521E6
:1033B000C020FEF771F907216846FFF72FFE684627
:1033C00044706A4609210020FEF790F90122092184
:1033D0000020FEF7D7F9684645706A460A210020AA
:1033E000FEF784F901220A210020FEF7CBF97CBD0B
:1033F0000080009600093D0000127A000024F400CD
:103400004086510100366E010400000003000000F8
:10341000DDDDDDDDDCBBBBDDDDDDDDDDDDDDDDDD21
:103420009888888888888888777777777788888861
:1034300085555556666666666666666666688888F9
:103440008333333222222222222222222228888DF2
:1034500024504F4C4346474D53472C302C302C3092
:103460000D0A000024504F4C4346474D53472C3122
:103470002C300D0A0000000024504F4C4346474DAD
:1034800053472C302C31332C300D0A0024504F4C34
:103490004346474D53472C302C352C300D0A000045
:1034A00024504F4C4346474D53472C302C302C3141
:1034B0000D0A000024504F4C4346474D53472C31D2
:1034C0002C310D0A0000000024504F4C4346474D5C
:1034D00053472C302C31332C310D0A0024504F4CE3
:1034E0004346474D53472C302C352C310D0A0000F4
:1034F00024504F4C434647534156450D0A000000A7
:10350000203500000000002068000000862A00002E
:103510008835000068000020480A0000962A000054
:10352000200000000000000000000000000000007B
:10353000000000000000000000000000000000008B
:1035400064340000A0340000F0340000B434000003
:1035500050340000DC3400008C340000C83400001B
:1035600078340000424B51050003000800000000C1
:1035700000000000424B0C4A020500080000000158
:08358000000000000000000043
:04000005000000C136
:00000001FF
