:020000040000FA
:1040000018220020E5400000FF4000001D5900007C
:1040100000000000000000000000000000000000A0
:10402000000000000000000000000000034100004C
:10403000000000000000000005410000D961000000
:10404000615F0000695F0000715F00007D5F00003C
:10405000AF4F0000456900009D6A00005D6B0000E5
:10406000255F00002D5F0000AD610000B961000018
:1040700029590000315900002D6900003569000000
:104080003D690000195F00004D690000556900009E
:104090005D690000515F0000C36D0000CD5F00004E
:1040A000B14A0000595F0000AF6D00000D6C0000C8
:1040B000394D0000115F000029520000414F0000FF
:1040C0000348854600F0DAFA00480047A34A00009A
:1040D0001822002030BF72B6704762B6704780F376
:1040E0000888704709480A4A002100A1814200D986
:1040F0000244084802600848804708480047FEE735
:10410000FEE7FEE7FEE7FEE7FEE700000000002016
:104110000000000008ED00E0C9680000C140000098
:1041200030B50B46014600202022012409E00D464F
:10413000D5409D4205D31D469540491B25469540D7
:1041400040191546521E002DF1DC30BD03460B43CD
:104150009B0703D009E008C9121F08C0042AFAD23D
:1041600003E00B780370401C491C521EF9D27047C3
:10417000D2B201E00270401C491EFBD270470022FF
:10418000F6E710B513460A4604461946FFF7F0FF56
:10419000204610BD30B505462A460B4610781C78DF
:1041A000521C5B1C002801D0A042F7D0002C03D089
:1041B000002802D06D1CEFE7284630BDCAB2401E71
:1041C0004178401C8A4202D00029F9D10020704772
:1041D000421C0178401C0029FBD1801A704730B581
:1041E00004460020034600E05B1C934203D2E05CDF
:1041F000CD5C401BF8D030BD0321001D401E03786C
:1042000012021A43491EF9D510467047034603228D
:104210000870000A491C521EFAD518467047000063
:104220000FB400B58DB009900B9010A9002000913B
:10423000C0430A9000200C9006480690064807905C
:104240006A4609A80F9900F0A5F90DB008BC04B0A2
:1042500018470000B5450000D5450000FFB5002710
:10426000FF4383B000205C6801909E681D46A969E9
:104270007F1C049888470090296A88470028F6D157
:104280000098401C0CD0032040028443002E19DD0E
:10429000600614D500982B2809D02D280FD103E0F3
:1042A0000020C04307B0F0BD012080020443A9698B
:1042B0007F1C04988847761E0090002E02DD00982F
:1042C000302803D00598002825D035E00120400291
:1042D0000443A969761E7F1C049888470090002E2D
:1042E00003DD782805D0582803D00598002810D081
:1042F00022E00598002801D010281DD1012040029D
:104300008443A969761E7F1C04988847009010207A
:1043100002E0082000E00A2005900DE0012149029A
:104320000C43059A0199761E514308180190A9691A
:104330007F1C049888470090002E05DD05990098A1
:1043400000F013F90028E9DAE96904988847A00524
:1043500002D40120C043A5E7E00722D1600611D5B1
:104360006005019800D5404229680A1D2A60096845
:10437000220501D5087014E0220701D5088010E05D
:1043800008600EE02868011D29600068210502D53B
:104390000199017005E02107019901D5018000E034
:1043A000016038467EE7F8B502464A40D40F420025
:1043B0004B0052085B089A4202D202460846114658
:1043C0004A0023D0C30D4A00DDB2120EAD1A202DD3
:1043D00035DA49020126490AF6058A19002C00D06F
:1043E000524220214F1B1146B9402A411018C20DDC
:1043F0009A4221D0002C17D0012D08DCDA05801A52
:10440000D20F8019D207DBB200F0FEF8F8BDDA0552
:10441000801A012340001B06C01880185A428018D9
:10442000CA0F1043490007E04908C2071143DA05E3
:10443000801A80194008801800F0DEF8F8BD61008D
:104440000122511A001BF7E70122D2075140AAE7C7
:104450000122D2075040A6E770B502464A40D50F68
:1044600040004A00ED0740085208002814D0002AF6
:1044700012D0C40DD30D41020120C0055202490AD9
:10448000520AE41A091812187D34914201D3641CAF
:1044900000E04900002C01DA002070BD00239142A9
:1044A00001D3891A0343400849000028F7D10029A5
:1044B0000AD0914202D10121C90705E0914201D2FF
:1044C000012101E00121C943E005C018401900F0B5
:1044D00093F870BD10B500229623114600F094F8B1
:1044E00010BD410040020122400AD205090E801889
:1044F0007F2901DA00207047962903DC9622511AA1
:10450000C8407047963988407047F0B51FB40646DA
:10451000002082B005464024019100901BE00199E3
:1045200022460F46304600F0CBF8049A059B801ACD
:10453000994110D310461946224600F0B1F8361AB8
:104540008F410197224601200021009F00F0A8F82A
:1045500038184D4100902046641E0028DFDC019B86
:1045600000982946324607B0F0BD3A2800D23038CC
:10457000202302469A43412A01D310463738884205
:1045800001D30020C04370470268137851180160BE
:104590001846704710B5D160044951610449116251
:1045A00000211161114600F0A3F810BD89450000FB
:1045B000E34600004268002A08D001680B78491CD5
:1045C000002B03D0521E06C0184670470121C1605F
:1045D000881E70474268002A0BD0C3680168002B10
:1045E00007D183688B4204D0491E521C06C00020AC
:1045F00070470020C0437047002904DA401C49007E
:1046000001D140084000704770B40024050C05D16A
:104610001024000402D1002921D01124050E01D15B
:1046200000020834050F01D10001241D850F01D1BE
:104630008000A41C002801DB4000641C002908D075
:1046400020252E1B0D46F540A14000D00121294315
:10465000084301061B1B000ADB1D02D5002070BCAD
:104660007047DB05181880180029F8DA401C49004B
:10467000F5D170BC4008400070470000064C012591
:10468000064E05E0E36807CC2B430C3C98471034FA
:10469000B442F7D3FFF718FD3C7F00005C7F0000B9
:1046A00010B5202A04DB0146203A9140002010BDBD
:1046B000914020239C1A0346E3401943904010BDCB
:1046C00010B5202A04DB0846203AD040002110BD56
:1046D0000B46D340D0402024A21A914008431946EB
:1046E00010BD10B50F21C0B2490200F09DF910BDF8
:1046F000F3B58DB000200A9001200B9000260846EB
:104700000C300C4609906269012109989047051EFA
:104710002ED0252D2DD0216A8847002818D0626917
:10472000012109989047216A88470028F7D1411E46
:1047300062690998904700E0761CA1690D98884746
:10474000216A88470028F7D1E1690D988847DAE7A0
:10475000A1690D9888470746A84201D1761CD2E787
:10476000E1690D9888477F1C02D10A98002877D00C
:1047700049E1002762693D463946099890472A2851
:104780000CD16269012109989047012506E00A21B0
:104790004F433F18303FEBD410200543626901219D
:1047A00009989047014630390A2903D29B498F4224
:1047B000DEDCECE7E90600D4994F6C280AD04C28DF
:1047C00010D0682824D06A282ED074280CD07A28DB
:1047D0000AD00DE062690121099890476C2823D026
:1047E00004211CE0202005436269012109989047BB
:1047F000A760656065284FD026DC582839D01ADCC0
:10480000452849D012DC252834D04128B0D143E0D6
:104810006269012109989047682802D008210D4358
:10482000E6E70120C002DEE70220DCE7462833D0BD
:1048300047282CD130E05B2870D061282CD0632829
:104840006CD0642823D161E06F284FD009DC662842
:1048500022D0672820D0692826D06E2817D12EE0D4
:10486000CDE070284DD073286FD075284ED07828B1
:104870000DD154E0A1690D9888470546252800D13F
:104880006CE7E1690D9888476D1C00D16DE7BAE0CF
:104890000A224CE00A2252E0012023466A46C04325
:1048A0000D99C046C046A3E02846402108436060F9
:1048B000A807234601D5002239E000223FE0E8079F
:1048C00000D020E72068011D21600068290501D57E
:1048D000067018E7290701D5068014E7A90703D554
:1048E000F117066041600EE706600CE7284640219C
:1048F00008436060A807234601D5082217E0082274
:104900001DE0484928460840606016E028464021DE
:1049100008436060A8072346BCD5B9E715E02846E0
:10492000402108436060A80707D5234610220120D4
:10493000C0430D99C046C0465AE0234610220120CC
:10494000C0430D99FFF78AFC52E000210C910B4601
:104950000091632802D05B2807D043E0E80601D429
:104960000120A060012000903CE0626901210998CB
:1049700090475E2805D101200C9001466269099894
:1049800090472169002906D10B4601AA8F00491CD6
:10499000D3510829FADB002835D0216900290ED12E
:1049A000C117C90E09184A11930001AA9A1849099A
:1049B0004901411A0120136888400343136062696A
:1049C0000121099890475D28E5D10C98002808D06E
:1049D000002001AB81005A58401CD2435A5008288D
:1049E000F8DB01AB01202246C0430D99C046C0460A
:1049F00000280ADA401C06D10B98002803D00020BA
:104A0000C0430FB0F0BD0A98FBE7E90702D10A994D
:104A1000491C0A91361800200B9074E6CCCCCC0CC3
:104A2000FFFFFF7FF1F7FFFF7F2801D9002207E09A
:104A3000054B42089A5CC00700D112091207120FF9
:104A400001209040084070474C7E000070B58C18E3
:104A50000578401C6B075B0F01D10378401C2A11BD
:104A600006D10278401C03E006780E70401C491CF9
:104A70005B1EF9D12B0705D40023521E0DD40B70F9
:104A8000491CFAE70378401CCB1A921C03E01D78FE
:104A90000D70491C5B1C521EF9D5A142D8D30020D1
:104AA00070BD10B501F010FF02F0BEFF002010BD78
:104AB00010B5C046C046C046C04610BD70B50646DB
:104AC0000125384888B00574002444748474C47483
:104AD0003038046344638463C4632946212001F0B1
:104AE0009BFE01211C2001F097FE69464D738D73DA
:104AF000CC730C744C748D7403AA0821402000F010
:104B0000ADFE69464C7303AA0921402000F0A6FEC1
:104B100003AA0821002000F0A1FE03220821402062
:104B200000F0E8FE05220921402000F0E3FE082104
:104B3000002000F061FE03206946C8700220087161
:104B4000487101F0CBFD6946CA7809795118C91C32
:104B50007143FFF7E5FA6946401E88710F2008721D
:104B60000A20C8710C704C708D70684600F0E8F82F
:104B700069464C770C770C4806900121059405A8EE
:104B800000F098F801221146102000F055F901219B
:104B9000802000F02FF9012200211C2000F02EFAC5
:104BA00008B070BDCC040020FFFFFF1F7FB5054695
:104BB0000121142001F030FE01216A461170002409
:104BC00014715170957055201072517210209072AE
:104BD000172010730420D0725073192090735171F4
:104BE000D480104601F04EFA012001F0F3F9064896
:104BF000012244710321172000F000FA012001F086
:104C000009FA01F0C1FA7FBD0800002008B50020B4
:104C100001F014FE012001F041FE032001F01CFE12
:104C20000121084601F02EFC0A2002F01FFE01209F
:104C30006946087004204870002088700620C870FB
:104C4000684601F07BFD012000F0AEFB012104204D
:104C500001F018FC042001F00DFE08BD1CB504464F
:104C60000721684602F0A8FD01210B2001F0D4FDC8
:104C700000216846017041710422C27001228271D4
:104C800001718170417001F0C9FE01200004041B14
:104C9000A0B201F097FEA0B201F0A0FE002001F04A
:104CA00061FE01F0B1FE01220321052000F0A6F90A
:104CB0001CBD000030B51F4A1378802423431370B5
:104CC000137D047A1B091B012407240F234313754A
:104CD000137DDF2423401375164B0468203B9C632F
:104CE000147D20252C43147544689C639C6B5506E9
:104CF000AC43457AAD07ED0FAD072C439C639C6B2D
:104D00009D05AC43457AED07AD082C439C63012318
:104D10000129917D007A0AD08340994391751078DA
:104D20004006400E10701078C009FCD130BD8340A1
:104D30001943F3E7A000034010B500F007F910BDD8
:104D400010B52B490A7880231A430A70284A203A62
:104D5000936A84791B021B0A240623439362936A95
:104D6000C4781B0A1B0223439362936A7F242402A4
:104D7000A34304796406640C23439362936A7F24FB
:104D80002404A34344796406640A234393620A78A3
:104D90005206520E0A700A78D209FCD1CA79C37938
:104DA0001207120F1B011A43CA71CA79037A12093A
:104DB00012011B071B0F1A43CA718A78DF231A409E
:104DC0008378DB079B0E1A438A70CA78F7231A4050
:104DD0000378DB071B0F1A43CA70CA784078BF23D9
:104DE000C0071A40400E0243CA700020087110BD6F
:104DF000A0000340044A0129116802D081431160D8
:104E000070470143FBE70000A4000340044A034944
:104E100013680B400343136070470000FF002AFF34
:104E2000A400034003490968014201D001207047F2
:104E300000207047A400034010B50C4BFF280BD096
:104E4000012A1A7810D082431A70D8784006400E92
:104E5000C9010843D87010BD5878BF24D20720403C
:104E6000520E10435870F0E70243EDE7A0000340F4
:104E70001FB58EB0AA206C462070552060700C20A3
:104E8000A0700020E0701020207110220EA9601D7B
:104E9000FFF75CF91321A01C02F038FA6946487547
:104EA000000A8875054A044810601721684601F019
:104EB000CBFE12B010BD000020BF0200AC040020E9
:104EC00007490A6802604A6842608A688260C96865
:104ED000C1600348A030C17810221143C1707047EF
:104EE000000003400C4A5178037C4906490EDB015F
:104EF000194351700849036860390B6143684B617D
:104F000083688B61C368CB61007C012803D19078F2
:104F10004021084390707047A0000340034909787E
:104F2000014201D00120704700207047A0000340DB
:104F300002494A7802434A7070470000A0000340CB
:104F400010B5C046C046C046C04610BD10B50124CD
:104F5000E4032046FFF766FF01280DD12046FFF746
:104F600055FF0C48FFF7ACFF0B480A4CC0790128ED
:104F700003D00FCC02F054FA10BD064801680802B5
:104F8000000ED02802D005A001F05AFF0FCCFFF789
:104F90006FFF10BD9C0400202E00002049443A25DC
:104FA0003038580010B502F0A1FE002010BD10B539
:104FB000C046C04610BD000070B50E4601461546FD
:104FC000002409A001F03CFF05E0315D08A001F0DC
:104FD00037FF641CA4B228466D1EADB20028F4D180
:104FE00005A001F02DFF70BD25735B25645D3A00BF
:104FF00025303278090000000D0A000030B5C406E3
:10500000E40E0123A340134C23608407E50EFF2424
:10501000AC408907090EA94000280BDA0007000FF1
:10502000083885080C48AD002818C569A5430D430C
:10503000C56107E085080948AD0028180568A54343
:105040000D430560012A02D00548036030BD0448C5
:105050008038FAE780E200E000ED00E000E400E0E4
:1050600080E100E01CB501206A465070907000217C
:10507000D1701171517190710A21002000F0EEFB86
:105080006A460821402000F0E9FB03220A210020A3
:1050900000F0C8FB02220821402000F0C3FB0821D9
:1050A000402000F09FFB0A21002000F09BFB012222
:1050B00003210020FFF7A2FF012203211046FFF782
:1050C0009DFF1CBD0C225043034A00218018C18063
:1050D0000181418170470000E41800200C235843EF
:1050E000044B1950C01882800021C1800181418188
:1050F00070470000E418002070B514460D460646BF
:1051000000F024F80C20104946437318D888A042B8
:1051100017D3D888001BD8800DE05A898859801889
:10512000521C5A810078287058899A886D1C9042C8
:1051300001D1002058812046641EA4B20028ECD181
:1051400070BDFF2070BD0000E41800200C21484312
:105150000C4940184189C2888918828889B28A42DC
:1051600002D88288891A89B202898A4209D00189C3
:10517000C2889142018901D882888918C288891A17
:1051800041817047E41800200C2148430149401830
:10519000C0887047E4180020F0B50C23124D584326
:1051A0004319DC889E88A418B44203D99A88DC8805
:1051B000121B92B200240FE00F5D0B4E1D89365872
:1051C00076196D1C1D8137701D899E88B54201D1ED
:1051D00000251D81641CA4B29442EDD3D8888018A8
:1051E000D8800020F0BD0000E418002030B50C226B
:1051F0000C4C50430219D3889588AB4210D21389C6
:105200002058C0185B1C1381017010899188884256
:1052100001D100201081D088401CD080002030BDFA
:10522000FF2030BDE418002010B5C046C046C0467F
:10523000C04610BDF3B58BB004460025FF272021E2
:10524000684608970995FEF79AFF204A012C0CD072
:10525000022C0AD0042C08D0062C06D0082C04D02E
:105260000C2C02D004200DB0F0BD106A16460121AE
:10527000490288430C99C907890D084310626B469F
:105280001349A80009586D1C61431950082DF7D324
:105290000C2C00D1019700211D46FF2008908800AA
:1052A00008E0089C671E08970DD30A4CF4620A4C6C
:1052B000F462135014582B589C42F2D1491C08290F
:1052C000EBD30998CFE70720CDE7000000000240AC
:1052D0002C7E00005A5A0000A5A500000648054B88
:1052E000C3620649C16200220263C362C1624263B3
:1052F000704700005A5A000000000240A5A50000B7
:10530000F8B50546FF261B4800270096854201D9BF
:105310000420F8BD184C03E00098411E009120D3F2
:10532000206AC006F8D400F02DF8144A144B0096F9
:105330000AE00098411E009113D3E262E362206A02
:1053400080088000801C2062206A8007800F02286D
:10535000EFD100202870009605E00098411E0091D2
:1053600001D20920F8BD206AC006F6D4FFF7B6FFC7
:105370003846F8BDFFFF0100000002405A5A000005
:10538000A5A500000648054BC3620649C16200227C
:10539000D2430263C362C162426370475A5A00003B
:1053A00000000240A5A5000010B508490246064BC2
:1053B0000020CB62064BCB620B6A0C249207A343FE
:1053C000120F13430B6210BD5A5A00000000024036
:1053D000A5A50000FCB5054600200190FF261B484E
:1053E0000F460096854201D90420FCBD184C03E00D
:1053F0000098411E00911FD3206AC006F8D4154AB8
:10540000154B00960AE00098411E009114D3E26209
:10541000E362206A80088000401C2062206A8007C6
:10542000800F0128EFD1FFF7ADFF2F70009605E048
:105430000098411E009101D20920FCBD206AC006DF
:10544000F6D4FFF74BFF0198FCBD0000FFFF010001
:10545000000002405A5A0000A5A5000070B5FF26C2
:10546000C0B0013631466846FEF789FE1E4D1F4C1E
:10547000A88868806068002834D1642060600120BA
:10548000FFF782FEA88000282CD0B04200D9304619
:10549000A8806988814225D1024669460120FFF72C
:1054A0002BFE1348206013A16846FEF773FE6C467E
:1054B00004E0401C04460FA1FEF76CFE0028F8D162
:1054C000012149020C48FEF75AFE6846A988201AB5
:1054D000081A82B221460848FEF738FE0020E8800C
:1054E0006880A88040B070BD38000020AC04002067
:1054F00020BF0200244F4B00741B0020F8B5002091
:1055000000901E481C4FC08824213818FEF756FE14
:10551000060028D02A21FEF751FE040023D0E11B0B
:105520007578164AC91C0120D1802278761C02E0C9
:105530004D40401CC0B2315C9142F9D1607869465F
:105540000870A0784870684602F048FAC7B2AF42C7
:105550000AD0224631460AA001F072FC2A4639469A
:105560000DA001F06DFCF8BDA01B401C82B23146BD
:105570000F2000F085FAF8BD741B002038000020D1
:10558000705F73746172743A25732C20705F656E5E
:10559000643A25730D0A00006770732063686563C1
:1055A0006B206572726F72212C7265635F63686530
:1055B000636B5F7265733A253032782C20636865BF
:1055C000636B5F7265733A253032780D0A00000014
:1055D00010B51021034801F065FB0120FFF772FDB3
:1055E00010BD00006400002010B51021034801F038
:1055F00059FB0120FFF766FD10BD0000740000207C
:1056000070B59CB0642102A8FEF7B9FD0024012109
:105610001C2001F001F900206A46507001219170B0
:10562000D0701071507191710B21402000F016F96B
:105630006A460A21402000F011F90B21402000F0B9
:1056400063F90120FFF73EFD4B26F6000120FFF72E
:105650009BFD0546014631A001F0F2FB642D00D907
:105660006425002D13D02A4602A90120FFF744FD2E
:1056700002AA29462CA001F0E3FB2FA102A8FEF705
:1056800089FD002803D02EA001F0DAFB1AE00B21DF
:10569000402000F0B1F8C82002F0E8F80B214020CB
:1056A00000F032F90120FFF70DFD304602F0DEF880
:1056B000641CE4B2214626A001F0C2FB01F086FB87
:1056C0000A2CC3D30A2C20D001F080FB224CA06806
:1056D00002F028F901F07AFB606902F023F901F089
:1056E00075FBA06802F01EF901F070FBE06802F0A3
:1056F00019F901F06BFBE06902F014F901F066FBA7
:10570000206902F00FF91CB070BD0B21402000F0A1
:1057100073F812A001F094FBF5E7000072785F6C5B
:10572000656E3A25640D0A007265635B25645D3A17
:1057300025730D0A000000003136363000000000ED
:1057400047505320696E6974206F6B0D0A0000008A
:10575000693A25640D0A0000380000206770732044
:10576000696E6974206973206661696C0D0A0000B6
:1057700010B50B21402000F03FF80120FFF7A2FCFC
:1057800010BD10B50B21402000F0BEF810BD006820
:10579000C840C007C00F704730B50023DB4300226C
:1057A000064C07E0855C5D402D06AD0D65591B0A72
:1057B0006B40521C8A42F5D3D84330BD9000002084
:1057C00030B50023064C07E0C55C55402D06AD0DF5
:1057D0006559120A6A405B1C8B42F5D3D04330BD39
:1057E00090000020034B10B50022C01800F0EAFC26
:1057F000002010BD100E0240034B10B50122C0184E
:1058000000F0E0FC002010BD140D024092001018C2
:10581000034A10B58018002200F0D4FC002010BD0F
:10582000300D024092001018034A10B58018012272
:1058300000F0C8FC002010BD300D0240024A10B537
:105840008018FFF7A4FF10BD040D0240024A10B5F6
:105850008018FFF79CFF10BD000E024070B5044693
:10586000214815460E460022201800F0ABFCB1007E
:105870001E4A09190020891808601B482A78001F51
:105880003146201800F09EFC17486A780C383146E3
:10589000201800F097FC1448AA78103031462018E0
:1058A00000F090FC1048EA7814303146201800F0DF
:1058B00089FC0D482A7918303146201800F082FC06
:1058C00009486A7920303146201800F07BFC0849ED
:1058D00088680122D2039043AA79D207120C1043A0
:1058E0008860002070BD00000C0D0240000C0240DA
:1058F000000F024089000818024940180260002089
:1059000070470000000C0240034B10B50122C01884
:1059100000F058FC002010BD100D024008B500201A
:1059200000900028FDD008BD10B5C046C04610BD8F
:1059300010B5C046C04610BDF8B50122694600202A
:10594000FFF7DAFB3E4E00253E4C002872D160780E
:105950000622030001F084FA08051B212932404F7A
:10596000556E68460078AA2864D1FF210131364877
:10597000FEF705FC01206070A580258165812570FA
:10598000E580324830607D2000017061F8BD6846D6
:10599000007855284DD1022031E06846A188007872
:1059A0000918A1802070032029E06846A1880078AA
:1059B0000918A18000022081042020E06946208986
:1059C000097808432081A3885918A180002801D0B4
:1059D000052014E062702DE0684601781A4B60895A
:1059E0001954401C80B26081A3885918A180218974
:1059F0008842EFD01EE068460078E08007206070A3
:105A000018E0684600780102E0880143E180A2883E
:105A10000F484240A280914205D122890A4920784C
:105A200000F050F805E00BA001F00AFA0020FFF7A3
:105A300049FB657070690028A8D16570F8BD000049
:105A4000AC04002022000020741A002020BF0200B5
:105A5000FFFF0000636865636B206572726F722CD4
:105A6000207265765F73756D3A253034782C20632B
:105A70006865636B5F73756D3A253034780D0A0085
:105A800070B515460E4CAA22227055226270A07085
:105A9000280AE0702571601D2A46FEF757FB6D1D30
:105AA000ADB2A91EA01C01F031FC60556D1CA9B25D
:105AB000000A6054491C89B2204601F0C5F870BD47
:105AC00074190020F7B5A6B00C460546802101A840
:105AD000FEF755FB2946D6A001F0B2F9D74AE81ED9
:105AE00028991746002501260C37891E030001F06E
:105AF000B7F91580756D5B2C534B433E0C362E2C3D
:105B000087909EC4D6FDFCFB2C00214622A8289A33
:105B1000FEF71CFB20A8007B8022C109214691438F
:105B2000C209D2011143402291434206D20F920191
:105B30001143090900070901000F229D0143259B1C
:105B4000249A2846009400F0C9F929B0F0BDFFF767
:105B500018FE20A80571012221A90E2064E1FFF79B
:105B600007FE20A80571012221A90D205CE1204635
:105B7000289901F097F8E8E7FFF72AFD20A80571BA
:105B8000012221A90A204FE120A80571FFF72CFD71
:105B9000012221A9092047E120A80571012221A99C
:105BA0000820FFF76DFF77E02078B8706078F87014
:105BB0008AB23A803979814204D03871A11C02201E
:105BC000FFF7EAFA012221A906202DE1BD71FE713D
:105BD000FF203871012221A9052003E0FD71012277
:105BE00021A90420FFF74CFFF97995A001F028F9CD
:105BF000ABE720A8057101227E7121A9032013E1E2
:105C0000957020A8057101F05FFC012221A91020E8
:105C10000AE1914996701420C86101F0A5FC8F48F3
:105C20000122057020A8057121A91120FCE0214660
:105C300022A8289AFEF78AFA20A8007B8022C109B0
:105C400021469143C209D2011143402291434206A9
:105C5000D20F92011143090900070901000F229E8A
:105C60000143259B249A3046009400F037F920A880
:105C70000571012221A91220D6E07948012206707F
:105C800020A8057121A91120FFF7FAFE0D2140205F
:105C9000FFF7B2FDFFF76CFD7248067055E720A8CC
:105CA0000571012103208902800301F0C9FF60789A
:105CB000217807020F436C48390A47718171E078F7
:105CC000A1780002684E0843F071000A3072601D2E
:105CD000FEF792FA2179000208433146093100911A
:105CE000FEF794FA204602E096E07EE038E00930C4
:105CF000FEF782FA217A0002084331460D310C4644
:105D0000FEF784FA394659A001F09AF8307AF27910
:105D10000102114359A001F093F80098FEF76CFAC4
:105D200001465AA001F08CF82046FEF765FA0146BC
:105D30005AA001F085F85E480021C9438560418082
:105D4000012103208902800301F07AFF0121312023
:105D5000C903800201F074FF012221A9142063E02D
:105D600020A805716078227800021043504DCAB215
:105D700028802A716988814233D0688028460C3097
:105D8000A11C0646FEF7E2F9FEF7A5F93124A86842
:105D9000A4022A790019314601F086FFFEF79DF929
:105DA000A8682A79001901A901F074FF2A793146FF
:105DB00001A8FEF714FA00280FD02A7901A93DA006
:105DC000FFF7FAF82A7931463DA0FFF7F5F8A86801
:105DD0002A790019314601F067FF2979A86840182F
:105DE000A860012221A915201EE001F0C1FE0028B3
:105DF00020A804D00671012221A9162014E0057103
:105E0000012221A91620FFF73BFE30A001F018F86F
:105E1000002001F0EDFD98E6684606714671867136
:105E2000C671042201A91720FFF72AFE8DE60000A3
:105E3000636D643A253032780D0A0000220000209C
:105E400063616E5F6F74612E6F74615F73746174F0
:105E500065203A2564000000AC0400200400002006
:105E6000090000200A000020741D0020736F667472
:105E70005F7665723A2530780D0A000068775F76A4
:105E800065723A2530780D0A00000000746F746165
:105E90006C5F6C656E3A25640D0A000066696C657E
:105EA0005F63726333323A2530780D0A00000000D8
:105EB0008C1D00206F746120627566660000000012
:105EC0006F74612064617461000000006961705F3B
:105ED0006C6F61645F6170700D0A00000FB410B5E3
:105EE0000220FFF71BF80028FAD101206946087646
:105EF0008002FEF78BFF02A8FEF7F4FF0220FFF7F7
:105F000017F8032001F062FC10BC08BC04B018476D
:105F100010B5C046C04610BD10B5C046C046C0460C
:105F2000C04610BD10B5C046C04610BD10B5C04635
:105F3000C04610BD05490A6904231A430A610A696B
:105F4000012383401A430A6130BF704700ED00E02F
:105F500010B5C046C04610BD10B5C046C04610BD05
:105F600010B500F011F810BD10B500F023F810BD09
:105F700010B5C046C046C046C04610BD10B5C046AC
:105F8000C046C046C04610BD10B50A210020FFF72C
:105F90005DFC012803D10A210020FFF723FC062124
:105FA0000020FFF753FC012803D106210020FFF752
:105FB00019FC10BD10B508214020FFF747FC01284F
:105FC00003D108214020FFF70DFC10BD10B500F0F3
:105FD0004DF810BD70B5094C05460022032120463E
:105FE00000F0F0F800220421204600F0EBF82A46E9
:105FF0000621204600F0E6F870BD000004140040C1
:1060000010B500220321024800F0DCF810BD0000AA
:106010000414004010B502460721024800F0D2F8EF
:1060200010BD000000140040034630B501200202FC
:1060300093420FD8084A146BC503C907AC43090C37
:106040000C431463116BDB05490A4902DB0D19434C
:10605000116330BD042030BD0014004010B5032191
:106060000148FFF794FB10BD0414004010B5FFF782
:10607000F5FF012803D102494871FFF7C1FF10BDA8
:106080000800002070B504460020FFF7C3FF0F4D45
:106090002868082188432178C907090F0843286028
:1060A000601C00F015F8686807210902884321790F
:1060B0004907490D084368606179E088FFF7B4FF3C
:1060C0002046083000F02CF870BD0000001400409D
:1060D000124A1168131499430378DB075B0C1943C8
:1060E00011600178002902D0012907D013E011685E
:1060F0008078C908C9004007400F0AE0407840286E
:1061000001D30420704711683F231B029943800686
:10611000800C014311600020704700000014004013
:1061200010B5184A7D211368C9001B060ED55368A7
:1061300001242343536002E053689B0704D4491EA3
:106140000904090CF8D11BE0002919D001789160ED
:106150004178D16081781161017991614179D16192
:1061600081791162C07850615068400840005060E9
:106170001068000602D550688007FCD4002010BDCE
:10618000092010BD00140040074841680122114356
:10619000416041688907FCD5416849084900416070
:1061A00041688907FCD470470014004010B5C04610
:1061B000C046C046C04610BD10B5C046C046C04629
:1061C000C04610BD01238B400168012A02D09943CB
:1061D000016070471943FBE710B500F001F810BDEE
:1061E000704700007CB5234E3068002840D122A0C3
:1061F00000F026FE0620FEF7D9FC0021212000F049
:106200000BFB0021084600F007FB0021012000F0F5
:1062100003FB0721684601F0CFFA01206946487068
:106220006A4609210020FFF719FB6A460821402031
:10623000FFF714FB08210020FFF766FBFEF712FFB3
:1062400000F0C4FD0025104C00F0C0FD0020FFF759
:1062500071FE6079002804D00CA000F0F1FD65719A
:10626000F2E701F062FD0CA000F0EAFD0D4830609D
:106270007CBD0000AC040020656E74657220736CF8
:106280006565700D0A0000000800002077616B65ED
:106290002E2E2E0D0A000000737973207765656B32
:1062A0000D0A000020BF0200FEB50020C04302908E
:1062B0000D2401210F2000F0AFFA2146002000F04C
:1062C0008DFD00F09DFD002000F014FA002000F08C
:1062D00023FAFEF79BFC0121032000F0D3F8394E8E
:1062E0007D21C9003068FDF71BFF37490024401E9F
:1062F00088420BD83549486135480723C2691202E4
:10630000120A4D042A43C2618C610B613148334F3C
:1063100004703148C4717C7001F098F90721684617
:1063200001F04AFA01211C2000F076FA6846447018
:1063300001258570C4700471447185716A4602211B
:106340000020FFF78BFAE1246402204600F00CFCE9
:10635000204600F0A9FBBD70FFF752F92048FEF778
:10636000ADFB00F033FD1F48FEF778FC00F042FB68
:1063700001210C20FEF75EFF002802D01AA000F0D9
:106380005FFD20491E48086014480A211030029A17
:10639000FFF716FA01461CA000F052FD1DA220A135
:1063A00022A000F04DFDFF2102310A4624A000F09A
:1063B00047FD2BA0316800F043FD2FA000F040FD09
:1063C000FEBD000000000020FFFFFF0000E000E035
:1063D00004ED00E0240000202E0000200800002032
:1063E00090D00300B80B0000466C6173685F496E83
:1063F0006974206973206661696C0D0A00000000F1
:1064000020BF0200AC04002043524333323A25300F
:10641000780D0A0031373A32353A35330000000042
:106420004D6172202034203230323500636F6D7040
:10643000696C652074696D653A257325730D0A00D2
:10644000534F4654564953494F4E3A2530782C20E5
:106450004857564953494F4E3A2530780D0A0000A7
:1064600053797374656D436F7265436C6F636B3AF8
:1064700025640D0A0000000073797320696E697449
:106480000D0A0000F3B581B00C46002600F0CCFCEC
:10649000002C00D001243E4D2F6A0198E903032807
:1064A0003AD006DC00280CD0012815D0022804D1EF
:1064B00026E0042845D048285CD004262F623046C8
:1064C000FEBD28684008400020432860002CF5D01D
:1064D000E8680005FAD5F1E7286A084328622D4AE2
:1064E000D06803210843D0602868022188436100F6
:1064F00008432860002CE1D028694006FAD5DDE782
:10650000286804218843A10008432860002CD5D0C6
:106510006869C004FAD5D1E7286A084328621E4A90
:10652000D068032189030843D06028680821884384
:10653000E10008432860002CC0D0A8694006FAD5C5
:10654000BCE7286A0121090408432862134A10683D
:10655000012108431060142001F060F9286810211F
:106560008843210108432860002CA7D0E86B400332
:10657000FAD5A3E70648403081698214914322038B
:1065800011438161002C99D081690905FAD595E7FD
:1065900000200040401D0240800D024000240040C9
:1065A00010B58AB00024142248496846FDF7CEFD94
:1065B0004648001F0068089000200590069007904C
:1065C000434801886A4691834188518381881183B9
:1065D000C088D0823E48203000883E4990820868BA
:1065E0000006420F3C48130000F03AFC05042A2C38
:1065F000383B6800C8686A464005928B400D90425F
:1066000001D1049C5AE0C8686A464005528B400D8F
:10661000904201D1039C51E0C8686A464005128B44
:10662000400D904201D1029C48E0C8686A4640058E
:10663000D28A400D904201D1019C3FE0009C3DE098
:1066400004463BE06846808A4A699205920D904272
:10665000684601D1448C31E0048C2FE00124E4032E
:106660002CE0CA6BD243920724D16846808BCA685B
:106670005205520D904201D104981BE06846408BB0
:10668000CA685205520D904201D1039812E0684643
:10669000008BCA685205520D904201D1029809E060
:1066A0006846C08ACA685205520D904201D10198CD
:1066B00000E00098CA6BD205140F444308680AB082
:1066C0004005410F2046C84010BD0000107E00006C
:1066D000000C10000020004000127A0010B5FFF7F7
:1066E0005FFF03490968C904890FC84010BD000055
:1066F0000020004010B5044600F096FB054A1168E2
:106700000720000281436007400D01431160002013
:1067100010BD00000020004010B5044600F084FBCE
:10672000054A11680320C0028143A007C00C014341
:106730001160002010BD0000002000401EB50022A6
:1067400031490092019202920B886C4623814B885A
:10675000E3808B88A380C988618083782B49032BD1
:1067600007D0C3782A4C63432A4CA34228D9062079
:106770001EBD2389CC686405640DA34202D1C37891
:10678000022BF4D86B46DB88CC686405640DA34209
:1067900002D1C378022BEAD86B469B88CC6864058B
:1067A000640DA34202D1C378032BE0D86B465B880B
:1067B000CC686405640DA34202D1C378062BD6D8F9
:1067C000CB6B03246403A3430478A407640C234322
:1067D000CB63CB6B1C24A34344786407E40E2343B0
:1067E000CB63CB6BFF24E134A343C4782407E40DCF
:1067F0002343CB63CB6B80789B089B008007800F83
:106800000343CB6310461EBD000C10000020004067
:1068100000127A00006CDC0210B50A46810603D52E
:10682000DF210140044802E001460348001FFFF752
:10683000C9FC002010BD00002420004010B5054A0E
:106840000146136900200C248907A343090F0B4359
:10685000136110BD0020004010B5054A01461369C0
:10686000002030248907A343890E0B43136110BD18
:106870000020004070B50446002500F0D5FA064817
:106880000168E02291436207120E1143016000F09B
:1068900013F8284670BD000000200040054A01465C
:1068A000136900209B089B008907890F0B43136124
:1068B000704700000020004010B5FFF771FE01494D
:1068C000086010BD0000002010B514484088144C2A
:1068D00080056169800D890A8902014361610F4861
:1068E00020380089E1684005400DC90AC90201430A
:1068F000E160FFF7E1FF216A206AE20310432062B2
:106900000848C268084B1A40C2600368B0221343AB
:106910000360036A13430362216210BD200C100060
:1069200000200040401D02404FFF000010B5C0464F
:10693000C04610BD10B5C046C04610BD10B5C0461B
:10694000C04610BD10B500F01FF810BD10B5C04610
:10695000C04610BD10B5C046C04610BD10B5C046FB
:10696000C04610BD0146012200208A40D143014AA1
:10697000516170470058004002490969C140C80789
:10698000C00F70470058004010B50020FFF7F4FF1B
:10699000012812D10020FFF7E5FF0848084B816865
:1069A000491C8160002081005A58002A01D0521EE3
:1069B0005A50401CC0B20828F5D310BD0800002072
:1069C000AC040020044A0146136800201B0C1B0481
:1069D0000B4313607047000000580040044A014612
:1069E000536800201B0C1B040B43536070470000CE
:1069F0000058004003490020CA6801231A43CA60B6
:106A0000704700000058004003490020CA680B1579
:106A10001A43CA60704700000058004010B51E4974
:106A20000022CB6803242403A3430478A407A40C06
:106A30002343CB60CB684C15A3434478E407A40DF3
:106A40002343CB60CB688C15A3438478E407E40D23
:106A50002343CB60CB687024A343C4786407640EDF
:106A60002343CB60CB680824A3430479E407240FB5
:106A70002343CB60CB680424A3434479E407640F29
:106A80002343CB60CB6880790224C007A343800FE7
:106A90000343CB60104610BD0058004010B500F015
:106AA000B9F8C046C04610BD30B587B005460721CD
:106AB00004A800F081FE01211C20FFF7ADFE002498
:106AC0006846447404AA09212046FEF7C7FE012245
:106AD00009210020FEF70EFF01216846417404AA37
:106AE0000A210020FEF7BAFE01220A210020FEF74B
:106AF00001FF1021684600F05FFE01210020FFF732
:106B00008BFE40216846017044804470CC000395A0
:106B10008480FFF7E3FD650502906946284600F092
:106B2000EFF80021284600F0D1F80021284600F0B7
:106B3000DBF8012203210620FEF760FA2246054910
:106B40000020FEF7CBFAE20003490220FEF7C6FA66
:106B500007B030BDE4040020E408002010B500F0C8
:106B600087F8C046C04610BD30B587B0054607213E
:106B700004A800F021FE01211C20FFF74DFE012199
:106B80006846417404AA03210020FEF767FE012233
:106B900003210020FEF7AEFE00246846447404AAD8
:106BA00004212046FEF75AFE022204210020FEF7AF
:106BB000A1FE01210846FFF72FFE40216846017023
:106BC00044804470CC0003958480FFF787FD0D4D11
:106BD00002906946284600F093F80021284600F00C
:106BE00075F80021284600F07FF8012203210720D4
:106BF000FEF704FA224604490120FEF76FFA07B0B7
:106C000030BD000000010040E406002010B5C04681
:106C1000C04610BD10B50124A4070021204600F095
:106C20006AF800280CD00021204600F04FF82046DA
:106C300000F0A0F80349C87001460020FEF7D6FA1C
:106C400010BD000008000020F8B5002401270D4603
:106C50000646BF0705E0315D384600F08EF8641C3B
:106C6000A4B228466D1EADB20028F4D1F8BD0000D4
:106C700010B50A4C0021204600F03DF800280CD049
:106C80000021204600F022F8204600F073F8044965
:106C9000087101460120FEF7A9FA10BD000100406D
:106CA00008000020F8B50D4606460024064F05E012
:106CB000315D384600F061F8641CA4B228466D1EB0
:106CC000ADB20028F4D1F8BD0001004010B500229B
:106CD0001430FFF777FA002010BD10B50122001D17
:106CE000FFF770FA002010BD10B50122001DFFF75C
:106CF00069FA002010BD10B51030FEF748FD10BD38
:106D00007CB505461A480C0003C8019100900FD0CD
:106D1000002068606088617822780843A188114368
:106D2000084368602078402804D0C02802D01DE0C5
:106D300004207CBDA0886946400A8000095CE068A8
:106D40008840FDF7C7FB0646A068FDF7C3FB314648
:106D5000FDF782FB3F210906FDF725FBFDF7C1FB8F
:106D600080B2A86104212846FFF7B7FF00207CBD50
:106D7000247E00000068C0B2704770B50D4604461E
:106D800003212046FFF7B7FF0028F9D02068000A4A
:106D900000022843206001212046FFF7ACFF0028B5
:106DA000F9D001212046FFF791FF002070BD10B5FA
:106DB000C046C046C046C046C046C046C046C046A3
:106DC00010BD10B5C046C04610BD000002481E21CF
:106DD0000160E12101607047800F004000B503466B
:106DE000084600F015F80549486820229043DA0764
:106DF000920E10434860002000BD0000800F00404C
:106E000002481E210160E12101607047800F0040AF
:106E100004494A68000712091201000F02434A6040
:106E200070470000800F0040034802498160034919
:106E3000816070475A5A000000200040A5A500005C
:106E40000FB410B503A9044B044A029800F024F8CB
:106E500010BC08BC04B01847B978000090040020AA
:106E600030B47446641E2578641CAB4200D21D46C3
:106E7000635D5B00E31830BC184702E008C8121FCE
:106E800008C1002AFAD170477047002001E001C113
:106E9000121F002AFBD17047FFB591B00F4605467F
:106EA000002606E025280AD0149A139990476D1CF5
:106EB000761C28780028F5D1304615B0F0BD0024A6
:106EC00000940121F34A029400E004436D1C2B78E6
:106ED0000846203B98401042F7D128782A280ED047
:106EE000022128780246303A092A15D8009A0A2346
:106EF0005A43303A80180C436D1C0090F1E701CFE3
:106F00000090002805DA0120400304430098404225
:106F10000090022004436D1C28782E2815D10420EF
:106F2000044368786D1C2A280AD101CF6D1C029099
:106F30000BE002990A225143303940186D1C02902F
:106F40002878014630390929F3D928786C2810D0DF
:106F500006DC4C281AD068280ED06A2817D104E025
:106F6000742813D07A2812D110E001204005044380
:106F70000CE00121090501E0032109050C436978B2
:106F8000814203D10120000524186D1C6D1C287856
:106F900003906E281ED00CDC632831D004DC00285E
:106FA0008AD0582811D1B2E064287BD069280CD14E
:106FB00078E073282DD004DC6F2870D0702804D1BD
:106FC000A7E075286CD078286BD0149A1399904755
:106FD000761C62E06002400F022807D003280AD026
:106FE000042838680AD006603F1D56E03868F1175B
:106FF00006604160F8E738680680F5E70670F3E759
:107000003878694608740020487404A80390012069
:1070100003E0386803900020C0433F1D61070FD58F
:10702000002101E00199491C029A0191914213DA71
:107030008142F7DB019A0399895C0029F2D10BE0C8
:10704000002101E00199491C01918142FADB019A7A
:107050000399895C0029F5D101990098139A401A87
:1070600000902146149B00F03BF9019980194618C5
:1070700007E0039803990078491C0391149A139927
:1070800090470198401E0190401CF2D12146149B6C
:10709000139A009800F014F986196D1C09E741E075
:1070A00033E034E00A200021049005916002410F92
:1070B000022905D001CFC2179446032905D007E065
:1070C000FF1DFF08FF0003CF06E000B2C217944681
:1070D000042902D140B2C1178C4600226146944572
:1070E00006DA0A460021404291418C462D2102E0F9
:1070F000210504D52B216A461176012103E0E10721
:1071000001D02021F7E7019154E00A200BE0102084
:1071100009E0102004900021042004430820059178
:10712000029003E008200021059104906002410FC5
:10713000022905D001CF00229446032906D006E09B
:10714000FF1DFF08FF0003CF8C4603E080B2042937
:1071500000D1C0B20021019121072BD503997029DC
:1071600006D0049A1021059B4A401A4305D00EE030
:1071700040216A461176012108E06146014306D0AC
:1071800030216A4611760399517602210191049AC1
:107190000821059B4A401A430CD16146014301D1A5
:1071A000610707D530216A461176012101910299C4
:1071B000491E02910399582904D037A103910FA9C0
:1071C0000F910DE039A1F9E76146059B049AFDF79F
:1071D0009CF9039B8C469B5C0F9A521E0F92137076
:1071E00061460143F0D10F9807A9081A2030039097
:1071F000600704D5012000048443029801E00120C7
:1072000002900399884201DD401A00E000204118F5
:107210000290019809180098401A0090E00306D4E3
:107220002146149B139A009800F05AF88619002002
:10723000049008E006A9085C149A139990470498F2
:10724000401C761C049001998842F3DBE0030CD5C6
:107250002146149B139A009800F042F8861904E026
:10726000149A302013999047761C0299481E029078
:107270000029F5DC08E00F980F990078491C0F9160
:10728000149A13999047761C0399481E039000297D
:10729000F1DCFBE609280100303132333435363772
:1072A0003839616263646566000000003031323352
:1072B00034353637383941424344454600000000F2
:1072C000F8B5044600251E461746880404D405E098
:1072D00039462020B0476D1C641EF9D52846F8BDFC
:1072E000FFB50446002581B01E46C80301D53027EE
:1072F00000E02027880404D505E038460399B0470C
:107300006D1C641EF9D5284605B0F0BD034610B5C6
:107310000020024603E09C5C201880B2521C8A4286
:10732000F9D30149484010BDFFFF0000034610B5E6
:107330000020024604E09C5C2018521CC0B2D2B26D
:107340008A42F8D310BD000030B589B00220FDF7A5
:107350001BFF284D04000DD0082C1AD8024607A99F
:107360000220FDF7C9FE0398210700090001090F5B
:10737000084317E06879012809D1002068710120CD
:1073800069460871024601A90320FEF779FB09B09E
:1073900030BD082207A90220FDF7AEFE03980009C0
:1073A000000108300390A87813490002441803989C
:1073B000802108434021884302070390120F07A948
:1073C00004A8FCF7C3FEA879C10605D50007012172
:1073D00000090907401801E0000700092043029056
:1073E000069802AC00900FCCFEF778FDA879401CFF
:1073F000A871CCE72E0000202100D0001FB5044664
:107400000648C07C002807D0684600F021F8002C10
:1074100002D068460FC8A0471FBD0000CC04002062
:1074200070B50A4DEC7C2E7CB44201D2641CEC7425
:107430006C7C240164190FC4687C401CC0B2687461
:10744000297C884201D10020687470BDCC040020E2
:1074500030B50A4AD17C00290FD0491ED174917CE5
:10746000090189183AC93AC0907C401CC0B2907496
:10747000117C884201D10020907430BDCC040020E2
:107480003EB50021019106206A46029110715171AA
:10749000012090715620D0710A4C072101A8FFF7F6
:1074A00045FF6A46D0723109090180200831014345
:1074B00040208143029B019A20460095FEF70EFD75
:1074C0003EBD000021281418E0B586B000250195C6
:1074D0000126694602950E714D718E715620C87154
:1074E000072101A8FFF722FF6946C8723F093F0143
:1074F00080200837074340208743029901980B46B4
:10750000024603910490009439461548FEF7E6FCC4
:10751000009439461248039B049AFEF7DFFC01955C
:1075200007206946029508714D718E715620C87109
:10753000072101A8FFF7FAFE6946C872029E019D65
:1075400033462A46394607480094FEF7C7FC3346BF
:107550002A46394603480094FEF7C0FC06B0E0BD59
:107560002160141821281418E0B586B00025019573
:107570000126694602950E714D718E71A920C87160
:10758000072101A8FFF7D2FE6946C8723F093F01F3
:1075900080200837074340208743029901980B4613
:1075A000024603910490009439462648FEF796FC63
:1075B000009439462348039B049AFEF78FFC0195FB
:1075C00008206946029508714D718E71A920C87115
:1075D000072101A8FFF7AAFE6946C872029901981F
:1075E0000B46024603910490009439461648FEF774
:1075F00075FC009439461448039B049AFEF76EFC10
:10760000019506206946029508714D718E715620CC
:10761000C871072101A8FFF789FE6946C872029E5A
:10762000019D33462A46394607480094FEF756FC2A
:1076300033462A46394604480094FEF74FFC06B00C
:10764000E0BD000021601418212814181CB5012188
:107650001C20FFF7E1F800206946487001248C7077
:10766000C870087148718C716A460F214020FEF77E
:10767000F5F86A460E214020FEF7F0F86A460D2123
:107680004020FEF7EBF86A4605210020FEF7E6F8F9
:107690000E214020FEF7B0F80D214020FEF7ACF897
:1076A0000F214020FEF7A8F805210020FEF72CF955
:1076B00069464C706A4606210020FEF7CFF8032287
:1076C00006210020FEF7AEF806210020FEF78AF81A
:1076D000012203210020FDF791FC1CBD70B5214C57
:1076E000A07800281BD021781F4DFF26F536A8680A
:1076F0000B00FFF7B5FB05040B151E2814000D2128
:107700004020FEF779F80120AE6007E0002806D19E
:107710000D214020FEF7F8F80220AE60207070BD09
:107720000028FCD10F214020FEF766F80320AE6050
:10773000F4E70028F3D10F214020FEF7E5F80B48CD
:10774000A8600420EAE70028E9D10F214020FEF7D5
:1077500053F80026267006A0FFF772FBA6700848B3
:10776000E86070BD08000020AC040020B80B0000E9
:107770006361743120706F776572206F6B0D0A0042
:10778000307500001CB506A003C8019100900521CA
:107790006846FEF701F8014603A0FFF751FB1CBD48
:1077A00013141519A70000006372635F76616C3AC9
:1077B0002530387800000000002805D00022491E3E
:1077C00002D30270401CFAE770470000F8B5044687
:1077D0000F4D0E4868610026AE61052028610D48F6
:1077E000012700683F06009008E0AE610A49009852
:1077F000FCF796FC381AA9698142FCD8641EF4D2C1
:107800002869400840002861F8BD0000FFFFFF0024
:1078100000E000E00000002010270000F8B504465A
:107820000F4D0E4868610026AE61052028610D48A5
:10783000012700683F06009008E0AE610A49009801
:10784000FCF76EFC381AA9698142FCD8641EF4D298
:107850002869400840002861F8BD0000FFFFFF00D4
:1078600000E000E000000020A0860100F8B504461A
:107870000F4D0E4868610026AE61052028610D4855
:10788000012700683F06009009E0AE617D21C90034
:107890000098FCF745FC381AA9698142FCD8641E9F
:1078A000F3D22869400840002861F8BDFFFFFF00BF
:1078B00000E000E00000002010B50446C0B2FDF773
:1078C00071FB002802D00020C04310BD204610BD2F
:1078D00010B5002823D0124B0022001F196803E0C6
:1078E000814203D80A4649680029F9D1002A0AD002
:1078F0001368841A9C4204D100681818106010465E
:1079000002E0506000E01860002907D002680B1AFE
:10791000934203D10B68D21802604968416010BDE0
:107920009404002070B59AB0064664216846FCF7BE
:1079300026FC00240120FDF7C5FB3046FCF748FC7F
:1079400081B23046FFF7AEF9C820FFF78FFF012064
:10795000FDF71AFC642800D9642005000FD0024608
:1079600069460120FDF7C8FB6A4629460FA0FFF7CC
:1079700067FA12A16846FCF70DFC00280DD1012022
:10798000FDF7A0FB3046FCF723FC81B23046FFF741
:1079900089F9641CE4B20A2CD6D30A2C03D13146EF
:1079A00007A0FFF74DFA1AB070BD00007265635B67
:1079B00025645D3A25730D0A00000000244F4B003A
:1079C000636D643A25732067707320636D64207360
:1079D000656E64206572726F720D0A0008B56A46A2
:1079E00002A1FCF71DFC009808BD000025780000EE
:1079F00070B54168094CE1600068FCF770FB00203D
:107A0000074B084E421E8100CD182A6089190A6072
:107A1000401C0828F7DBE068804770BD08000020A4
:107A200080E100E080E200E001202B4980038860D3
:107A3000FEF73AFCFFF7A6FE284F294E294D2A4CA7
:107A40002069002805D17D20C000206127A0FFF714
:107A5000F7F93878297808430FD10621FDF7EEFEB3
:107A6000012803D0E068002805D006E02248E06045
:107A7000FEF7B8FB01E001203870307801280FD103
:107A8000E06900280CD1FFF7FBFC14201B49E061E2
:107A90000878401CC0B20870642801D30020307000
:107AA000287800280ED0FEF79DFBFDF7D7FCFDF7E8
:107AB00025FDFDF741FF1248FFF7A0FCA069002853
:107AC00003D006E0FFF70AFEEFE7FFF73DFC0320D7
:107AD000A061FFF77BF9B3E700ED00E00A000020AA
:107AE0002400002009000020AC0400206D637520F4
:107AF00068656172740D0A00307500000400002092
:107B0000714E0000F0B50B30C108C900144F0026BB
:107B1000144A0FE003688B420BD38B4205D95C1AE1
:107B20004318456830C3083B00E04368136002C057
:107B300004E0021D10680028ECD13046002803D173
:107B40003868002801D00020F0BD064A06481060C1
:107B5000064A121AD208D20044C001203860D7E782
:107B600098040020940400201C1E002018200020EF
:107B7000F8B50027FF4300252748FCF73DFB0446E6
:107B80008020FFF7BFFF009014E0802C01D98020F7
:107B900000E0204686B23120800232462818009943
:107BA00000F078F83A4631460098FDF709FEA41B2C
:107BB0000746AD19002CE8D11748001DFCF71CFB47
:107BC000B8421DD1144915480939FCF71FFB124969
:107BD000012009390871104811210938FDF7DCFD31
:107BE0000D490831FCF712FB0B4903201522093916
:107BF000800300F059F80098FFF76AFE0020F8BDF6
:107C00000246394606A0FFF71BF90098FFF760FE11
:107C10000020C043F8BD00007D1D00205858FAFA2E
:107C20006461746143524333323A2530782C2066C4
:107C3000696C655F63726333323A25307800000007
:107C4000F8B5002501270C4606467F0210E07019A2
:107C5000FDF756FB002803D007A0FFF7F1F8F8BDA9
:107C6000FF35FF350235BC42F9D3FF3CFF3C023CF7
:107C7000002CECD1F8BD0000466C6173685F536561
:107C800063746F7245726173652069732066616900
:107C90006C00000010B5002302E0C45CCC545B1CF7
:107CA0009342FAD310BD0000F8B516460D460746BC
:107CB00000240AE0295D3819FDF78CFB002803D069
:107CC00003A0FFF7BDF8F8BD641CB442F2D3F8BDC1
:107CD000466C6173685F5772697465427974652098
:107CE0006973206661696C0D0A000000F8B5002414
:107CF0000746012608E0002C06D0092C09D0601E9A
:107D0000354685403D4204D102210020FDF774FD37
:107D100003E002210020FDF7F7FD0120FFF756FDEB
:107D2000641CE4B20A2CE6D3F8BD7CB503220A2118
:107D30000020FDF76BFD022208214020FDF766FDC3
:107D4000002203211046FDF759F9002203210120EA
:107D5000FDF754F90020FEF73DF90022032117201A
:107D6000FDF74CF90020FEF755F901212120FEF71F
:107D700053FD01210020FEF74FFD01210846FEF7CB
:107D80004BFD01211C20FEF747FD0125684645708B
:107D900085700024C4700471447185716A4608219D
:107DA0004020FDF75BFD684644706A46092140208B
:107DB000FDF754FD6A4608210020FDF74FFD032220
:107DC00008214020FDF796FD052209214020FDF7FE
:107DD00091FD08210020FDF70FFD684644706A46BA
:107DE00009210020FDF73AFD012209210020FDF7BD
:107DF00081FD684645706A460A210020FDF72EFD88
:107E000001220A210020FDF775FD7CBD008000964F
:107E100000093D0000127A000024F4004086510160
:107E200000366E0104000000030000002000000086
:107E3000170000001B00000050460000E022020076
:107E400018000000F0000000E8030000DDDDDDDDCB
:107E5000DCBBBBDDDDDDDDDDDDDDDDDD98888888DB
:107E60008888888877777777778888888555555682
:107E700066666666666666666668888883333332D9
:107E800022222222222222222228888D24504F4C74
:107E90004346474D53472C302C302C300D0A000000
:107EA00024504F4C4346474D53472C312C300D0A3C
:107EB0000000000024504F4C4346474D53472C30A0
:107EC0002C31332C300D0A0024504F4C4346474D83
:107ED00053472C302C352C300D0A000024504F4CC9
:107EE0004346474D53472C302C302C310D0A0000AF
:107EF00024504F4C4346474D53472C312C310D0AEB
:107F00000000000024504F4C4346474D53472C304F
:107F10002C31332C310D0A0024504F4C4346474D31
:107F200053472C302C352C310D0A000024504F4C77
:107F3000434647534156450D0A0000005C7F000050
:107F4000000000209C0400004C4A0000A4830000B4
:107F50009C0400207C1D00008A6E00000217204D4A
:107F60001112141504011E23A07E1ADC04232C7F99
:107F70001AF0081A8C041A180C1AC8081A04081ADD
:107F8000B40815424B5105120382083F424B0C4A7C
:107F90000205104A01101549C4020C220443FFFFD8
:107FA00010C2963007772C610EEEBA51099919C4A8
:107FB0006D078FF46A7035A563E9A395649E3288D6
:107FC000DB0EA4B8DC791EE9D5E088D9D2972B4C1A
:107FD000B609BD7CB17E072DB8E7911DBF90641036
:107FE000B71DF220B06A4871B9F3DE41BE847DD47A
:107FF000DA1AEBE4DD6D51B5D4F4C785D383569816
:108000006C13C0A86B647AF962FDECC9658A4F5C99
:108010000114D96C0663633D0FFAF50D088DC82075
:108020006E3B5E10694CE44160D5727167A2D1E489
:10803000033C47D4044BFD850DD26BB50AA5FAA8C5
:10804000B5356C98B242D6C9BBDB40F9BCACE36C29
:10805000D832755CDF45CF0DD6DC593DD1ABAC30A5
:10806000D9263A1061DE518051D7C81661D0BFB50C
:10807000F4B42123C4B3569995BACF0FA5BDB89EC9
:10808000B802280888055FB2D90CC624E90BB1876D
:108090007C6F2F114C6858AB1D61C13D2D66B690A9
:1080A00041DC760671DB01BC20D2982A10D5EF891D
:1080B00085B1711FB5B606A5E4BF9F33D4B8E8A259
:1080C000C9077834F910270F8EA8099618980EE181
:1080D000BB0D6A7F2D3D6D08976C6491015C63E672
:1080E000F4516B6B62616C1CD83065854E103C623C
:1080F000F2ED95066C7BA5011BC1F4088257C40FF5
:10810000F5C6D9B06550E9B712EAB8BE8B7C88B91C
:10811000FCDF1DDD62492DDA15F37CD38C654CD470
:10812000FB5861B24DCE51B53A7410B1BCA3E230E8
:10813000BBD441A5DF4AD795D83D6DC4D1A4FBF48B
:10814000D6D36AE96943FCD96E34468867ADD0B8A6
:1081500060DA732D0444E51D03335F4C0AAAC97C21
:108160000DDD3C710550AA41022710100BBE862080
:108170000CC925B56857B3856F2009D466B99FE44B
:1081800061CE0EF9DE5E98C9D9292298D0B0B4A884
:10819000D7C7173DB359810DB42E3B5CBDB7AD6C4D
:1081A000BAC02083B8EDB6B3BF9A0CE2B6039AD238
:1081B000B1743947D5EAAF77D29D1526DB04831613
:1081C000DC73120B63E3843B64943E6A6D0DA85A22
:1081D0006A7A0BCF0EE49DFF099327AE10E40AB133
:1081E0009E077D44930FF0D2A3088768F2011EFE1C
:1081F000C206695D5762F7CB67658071366C19E717
:10820000066B6E761BD4FEE02BD3895A7ADA10CC3B
:108210004ADD676FDFB9F9F9EFBE8E43BEB717D5F8
:108220008EB060E8A3D6D67E93D1A1C4C2D838520E
:10823000F2DF4FF167BBD16757BCA6DD06B53F4BF8
:1082400036B248DA2B0DD84C1B0AAFF64A0336601B
:108250007A0441C3EF60DF55DF67A8EF8E6E317996
:10826000BE69468CB361CB1A8366BCA0D26F25363B
:10827000E2685295770CCC03470BBBB91602222F4C
:10828000260555BE3BBAC5280BBDB2925AB42B0485
:108290006AB35CA7FFD7C231CFD0B58B9ED92C1D56
:1082A000AEDE5BB0C2649B26F263EC9CA36A750AE7
:1082B000936D02A906099C3F360EEB856707721382
:1082C00057C0E205824ABF95147AB8E2AE2BB17B63
:1082D000381BB60C9B8ED2920DBED5E5B7EFDC7C79
:1082E00021DFDB0BD4D2D38642E2D4F1F8B3DD68D0
:1082F0006E83DA1FCD16BE815B26B9F6E177B06FCB
:108300007747B718E65A0888706A0FFFCA3B0666B7
:108310005C0B0111FF9E658F69AE62F8D3FF6B6144
:1083200045CF6C1678E20AA0EED20DD75483044EE6
:10833000C2B30339612667A7F71660D04D47694974
:10834000DB776E3E4A6AD1AEDC5AD6D9660BDF4087
:10835000F03BD83753AEBCA9C59EBBDE7FCFB2473A
:10836000E9FFB5301CF2BDBD8AC2BACA3093B3531F
:10837000A6A3B4240536D0BA9306D7CD2957DE5428
:10838000BF67D9232E7A66B3B84A61C4021B685D01
:10839000942B6F2A37BE0BB4A18E0CC31BDF055A7A
:0483A0008DEF022D2E
:04000005000040C1F6
:00000001FF
