:020000040000FA
:1040000048220020E5400000FF400000FD5D000068
:1040100000000000000000000000000000000000A0
:10402000000000000000000000000000034100004C
:104030000000000000000000054100006168000071
:10404000BD640000C5640000CD640000D9640000B8
:1040500083540000357000008D7100004D72000027
:104060008164000089640000356800004168000038
:10407000095E0000115E00001D7000002570000048
:104080002D700000756400003D7000004570000058
:104090004D700000AD640000B37400003565000091
:1040A000D14B0000B56400009F740000FD72000059
:1040B000E55100006D640000FD560000ED53000066
:1040C0000348854600F078FB00480047C34B0000DA
:1040D0004822002030BF72B6704762B6704780F346
:1040E0000888704709480A4A002100A1814200D986
:1040F0000244084802600848804708480047FEE735
:10410000FEE7FEE7FEE7FEE7FEE700000000002016
:104110000000000008ED00E0B96F0000C1400000A1
:1041200030B50B46014600202022012409E00D464F
:10413000D5409D4205D31D469540491B25469540D7
:1041400040191546521E002DF1DC30BD38B504462D
:10415000C0681821401E4843A16840183C214843CC
:10416000616840183C2148432168451860690C216A
:104170004843216940186921C900401A302100F0E4
:104180000AFA114A50434219084600921A2902DBE2
:104190000E49511800910C2100F0FDF90C4A5043D2
:1041A000009A801800900B4806E0491E425C074BBD
:1041B0005A43009BD21800920029F6DC214668463B
:1041C00000F036FA009838BD801F86078051010044
:1041D0008033E1017487000003460B439B0703D043
:1041E00009E008C9121F08C0042AFAD203E00B78BC
:1041F0000370401C491C521EF9D27047D2B201E034
:104200000270401C491EFBD270470022F6E710B531
:1042100013460A4604461946FFF7F0FF204610BD34
:1042200030B505462A460B4610781C78521C5B1C9C
:10423000002801D0A042F7D0002C03D0002802D0E3
:104240006D1CEFE7284630BDCAB2401E4178401CC5
:104250008A4202D00029F9D100207047421C01781F
:10426000401C0029FBD1801A704730B5044600205D
:10427000034600E05B1C934203D2E05CCD5C401B34
:10428000F8D030BD0321001D401E037812021A43EE
:10429000491EF9D510467047034603220870000AEC
:1042A000491C521EFAD51846704700000FB400B5DD
:1042B0008DB009900B9010A900200091C0430A9086
:1042C00000200C9006480690064807906A4609A808
:1042D0000F9900F0FDF90DB008BC04B018470000BC
:1042E000F146000011470000FFB50027FF4383B0EF
:1042F00000205C6801909E681D46A9697F1C049897
:1043000088470090296A88470028F6D10098401C09
:104310000CD0032040028443002E19DD600614D522
:1043200000982B2809D02D280FD103E00020C0438E
:1043300007B0F0BD012080020443A9697F1C0498E6
:104340008847761E0090002E02DD0098302803D0AA
:104350000598002825D035E0012040020443A969D2
:10436000761E7F1C049888470090002E03DD782875
:1043700005D0582803D00598002810D022E00598D1
:10438000002801D010281DD1012040028443A969D2
:10439000761E7F1C049888470090102002E00820B9
:1043A00000E00A2005900DE0012149020C43059A26
:1043B0000199761E514308180190A9697F1C049841
:1043C00088470090002E05DD0599009800F06AF9F5
:1043D0000028E9DAE96904988847A00502D4012099
:1043E000C043A5E7E00722D1600611D5600501981A
:1043F00000D5404229680A1D2A600968220501D5B6
:10440000087014E0220701D5088010E008600EE073
:104410002868011D29600068210502D501990170F5
:1044200005E02107019901D5018000E001603846CF
:104430007EE7F8B502464A40D40F42004B005208CE
:104440005B089A4202D20246084611464A0023D02F
:10445000C30D4A00DDB2120EAD1A202D35DA490225
:104460000126490AF6058A19002C00D05242202163
:104470004F1B1146B9402A411018C20D9A4221D053
:10448000002C17D0012D08DCDA05801AD20F801914
:10449000D207DBB200F056F9F8BDDA05801A012325
:1044A00040001B06C01880185A428018CA0F1043DB
:1044B000490007E04908C2071143DA05801A80194C
:1044C0004008801800F036F9F8BD61000122511A49
:1044D000001BF7E70122D2075140AAE70122D207C9
:1044E0005040A6E770B502464A40D50F40004A004A
:1044F000ED0740085208002814D0002A12D0C40D3D
:10450000D30D41020120C0055202490A520AE41AA1
:10451000091812187D34914201D3641C00E049004F
:10452000002C01DA002070BD0023914201D3891ACA
:104530000343400849000028F7D100290AD09142DE
:1045400002D10121C90705E0914201D2012101E018
:104550000121C943E005C018401900F0EBF870BD17
:1045600010B500229623114600F0ECF810BD410072
:1045700040020122400AD205090E80187F2901DA83
:1045800000207047962903DC9622511AC8407047D4
:1045900096398840704770B500242546002801DA16
:1045A00001244042002901DA01254942FFF7B8FD04
:1045B000AC4200D04042002C00D0494270BDF0B562
:1045C0001FB40646002082B00546402401910090A9
:1045D0001BE0019922460F46304600F00FF9049A7D
:1045E000059B801A994110D310461946224600F0C7
:1045F000F5F8361A8F410197224601200021009FCD
:1046000000F0ECF838184D4100902046641E002858
:10461000DFDC019B00982946324607B0F0BD000060
:1046200010B5024900F004F810BD00001C1E002067
:1046300070B50C4600683C21FFF772FD21603C21FB
:10464000FFF76EFD61601821FFF76AFD0546A16066
:104650000721001DFFF764FDA1610F48A90008189C
:104660000E49FFF75DFD0246443288086261E06151
:104670003B2802D3910700D0401C0021084B0A467A
:104680002161995C814203D8401A521C2261F8E7EB
:10469000401CE060204670BD6C0B0000B5050000BA
:1046A000808700003A2800D23038202302469A43FF
:1046B000412A01D310463738884201D30020C04335
:1046C000704700000268137851180160184670475F
:1046D00010B5D16004495161044911620021116192
:1046E000114600F0A3F810BDC54600001F480000A9
:1046F0004268002A08D001680B78491C002B03D0BF
:10470000521E06C0184670470121C160881E7047BE
:104710004268002A0BD0C3680168002B07D1836868
:104720008B4204D0491E521C06C000207047002056
:10473000C0437047002904DA401C490001D14008F9
:104740004000704770B40024050C05D1102400040B
:1047500002D1002921D01124050E01D10002083414
:10476000050F01D10001241D850F01D18000A41C7B
:10477000002801DB4000641C002908D020252E1BE6
:104780000D46F540A14000D0012129430843010610
:104790001B1B000ADB1D02D5002070BC7047DB0527
:1047A000181880180029F8DA401C4900F5D170BCAF
:1047B0004008400070470000064C0125064E05E009
:1047C000E36807CC2B430C3C98471034B442F7D332
:1047D000FFF77AFC7C8800009C88000010B5202A36
:1047E00004DB0146203A9140002010BD9140202377
:1047F0009C1A0346E3401943904010BD10B5202A8F
:1048000004DB0846203AD040002110BD0B46D340BF
:10481000D0402024A21A91400843194610BD10B57B
:104820000F21C0B2490200F09DF910BDF3B58DB063
:1048300000200A9001200B90002608460C300C4600
:1048400009906269012109989047051E2ED0252DF7
:104850002DD0216A8847002818D062690121099863
:104860009047216A88470028F7D1411E626909985C
:10487000904700E0761CA1690D988847216A884717
:104880000028F7D1E1690D988847DAE7A1690D980A
:1048900088470746A84201D1761CD2E7E1690D9806
:1048A00088477F1C02D10A98002877D049E1002769
:1048B00062693D463946099890472A280CD16269B9
:1048C000012109989047012506E00A214F433F182E
:1048D000303FEBD4102005436269012109989047CD
:1048E000014630390A2903D29B498F42DEDCECE7CE
:1048F000E90600D4994F6C280AD04C2810D06828BB
:1049000024D06A282ED074280CD07A280AD00DE042
:1049100062690121099890476C2823D004211CE08A
:10492000202005436269012109989047A7606560CE
:1049300065284FD026DC582839D01ADC452849D0C4
:1049400012DC252834D04128B0D143E0626901212E
:1049500009989047682802D008210D43E6E7012016
:10496000C002DEE70220DCE7462833D047282CD1FE
:1049700030E05B2870D061282CD063286CD064288C
:1049800023D161E06F284FD009DC662822D0672848
:1049900020D0692826D06E2817D12EE0CDE07028CF
:1049A0004DD073286FD075284ED078280DD154E0A3
:1049B000A1690D9888470546252800D16CE7E16973
:1049C0000D9888476D1C00D16DE7BAE00A224CE0D3
:1049D0000A2252E0012023466A46C0430D99C04690
:1049E000C046A3E02846402108436060A80723464C
:1049F00001D5002239E000223FE0E80700D020E79F
:104A00002068011D21600068290501D5067018E79E
:104A1000290701D5068014E7A90703D5F117066019
:104A200041600EE706600CE72846402108436060BD
:104A3000A807234601D5082217E008221DE04849AF
:104A400028460840606016E0284640210843606020
:104A5000A8072346BCD5B9E715E0284640210843FE
:104A60006060A80707D5234610220120C0430D9996
:104A7000C046C0465AE0234610220120C0430D998B
:104A8000FFF732FC52E000210C910B4600916328A5
:104A900002D05B2807D043E0E80601D40120A060E3
:104AA000012000903CE062690121099890475E284E
:104AB00005D101200C90014662690998904721694F
:104AC000002906D10B4601AA8F00491CD3510829A1
:104AD000FADB002835D0216900290ED1C117C90E93
:104AE00009184A11930001AA9A1849094901411A63
:104AF000012013688840034313606269012109980B
:104B000090475D28E5D10C98002808D0002001AB23
:104B100081005A58401CD2435A500828F8DB01AB98
:104B200001202246C0430D99C046C04600280ADA3B
:104B3000401C06D10B98002803D00020C0430FB0C2
:104B4000F0BD0A98FBE7E90702D10A99491C0A91CE
:104B5000361800200B9074E6CCCCCC0CFFFFFF7F06
:104B6000F1F7FFFF7F2801D9002207E0054B42083B
:104B70009A5CC00700D112091207120F0120904061
:104B8000084070478C87000030B58C180278401CB4
:104B900013071B0F01D10378401C120906D10278BC
:104BA000401C03E005780D70401C491C5B1EF9D1C8
:104BB00001E00B70491C521EFBD1A142E6D300203C
:104BC00030BD10B502F0F8F903F020FB002010BD55
:104BD00010B5C046C046C046C04610BDFCB5002258
:104BE0000192CA06D20E1305C90600933C4C570128
:104BF0009602D5038908030002F0AAFC10090E15DD
:104C00001B21282F343B41474F555A61676E20685E
:104C100040094001104304E020681F2149018843F6
:104C2000384320605AE020681F21890288433043BE
:104C3000F7E720681F21C90388432843F1E720686C
:104C40001F210905884300990843EAE722681F20CD
:104C5000400682430A43226040E060684009400108
:104C6000104304E060681F214901884338436060B5
:104C700034E060681F21890288433043F7E76068A9
:104C80001F21C90388432843F1E761681F200005FD
:104C9000814300980143616020E060681F22520652
:104CA00090430843E3E7A06840094001104304E053
:104CB000A0681F21490188433843A0600EE0A06826
:104CC0001F21890288433043F7E7A1681F20C003F2
:104CD00081432943A16001E0042001900198FCBDBB
:104CE0004024004002494A6B82434A6370470000F7
:104CF000802400400349096B014201D00120704724
:104D00000020704780240040014980000858704707
:104D10005024004070B5040023D0134D012068607A
:104D2000022003F02BF96078A18862880843E188AB
:104D30001143084321890843696808436860A868EB
:104D4000291588432178C907490D0843A860A86838
:104D500004218843A17AC907490F0843A8600020AD
:104D600070BD042070BD00000024004001490120F6
:104D700048607047C02400400149002048607047E7
:104D8000C0240040002802D00178102901D9042055
:104D9000704713498A68CB139A438A608A68CB1498
:104DA0009A434378DB071B0D1A438A608A688B1588
:104DB0009A438378DB07DB0D1A438A6000780F2162
:104DC00000050905401801020548090A40308268BB
:104DD0000F231B059A431143816000207047000098
:104DE000002400400EB50C21684603F08DF8012127
:104DF000102002F089F800F0A7F901206A4610702F
:104E00000020012150704903518009119180D08008
:104E10004901118190726846FFF77CFF0EBD10B505
:104E200001211C2002F070F80721002000F0D2FFC1
:104E30000021402000F0CEFF0221402000F0CAFFF8
:104E400010BD08B50321684603F05EF800206946EE
:104E500088704870032008706846FFF793FF0721A9
:104E60000020FFF7BBFE08210120FFF7B7FE10214D
:104E70000220FFF7B3FEFFF779FF08BD70B50646C5
:104E80000125384888B00574002444748474C474BF
:104E9000343844638463C46304642946212002F0E7
:104EA00033F801211C2002F02FF869464D738D73F1
:104EB000CC730C744C748D7403AA0821402000F04C
:104EC00033FF69464C7303AA0921402000F02CFFF0
:104ED00003AA0821002000F027FF03220821402018
:104EE00000F06EFF05220921402000F069FF082133
:104EF000002000F0EFFE03206946C8700220087110
:104F0000487101F063FF6946CA7809795118C91CD4
:104F10007143FFF705F96946401E88710F2008723A
:104F20000A20C8710C704C708D70684600F05EF9F4
:104F300069464C770C770C4806900121059405A82A
:104F400000F00EF901221146102000F0CBF90121EA
:104F5000802000F0A5F9012200211C2000F0B8FA01
:104F600008B070BDD0040020FFFFFF1F30B585B032
:104F70001021684602F0C8FF042104A802F0C4FF13
:104F80000121142001F0C0FF0121022001F0F2FDF7
:104F900001206B46187002241C7100215970D970D1
:104FA00055221A72587210259D7217221A73042204
:104FB000DA725A7319229A735871D980184601F01F
:104FC00039FB05206B4618745C749D747F20D8747F
:104FD00004A801F08DFB012001F0BAFA012203219F
:104FE000172000F075FA012001F0DCFA01F010FC46
:104FF00005B030BD08B5002001F098FF032001F096
:10500000C5FF032001F0A0FF0121084601F0B2FD19
:105010000A2002F0DBFF0120694608700420487076
:10502000002088700620C870684601F0FFFE01204D
:1050300000F024FCFF20F53002F0EEFF01210420F7
:1050400001F098FD042001F08DFF08BD1CB5044659
:105050000721684602F058FF01210B2001F054FFA0
:1050600000216846017041710422C27001228271E0
:1050700001718170417002F049F801200004041BA5
:10508000A0B202F017F8A0B202F020F8002001F060
:10509000E1FF02F031F801220321052000F018FAA7
:1050A0001CBD10B590B0044601A801F0E9FA6946AC
:1050B000887A02F0A3FC643069460890487A02F0CE
:1050C0009DFC401E69460790087A02F097FC6946ED
:1050D0000690887902F092FC69460590487902F0C2
:1050E0008DFC69460490087902F088FC039000204A
:1050F000C0430B9003A8FFF729F800190E900EA8E3
:10510000FFF78EFA0446007802F007FF6946087040
:10511000207902F002FF69464870207A02F0FDFE15
:10512000694688707F20C870684601F0E1FA01F096
:105130006FFB10B010BD0000024801680222114050
:10514000016070470024004010B504480168012246
:1051500011430160022002F011FF10BD0024004045
:1051600030B51F4A1378802423431370137D047ACB
:105170001B091B012407240F23431375137DDF2410
:1051800023401375164B0468203B9C63147D202537
:105190002C43147544689C639C6B5506AC43457A5C
:1051A000AD07ED0FAD072C439C639C6B9D05AC4395
:1051B000457AED07AD082C439C6301230129917DBD
:1051C000007A0AD083409943917510784006400ECA
:1051D00010701078C009FCD130BD83401943F3E74B
:1051E000A000034010B500F007F910BD10B52B4921
:1051F0000A7880231A430A70284A203A936A8479ED
:105200001B021B0A240623439362936AC4781B0A79
:105210001B0223439362936A7F242402A3430479ED
:105220006406640C23439362936A7F242404A3439B
:1052300044796406640A234393620A785206520E44
:105240000A700A78D209FCD1CA79C3791207120F01
:105250001B011A43CA71CA79037A120912011B078A
:105260001B0F1A43CA718A78DF231A408378DB0741
:105270009B0E1A438A70CA78F7231A400378DB071B
:105280001B0F1A43CA70CA784078BF23C0071A4060
:10529000400E0243CA700020087110BDA0000340F8
:1052A000044A0129116802D081431160704701430B
:1052B000FBE70000A4000340044A034913680B40C5
:1052C0000343136070470000FF002AFFA40003405F
:1052D00003490968014201D001207047002070474E
:1052E000A400034010B50C4BFF280BD0012A1A78FC
:1052F00010D082431A70D8784006400EC901084386
:10530000D87010BD5878BF24D2072040520E1043E9
:105310005870F0E70243EDE7A00003401FB58EB0E0
:10532000AA206C462070552060700C20A0700020D0
:10533000E0701020207110220EA9601DFEF74CFFB6
:105340001321A01C02F06AFB69464875000A8875A3
:10535000054A044810601721684601F0EDFF12B0BD
:1053600010BD000030750000AC04002007490A6839
:1053700002604A6842608A688260C968C160034806
:10538000A030C17810221143C17070470000034063
:105390000C4A5178037C4906490EDB0119435170D0
:1053A0000849036860390B6143684B6183688B610E
:1053B000C368CB61007C012803D190784021084369
:1053C00090707047A000034003490978014201D062
:1053D0000120704700207047A000034002494A782E
:1053E00002434A7070470000A000034010B5C04659
:1053F000C046C046C04610BD10B50124E403204697
:10540000FFF766FF01280DD12046FFF755FF0C4836
:10541000FFF7ACFF0B480A4CC079012803D00FCC32
:1054200002F0D6FB10BD064801680802000ED02825
:10543000F8D005A002F07CF80FCCFFF76FFF10BD8D
:105440009C040020300000206F746163616E696409
:105450003A2530780D0A000003071B0F092B07D8E7
:1054600003091B01902B03D8904201D8884201D236
:10547000012070470020704710B503F093F800201A
:1054800010BD10B5C046C04610BD000070B50E4638
:1054900001461546002409A002F04AF805E0315DF6
:1054A00008A002F045F8641CA4B228466D1EADB2F7
:1054B0000028F4D105A002F03BF870BD25735B25F0
:1054C000645D3A0025303278090000000D0A0000C2
:1054D00030B5C406E40E0123A340134C23608407B7
:1054E000E50EFF24AC408907090EA94000280BDA1D
:1054F0000007000F083885080C48AD002818C5695A
:10550000A5430D43C56107E085080948AD0028188B
:105510000568A5430D430560012A02D005480360D4
:1055200030BD04488038FAE780E200E000ED00E09A
:1055300000E400E080E100E01CB501206A46507004
:1055400090700021D1701171517190710A21002069
:1055500000F0EAFB6A460821402000F0E5FB022249
:105560000A21002000F0CCFB02220821402000F09C
:10557000C7FB0821402000F0A3FB0A21002000F017
:105580009FFB012203210020FFF7A2FF012203213C
:105590001046FFF79DFF1CBD0C225043034A00211B
:1055A0008018C1800181418170470000E818002007
:1055B0000C235843044B1950C01882800021C1802D
:1055C0000181418170470000E818002070B5144641
:1055D0000D46064600F024F80C2010494643731887
:1055E000D888A04217D3D888001BD8800DE05A89EC
:1055F00088598018521C5A810078287058899A88D6
:105600006D1C904201D1002058812046641EA4B236
:105610000028ECD170BDFF2070BD0000E81800200C
:105620000C2148430C4940184189C2888918828856
:1056300089B28A4202D88288891A89B202898A424A
:1056400009D00189C2889142018901D882888918CC
:10565000C288891A41817047E81800200C2148430C
:1056600001494018C0887047E8180020F0B50C23A5
:10567000124D58434319DC889E88A418B44203D9BC
:105680009A88DC88121B92B200240FE00F5D0B4E4B
:105690001D89365876196D1C1D8137701D899E88AD
:1056A000B54201D100251D81641CA4B29442EDD302
:1056B000D8888018D8800020F0BD0000E8180020AD
:1056C00030B50C220C4C50430219D3889588AB425C
:1056D00010D213892058C0185B1C138101701089E7
:1056E0009188884201D100201081D088401CD08050
:1056F000002030BDFF2030BDE818002010B5C046A6
:10570000C046C046C04610BDF3B58BB00446002568
:10571000FF272021684608970995FEF776FD204A65
:10572000012C0CD0022C0AD0042C08D0062C06D058
:10573000082C04D00C2C02D004200DB0F0BD106A4F
:1057400016460121490288430C99C907890D08436F
:1057500010626B461349A80009586D1C614319502B
:10576000082DF7D30C2C00D1019700211D46FF20F6
:105770000890880008E0089C671E08970DD30A4C23
:10578000F4620A4CF462135014582B589C42F2D124
:10579000491C0829EBD30998CFE70720CDE7000083
:1057A00000000240548700005A5A0000A5A50000DE
:1057B0000648054BC3620649C16200220263C36208
:1057C000C1624263704700005A5A00000000024064
:1057D000A5A50000F8B50546FF261B480027009642
:1057E000854201D90420F8BD184C03E00098411E01
:1057F000009120D3206AC006F8D400F02DF8144A96
:10580000144B00960AE00098411E009113D3E26207
:10581000E362206A80088000801C2062206A800782
:10582000800F0228EFD100202870009605E0009834
:10583000411E009101D20920F8BD206AC006F6D4AD
:10584000FFF7B6FF3846F8BDFFFF01000000024039
:105850005A5A0000A5A500000648054BC362064938
:10586000C1620022D2430263C362C16242637047D5
:105870005A5A000000000240A5A5000010B50849D2
:105880000246064B0020CB62064BCB620B6A0C240F
:105890009207A343120F13430B6210BD5A5A000024
:1058A00000000240A5A50000FCB5054600200190BF
:1058B000FF261B480F460096854201D90420FCBDF7
:1058C000184C03E00098411E00911FD3206AC006C7
:1058D000F8D4154A154B00960AE00098411E009135
:1058E00014D3E262E362206A80088000401C2062D8
:1058F000206A8007800F0128EFD1FFF7ADFF2F70DE
:10590000009605E00098411E009101D20920FCBDDF
:10591000206AC006F6D4FFF74BFF0198FCBD0000DB
:10592000FFFF0100000002405A5A0000A5A5000038
:1059300070B5FF26C0B0013631466846FEF765FCFB
:105940001E4D1F4CA88868806068002834D16420F0
:1059500060600120FFF782FEA88000282CD0B042B2
:1059600000D93046A8806988814225D1024669461F
:105970000120FFF72BFE1348206013A16846FEF7B5
:105980004FFC6C4604E0401C04460FA1FEF748FCA7
:105990000028F8D1012149020C48FEF736FC684680
:1059A000A988201A081A82B221460848FEF714FC7A
:1059B0000020E8806880A88040B070BD38000020DA
:1059C000AC04002030750000244F4B00781B0020F1
:1059D000F8B5002000901E481C4FC08824213818BC
:1059E000FEF732FC060028D02A21FEF72DFC040029
:1059F00023D0E11B7578164AC91C0120D18022787A
:105A0000761C02E04D40401CC0B2315C9142F9D19D
:105A1000607869460870A0784870684602F09EFB7E
:105A2000C7B2AF420AD0224631460AA001F080FD3B
:105A30002A4639460DA001F07BFDF8BDA01B401C95
:105A400082B231460F2000F08BFAF8BD781B00209F
:105A500038000020705F73746172743A25732C20D3
:105A6000705F656E643A25730D0A000067707320DD
:105A7000636865636B206572726F72212C72656357
:105A80005F636865636B5F7265733A253032782CAB
:105A900020636865636B5F7265733A253032780DF9
:105AA0000A00000010B51021034801F073FC01202A
:105AB000FFF772FD10BD00006400002010B510213A
:105AC000034801F067FC0120FFF766FD10BD0000F0
:105AD0007400002070B59CB0642102A8FEF795FB0D
:105AE000002401211C2001F00FFA00206A465070AA
:105AF00001219170D0701071507191710B21402073
:105B000000F012F96A460C21402000F00DF90C213A
:105B1000402000F069F90B21402000F065F90120D8
:105B2000FFF73AFD4B26F6000120FFF797FD0546EB
:105B3000014631A001F0FCFC642D00D96425002D44
:105B400013D02A4602A90120FFF740FD02AA2946E8
:105B50002CA001F0EDFC2FA102A8FEF761FB0028AC
:105B600003D02EA001F0E4FC1AE00B21402000F04D
:105B7000B1F8C82002F02AFA0B21402000F034F9D5
:105B80000120FFF709FD304602F020FA641CE4B260
:105B9000214626A001F0CCFC01F090FC0A2CC3D3D6
:105BA0000A2C20D001F08AFC224CA06802F07AFA7C
:105BB00001F084FC606902F075FA01F07FFCA068D6
:105BC00002F070FA01F07AFCE06802F06BFA01F082
:105BD00075FCE06902F066FA01F070FC206902F0E1
:105BE00061FA1CB070BD0B21402000F073F812A0C8
:105BF00001F09EFCF5E7000072785F6C656E3A2557
:105C0000640D0A007265635B25645D3A25730D0AB5
:105C100000000000313636300000000047505320AD
:105C2000696E6974206F6B0D0A000000693A256483
:105C30000D0A00003800002067707320696E6974D7
:105C4000206973206661696C0D0A000010B50B2194
:105C5000402000F03FF80120FFF79EFC10BD10B57A
:105C60000B21402000F0C0F810BD0068C840C007FC
:105C7000C00F704730B50023DB430022064C07E01D
:105C8000855C5D402D06AD0D65591B0A6B40521CAD
:105C90008A42F5D3D84330BD9000002030B50023B0
:105CA000064C07E0C55C55402D06AD0D6559120A3E
:105CB0006A405B1C8B42F5D3D04330BD900000207E
:105CC000034B10B50022C01800F0C0FD002010BD2D
:105CD000100E0240034B10B50122C01800F0B6FDB3
:105CE000002010BD140D024092001018034A10B598
:105CF0008018002200F0AAFD002010BD300D0240E7
:105D000092001018034A10B58018012200F09EFD81
:105D1000002010BD300D0240024A10B58018FFF778
:105D2000A4FF10BD000E024070B504462148154680
:105D30000E460022201800F089FDB1001E4A091904
:105D40000020891808601B482A78001F3146201857
:105D500000F07CFD17486A780C383146201800F0B6
:105D600075FD1448AA7810303146201800F06EFDF9
:105D70001048EA7814303146201800F067FD0D48CD
:105D80002A7918303146201800F060FD09486A79F8
:105D900020303146201800F059FD0849886801225A
:105DA000D2039043AA79D207120C104388600020D6
:105DB00070BD00000C0D0240000C0240000F0240BC
:105DC000890008180249401802600020704700004E
:105DD000000C0240034B10B50122C01800F036FD44
:105DE000002010BD0C0D0240034B10B50122C0185D
:105DF00000F02CFD002010BD100D024008B5002061
:105E000000900028FDD008BD10B5C046C04610BDAA
:105E100010B5C046C04610BDF8B501226946002045
:105E2000FFF7D4FB3E4E00253E4C002872D160782F
:105E30000622030001F08CFB08051B212932404F8C
:105E4000556E68460078AA2864D1FF210131364892
:105E5000FEF7DBF901206070A58025816581257042
:105E6000E580324830607D2000017061F8BD6846F1
:105E7000007855284DD1022031E06846A18800788D
:105E80000918A1802070032029E06846A1880078C5
:105E90000918A18000022081042020E069462089A1
:105EA000097808432081A3885918A180002801D0CF
:105EB000052014E062702DE0684601781A4B608975
:105EC0001954401C80B26081A3885918A18021898F
:105ED0008842EFD01EE068460078E08007206070BE
:105EE00018E0684600780102E0880143E180A2885A
:105EF0000F484240A280914205D122890A49207868
:105F000000F052F805E00BA001F012FB0020FFF7B3
:105F100043FB657070690028A8D16570F8BD00006A
:105F2000AC04002024000020781A00203075000006
:105F3000FFFF0000636865636B206572726F722CEF
:105F4000207265765F73756D3A253034782C206346
:105F50006865636B5F73756D3A253034780D0A00A0
:105F600070B514460F4DAA222A7055226A70A87087
:105F7000200AE8702C71002903D0681D2246FEF724
:105F80002BF9641DA4B2A11EA81C01F047FD2855E1
:105F9000641CA1B2000A6854491C89B2014801F08E
:105FA000CBF970BD78190020F7B5A8B00C460546AE
:105FB000802101A8FEF729F92946E9A001F0B8FAE5
:105FC000EA4AE81E2A991746002501260C37891E41
:105FD000030001F0BDFA188E837B64355C544C4796
:105FE0000D3F3735959EACD2EFEDECEBEAE9E835A5
:105FF000214622A82A9AFEF7EFF820A8007B8022EB
:10600000C10921469143C209D20111434022914363
:106010004206D20F920111430E0900073601000F0C
:106020000643229D24982690259F2946D0A001F062
:106030007FFA3B46009431462846269A00F0FCF948
:106040002BB0F0BDFFF70BFE20A80571012221A99E
:106050000E2082E1FFF7FAFD20A80571012221A997
:106060000D207AE120462A9901F094F9E8E7FFF73C
:1060700019FD20A80571012221A90A206DE120A89F
:106080000571FFF71BFD012221A9092065E120A868
:106090000571012221A90820FFF762FF80E0207826
:1060A000B8706078F87039800146B6A001F040FA07
:1060B0003979F878814205D038713A88A11C0220DC
:1060C000FFF7D4FA012221A9062046E1BD71FE7135
:1060D000FF203871012221A9052003E0FD71012272
:1060E00021A90420FFF73CFFF979ACA001F020FAC8
:1060F000A6E720A8057101227E7121A903202CE1C9
:10610000D57020A8057101F0B7FD012221A910204A
:1061100023E1A848D6701421C16101F0FDFDA64815
:106120000122057020A8057121A9112015E1214641
:1061300022A82A9AFEF750F820A8007B8022C109E5
:1061400021469143C209D2011143402291434206A4
:10615000D20F92011143090900070901000F229E85
:106160000143259B249A3046009400F065F920A84D
:106170000571012221A91220EFE09048067020A8A5
:106180000571012221A91320FFF7EAFE0D2140200D
:10619000FFF7A0FDFFF75AFD00210846FFF79AFD23
:1061A000874806704CE7D1E0C8E0C5E0BBE0A3E05B
:1061B0005DE0FFE720A8057101210320890280032B
:1061C00002F09AF96078217807020F437D48390A76
:1061D00047718171E078A17800027A4E0843F0712E
:1061E000000A3072601DFEF74DF821790002084365
:1061F000314609310091FEF74FF820460930FEF78D
:1062000041F8217A0002084331460D310C46FEF771
:1062100043F839466CA001F08BF9307AF27901022B
:1062200011436DA001F084F90098FEF72BF80146A8
:106230006DA001F07DF92046FEF724F801466EA01E
:1062400001F076F971480021C94385608180012100
:1062500003208902800302F04FF901213120C90394
:10626000800202F049F9012221A9142075E020A83A
:1062700005716078227800021043644DCAB26880CC
:10628000AA71A988814233D0A88028460C30A11C6D
:106290000646FDF7A1FFFDF71EFF3124A868A40202
:1062A000AA790019314602F05BF9FDF716FFA868DC
:1062B000AA79001901A902F049F9AA79314601A881
:1062C000FDF7D3FF00280FD0AA7901A950A0FFF74E
:1062D000DDF8AA79314651A0FFF7D8F8A868AA7965
:1062E0000019314602F03CF9A979A8684018A86065
:1062F000012221A9152030E002F096F8002820A8FC
:1063000004D00671012221A9162026E00571012280
:1063100021A91620FFF724FE43A001F009F900206F
:1063200001F026FF8CE66846067146718671C671DB
:10633000042201A9172010E0967081E6002108468A
:10634000FFF752FD00221146192006E00021084601
:10635000FFF7C0FC002211461A20FFF701FE6FE68E
:10636000636D643A253032780D0A00002400002065
:1063700073656E645F63616E49643A253038780DE9
:106380000A00000063616E5F6F74612E7061636B61
:106390005F6E756D3A25640D0A00000063616E5FE3
:1063A0006F74612E6F74615F7374617465203A2538
:1063B00064000000AC040020040000200A0000205B
:1063C0000B000020781D0020736F66745F76657285
:1063D0003A2530780D0A000068775F7665723A25B5
:1063E00030780D0A00000000746F74616C5F6C659A
:1063F0006E3A25640D0A000066696C655F6372631E
:1064000033323A2530780D0A00000000901D00203C
:106410006F74612062756666000000006F74612011
:1064200064617461000000006961705F6C6F616499
:106430005F6170700D0A00000FB410B50220FEF706
:10644000C3FF0028FAD10120694608768002FEF7D2
:1064500033FF02A8FEF79CFF0220FEF7BFFF0320D8
:1064600001F064FD10BC08BC04B0184710B5C0466C
:10647000C04610BD10B5C046C046C046C04610BD9F
:1064800010B5C046C04610BD10B5C046C04610BDD0
:1064900005490A6904231A430A610A6901238340F2
:1064A0001A430A6130BF704700ED00E010B5C046E6
:1064B000C04610BD10B5C046C04610BD10B500F0B6
:1064C00011F810BD10B500F029F810BD10B5C04688
:1064D000C046C046C04610BD10B5C046C046C04606
:1064E000C04610BD10B50A210020FFF715FC012899
:1064F00003D10A210020FFF7E3FB01210020FFF771
:106500000BFC012806D101210020FFF7D9FB02492D
:106510000020887010BD00000800002010B5082180
:106520004020FFF7F9FB012803D108214020FFF7A5
:10653000C7FB10BD10B500F069F810BD10B50246DC
:106540000721024800F082F910BD00000414004049
:1065500070B5094C054600220321204600F076F96B
:1065600000220421204600F071F92A460621204627
:1065700000F06CF970BD00000414004010B500225A
:106580000421024800F062F910BD0000041400402C
:1065900010B500220321024800F058F910BD000098
:1065A0000414004010B502460721024800F04EF9DD
:1065B00010BD000000140040034630B50120020267
:1065C00093420FD8084A146BC503C907AC43090CA2
:1065D0000C431463116BDB05490A4902DB0D1943B7
:1065E000116330BD042030BD0014004010B50421FB
:1065F0000148FFF73AFB10BD0414004010B5032119
:106600000148FFF732FB10BD0414004070B5FFF7DE
:10661000F5FF0125064C012802D1A571FFF7B8FF4F
:10662000FFF7E4FF012802D1A571FFF7A7FF70BDB6
:106630000800002070B504460020FFF7B3FF0F4D9F
:106640002868082188432178C907090F0843286072
:10665000601C00F081F868680721090288432179ED
:106660004907490D084368606179E088FFF7A4FF96
:106670002046083000F098F870BD0000001400407B
:1066800010B51A4A7D211368C9001B060CD5536842
:1066900001242343536002E053689B0702D4491E40
:1066A000FAD201E000291ED091680170D1684170D2
:1066B00011680907116901D4C906C90E8170916971
:1066C00001715169C170D1694171116A817150685C
:1066D0004008400050601068000602D550688007EE
:1066E000FCD4002010BD092010BD000000140040A3
:1066F00070B504460020FFF721FF207859220021C1
:10670000FEF7AAFE134E30680007A07801D41222CB
:1067100000E024220021FEF79FFE002818D16078B7
:1067200059220021FEF798FE050011D1207840067D
:10673000400E706360784006400E7062A07880065C
:10674000800EB062E078F0620120FFF7F7FE284685
:1067500070BD000000140040124A116813149943E0
:106760000378DB075B0C194311600178002902D024
:10677000012907D013E011688078C908C9004007D3
:10678000400F0AE04078402801D304207047116888
:106790003F231B0299438006800C014311600020B7
:1067A000704700000014004010B5184A7D2113689E
:1067B000C9001B060ED5536801242343536002E031
:1067C00053689B0704D4491E0904090CF8D11BE047
:1067D000002919D0017891604178D16081781161E8
:1067E000017991614179D16181791162C0785061FB
:1067F00050684008400050601068000602D550689C
:106800008007FCD4002010BD092010BD00140040FA
:106810000748416801221143416041688907FCD55E
:10682000416849084900416041688907FCD47047C4
:106830000014004010B5C046C046C046C04610BD5A
:1068400010B5C046C046C046C04610BD01238B40AF
:106850000168012A02D09943016070471943FBE7A0
:1068600010B500F001F810BD70470000FEB5394EBC
:106870003068002868D138A000F05AFE002121209D
:1068800000F042FB0021084600F03EFB0021012001
:1068900000F03AFB0021102000F036FBFEF74CFC24
:1068A000FEF76AFA1020FEF71DFA0721684601F08C
:1068B0002BFB0120694648706A4609210020FFF73A
:1068C00033FA6A4608214020FFF72EFA08210020FB
:1068D000FFF78AFAFEF74AFB234DA878002801D17A
:1068E000FEF72AFE00F0EAFD204C214F00F0E6FD05
:1068F0000420FEF7D6FBA068000C0004C019A060BD
:10690000A068010C1B4809040818A0602068012138
:10691000C903084320600020FFF7BAFDA8790028CA
:1069200005D015A000F004FE0020A871DEE7A878CD
:1069300001280AD0012001F043FC01F07FFE11A0E4
:1069400000F0F6FD12483060FEBD12A000F0F0FD30
:10695000CCE70000AC040020656E74657220736C97
:106960006565700D0A00000008000020002000404E
:106970005A5A0000A5A5000077616B652E2E2E0DDA
:106980000A000000737973207765656B0D0A0000BB
:1069900030750000736869705F6D6F64655F666C69
:1069A00061670D0A00000000FEB50F24012120469A
:1069B00000F0AAFA2146002000F088FD00F098FDC2
:1069C000002000F00FFA002000F01EFAFEF712FB84
:1069D0000121032000F0CEF8384E7D21C900306837
:1069E000FDF79EFB36490024401E88420BD83549EE
:1069F000486135480723C2691202120A4D042A432E
:106A0000C2618C610B613148324F04703048C471EF
:106A1000BC7001F0F3F90721684601F075FA012115
:106A20001C2000F071FA6846447001258570C4701E
:106A30000471447185716A4602210020FFF774F9E0
:106A4000E120400200F008FCE120400200F0A4FB3D
:106A500001F0C7FDFEF7E3F9FEF7C4F9FEF7F1F91F
:106A60001D480470FD70FFF735F81C48FEF706FA64
:106A700000F024FD1A48FEF7E9FA00F033FB01218B
:106A80000C20FEF741FE002802D016A000F050FDB9
:106A90001B491A4808601BA21DA120A000F048FD58
:106AA000FF2102310A4622A000F042FD28A03168F1
:106AB00000F03EFD2CA000F03BFDFEBD00000020DC
:106AC000FFFFFF0000E000E004ED00E027000020F1
:106AD00030000020080000202600002090D0030095
:106AE000B80B0000466C6173685F496E6974206979
:106AF00073206661696C0D0A0000000030750000AB
:106B0000AC04002031373A33383A34320000000008
:106B10004D6179203230203230323500636F6D7034
:106B2000696C652074696D653A257325730D0A00DB
:106B3000534F4654564953494F4E3A2530782C20EE
:106B40004857564953494F4E3A2530780D0A0000B0
:106B500053797374656D436F7265436C6F636B3A01
:106B600025640D0A0000000073797320696E697452
:106B70000D0A0000F3B581B00C46002600F0CCFCF5
:106B8000002C00D001243E4D2F6A0198E903032810
:106B90003AD006DC00280CD0012815D0022804D1F8
:106BA00026E0042845D048285CD004262F623046D1
:106BB000FEBD28684008400020432860002CF5D026
:106BC000E8680005FAD5F1E7286A084328622D4AEB
:106BD000D06803210843D0602868022188436100FF
:106BE00008432860002CE1D028694006FAD5DDE78B
:106BF000286804218843A10008432860002CD5D0D0
:106C00006869C004FAD5D1E7286A084328621E4A99
:106C1000D068032189030843D0602868082188438D
:106C2000E10008432860002CC0D0A8694006FAD5CE
:106C3000BCE7286A0121090408432862134A106846
:106C4000012108431060142001F098F928681021F0
:106C50008843210108432860002CA7D0E86B40033B
:106C6000FAD5A3E706484030816982149143220394
:106C700011438161002C99D081690905FAD595E706
:106C800000200040401D0240800D024000240040D2
:106C900010B58AB00024142248496846FDF79CFAD2
:106CA0004648001F00680890002005900690079055
:106CB000434801886A4691834188518381881183C2
:106CC000C088D0823E48203000883E4990820868C3
:106CD0000006420F3C48130000F03AFC05042A2C41
:106CE000383B6800C8686A464005928B400D904268
:106CF00001D1049C5AE0C8686A464005528B400D99
:106D0000904201D1039C51E0C8686A464005128B4D
:106D1000400D904201D1029C48E0C8686A46400597
:106D2000D28A400D904201D1019C3FE0009C3DE0A1
:106D300004463BE06846808A4A699205920D90427B
:106D4000684601D1448C31E0048C2FE00124E40337
:106D50002CE0CA6BD243920724D16846808BCA6864
:106D60005205520D904201D104981BE06846408BB9
:106D7000CA685205520D904201D1039812E068464C
:106D8000008BCA685205520D904201D1029809E069
:106D90006846C08ACA685205520D904201D10198D6
:106DA00000E00098CA6BD205140F444308680AB08B
:106DB0004005410F2046C84010BD00003887000044
:106DC000000C10000020004000127A0010B5FFF700
:106DD0005FFF03490968C904890FC84010BD00005E
:106DE0000020004010B5044600F096FB054A1168EB
:106DF0000720000281436007400D0143116000201D
:106E000010BD00000020004010B5044600F084FBD7
:106E1000054A11680320C0028143A007C00C01434A
:106E20001160002010BD0000002000401EB50022AF
:106E300031490092019202920B886C4623814B8863
:106E4000E3808B88A380C988618083782B49032BDA
:106E500007D0C3782A4C63432A4CA34228D9062082
:106E60001EBD2389CC686405640DA34202D1C3789A
:106E7000022BF4D86B46DB88CC686405640DA34212
:106E800002D1C378022BEAD86B469B88CC68640594
:106E9000640DA34202D1C378032BE0D86B465B8814
:106EA000CC686405640DA34202D1C378062BD6D802
:106EB000CB6B03246403A3430478A407640C23432B
:106EC000CB63CB6B1C24A34344786407E40E2343B9
:106ED000CB63CB6BFF24E134A343C4782407E40DD8
:106EE0002343CB63CB6B80789B089B008007800F8C
:106EF0000343CB6310461EBD000C10000020004071
:106F000000127A00006CDC0210B50A46810603D537
:106F1000DF210140044802E001460348001FFFF75B
:106F200095FC002010BD00002420004010B5054A4B
:106F30000146136900200C248907A343090F0B4362
:106F4000136110BD0020004010B5054A01461369C9
:106F5000002030248907A343890E0B43136110BD21
:106F60000020004070B50446002500F0D5FA064820
:106F70000168E02291436207120E1143016000F0A4
:106F800013F8284670BD000000200040054A014665
:106F9000136900209B089B008907890F0B4313612D
:106FA000704700000020004010B5FFF771FE014956
:106FB000086010BD0000002010B514484088144C33
:106FC00080056169800D890A8902014361610F486A
:106FD00020380089E1684005400DC90AC902014313
:106FE000E160FFF7E1FF216A206AE20310432062BB
:106FF0000848C268084B1A40C2600368B0221343B5
:107000000360036A13430362216210BD200C100069
:1070100000200040401D02404FFF000010B5C04658
:10702000C04610BD10B5C046C04610BD10B5C04624
:10703000C04610BD10B500F01FF810BD10B5C04619
:10704000C04610BD10B5C046C04610BD10B5C04604
:10705000C04610BD0146012200208A40D143014AAA
:10706000516170470058004002490969C140C80792
:10707000C00F70470058004010B50020FFF7F4FF24
:10708000012812D10020FFF7E5FF0848084B4169AD
:10709000491C4161002081005A58002A01D0521E2B
:1070A0005A50401CC0B20928F5D310BD080000207A
:1070B000AC040020044A0146136800201B0C1B048A
:1070C0000B4313607047000000580040044A01461B
:1070D000536800201B0C1B040B43536070470000D7
:1070E0000058004003490020CA6801231A43CA60BF
:1070F000704700000058004003490020CA680B1583
:107100001A43CA60704700000058004010B51E497D
:107110000022CB6803242403A3430478A407A40C0F
:107120002343CB60CB684C15A3434478E407A40DFC
:107130002343CB60CB688C15A3438478E407E40D2C
:107140002343CB60CB687024A343C4786407640EE8
:107150002343CB60CB680824A3430479E407240FBE
:107160002343CB60CB680424A3434479E407640F32
:107170002343CB60CB6880790224C007A343800FF0
:107180000343CB60104610BD0058004010B500F01E
:10719000B9F8C046C04610BD30B587B005460721D6
:1071A00004A800F0B1FE01211C20FFF7ADFE002471
:1071B0006846447404AA09212046FEF7B5FD012261
:1071C00009210020FEF7FCFD01216846417404AA54
:1071D0000A210020FEF7A8FD01220A210020FEF767
:1071E000EFFD1021684600F08FFE01210020FFF71F
:1071F0008BFE40216846017044804470CC000395AA
:107200008480FFF7E3FD650502906946284600F09B
:10721000EFF80021284600F0D1F80021284600F0C0
:10722000DBF8012203210620FEF752F92246054928
:107230000020FEF7BDF9E20003490220FEF7B8F98D
:1072400007B030BDE8040020E808002010B500F0C9
:1072500087F8C046C04610BD30B587B00546072147
:1072600004A800F051FE01211C20FFF74DFE012172
:107270006846417404AA03210020FEF755FD01224F
:1072800003210020FEF79CFD00246846447404AAF4
:1072900004212046FEF748FD022204210020FEF7CB
:1072A0008FFD01210846FFF72FFE4021684601703F
:1072B00044804470CC0003958480FFF787FD0D4D1A
:1072C00002906946284600F093F80021284600F015
:1072D00075F80021284600F07FF8012203210720DD
:1072E000FEF7F6F8224604490120FEF761F907B0DF
:1072F00030BD000000010040E806002010B5C04687
:10730000C04610BD10B50124A4070021204600F09E
:107310006AF800280CD00021204600F04FF82046E3
:1073200000F0A0F80349087101460020FEF7C8F9F3
:1073300010BD000008000020F8B5002401270D460C
:107340000646BF0705E0315D384600F08EF8641C44
:10735000A4B228466D1EADB20028F4D1F8BD0000DD
:1073600010B50A4C0021204600F03DF800280CD052
:107370000021204600F022F8204600F073F804496E
:10738000487101460120FEF79BF910BD0001004045
:1073900008000020F8B50D4606460024064F05E01B
:1073A000315D384600F061F8641CA4B228466D1EB9
:1073B000ADB20028F4D1F8BD0001004010B50022A4
:1073C0001430FFF743FA002010BD10B50122001D54
:1073D000FFF73CFA002010BD10B50122001DFFF799
:1073E00035FA002010BD10B51030FEF73EFC10BD80
:1073F0007CB505461A480C0003C8019100900FD0D7
:10740000002068606088617822780843A188114371
:10741000084368602078402804D0C02802D01DE0CE
:1074200004207CBDA0886946400A8000095CE068B1
:107430008840FDF795F80646A068FDF791F83146BB
:10744000FDF750F83F210906FCF7F3FFFDF78FF831
:1074500080B2A86104212846FFF7B7FF00207CBD59
:107460004C8700000068C0B2704770B50D460446F6
:1074700003212046FFF7B7FF0028F9D02068000A53
:1074800000022843206001212046FFF7ACFF0028BE
:10749000F9D001212046FFF791FF002070BD10B503
:1074A000C046C046C046C046C046C046C046C046AC
:1074B00010BD10B5C046C04610BD000002481E21D8
:1074C0000160E12101607047800F004000B5034674
:1074D000084600F015F80549486820229043DA076D
:1074E000920E10434860002000BD0000800F004055
:1074F00002481E210160E12101607047800F0040B9
:1075000004494A68000712091201000F02434A6049
:1075100070470000800F0040034802498160034922
:10752000816070475A5A000000200040A5A5000065
:107530000FB410B503A9044B044A029800F024F8D4
:1075400010BC08BC04B0184739800000900400202B
:1075500030B47446641E2578641CAB4200D21D46CC
:10756000635D5B00E31830BC184702E008C8121FD7
:1075700008C1002AFAD170477047002001E001C11C
:10758000121F002AFBD17047FFB591B00F46054688
:10759000002606E025280AD0149A139990476D1CFE
:1075A000761C28780028F5D1304615B0F0BD0024AF
:1075B00000940121F34A029400E004436D1C2B78EF
:1075C0000846203B98401042F7D128782A280ED050
:1075D000022128780246303A092A15D8009A0A234F
:1075E0005A43303A80180C436D1C0090F1E701CFEC
:1075F0000090002805DA012040030443009840422F
:107600000090022004436D1C28782E2815D10420F8
:10761000044368786D1C2A280AD101CF6D1C0290A2
:107620000BE002990A225143303940186D1C029038
:107630002878014630390929F3D928786C2810D0E8
:1076400006DC4C281AD068280ED06A2817D104E02E
:10765000742813D07A2812D110E001204005044389
:107660000CE00121090501E0032109050C436978BB
:10767000814203D10120000524186D1C6D1C28785F
:1076800003906E281ED00CDC632831D004DC002867
:107690008AD0582811D1B2E064287BD069280CD157
:1076A00078E073282DD004DC6F2870D0702804D1C6
:1076B000A7E075286CD078286BD0149A139990475E
:1076C000761C62E06002400F022807D003280AD02F
:1076D000042838680AD006603F1D56E03868F11764
:1076E00006604160F8E738680680F5E70670F3E762
:1076F0003878694608740020487404A80390012073
:1077000003E0386803900020C0433F1D61070FD598
:10771000002101E00199491C029A0191914213DA7A
:107720008142F7DB019A0399895C0029F2D10BE0D1
:10773000002101E00199491C01918142FADB019A83
:107740000399895C0029F5D101990098139A401A90
:1077500000902146149B00F03BF9019980194618CE
:1077600007E0039803990078491C0391149A139930
:1077700090470198401E0190401CF2D12146149B75
:10778000139A009800F014F986196D1C09E741E07E
:1077900033E034E00A200021049005916002410F9B
:1077A000022905D001CFC2179446032905D007E06E
:1077B000FF1DFF08FF0003CF06E000B2C21794468A
:1077C000042902D140B2C1178C460022614694457B
:1077D00006DA0A460021404291418C462D2102E002
:1077E000210504D52B216A461176012103E0E1072A
:1077F00001D02021F7E7019154E00A200BE010208E
:1078000009E0102004900021042004430820059181
:10781000029003E008200021059104906002410FCE
:10782000022905D001CF00229446032906D006E0A4
:10783000FF1DFF08FF0003CF8C4603E080B2042940
:1078400000D1C0B20021019121072BD503997029E5
:1078500006D0049A1021059B4A401A4305D00EE039
:1078600040216A461176012108E06146014306D0B5
:1078700030216A4611760399517602210191049ACA
:107880000821059B4A401A430CD16146014301D1AE
:10789000610707D530216A461176012101910299CD
:1078A000491E02910399582904D037A103910FA9C9
:1078B0000F910DE039A1F9E76146059B049AFCF7A9
:1078C0007EFE039B8C469B5C0F9A521E0F92137098
:1078D00061460143F0D10F9807A9081A20300390A0
:1078E000600704D5012000048443029801E00120D0
:1078F00002900399884201DD401A00E000204118FF
:107900000290019809180098401A0090E00306D4EC
:107910002146149B139A009800F05AF8861900200B
:10792000049008E006A9085C149A139990470498FB
:10793000401C761C049001998842F3DBE0030CD5CF
:107940002146149B139A009800F042F8861904E02F
:10795000149A302013999047761C0299481E029081
:107960000029F5DC08E00F980F990078491C0F9169
:10797000149A13999047761C0399481E0390002986
:10798000F1DCFBE60928010030313233343536377B
:10799000383961626364656600000000303132335B
:1079A00034353637383941424344454600000000FB
:1079B000F8B5044600251E461746880404D405E0A1
:1079C00039462020B0476D1C641EF9D52846F8BD05
:1079D000FFB50446002581B01E46C80301D53027F7
:1079E00000E02027880404D505E038460399B04715
:1079F0006D1C641EF9D5284605B0F0BD00B50246E1
:107A000000F0D2FB002806D010090A2148431107D4
:107A1000090F401800BD0020C04300BD034610B54B
:107A20000020024603E09C5C201880B2521C8A426F
:107A3000F9D30149484010BDFFFF0000034610B5CF
:107A40000020024604E09C5C2018521CC0B2D2B256
:107A50008A42F8D310BD0000F0B589B00220FDF7CE
:107A6000FDFD474D04466979802604A80090012950
:107A700026D0444F386A00283FD1082C3DD3082235
:107A800007A90220FDF7A2FD0398000900010830B4
:107A90000390A87801023C480C1803984021304319
:107AA000884302070390120F07A90098FCF794FB84
:107AB000A879C10653D5000701097005081850E0E0
:107AC000002C0DD0082C1AD8224607A90220FDF759
:107AD0007DFD0398210700090001090F084317E005
:107AE00000206871012069460871024601A903203F
:107AF000FEF736FA25A0FFF71BFD09B0F0BD0822FE
:107B000007A90220FDF762FD039800090001083073
:107B10000390A87801021C480C18039840213043B8
:107B2000884302070390120F07A90098FCF754FB43
:107B3000A879C10605D5000701090120000708182A
:107B400001E00007000920430290069802AC009073
:107B50000FCCFEF771FCA879401CA871CDE7000797
:107B6000000920430290069802AC00900FCCFEF76B
:107B700063FCA879401CA8710B483862BDE700007F
:107B800030000020AC0400202100D000434D445FB1
:107B900043414E5F4F54415F444154415F46494E1B
:107BA0004953480D0A000000EE0200001FB50446CC
:107BB0000648C07C002807D0684600F021F8002C59
:107BC00002D068460FC8A0471FBD0000D0040020A7
:107BD00070B50A4DEC7C2E7CB44201D2641CEC746E
:107BE0006C7C240164190FC4687C401CC0B26874AA
:107BF000297C884201D10020687470BDD004002027
:107C000030B50A4AD17C00290FD0491ED174917C2D
:107C1000090189183AC93AC0907C401CC0B29074DE
:107C2000117C884201D10020907430BDD004002026
:107C30003EB50021019106206A46029110715171F2
:107C4000012090715620D0710A4C072101A8FFF73E
:107C5000F5FE6A46D07231090901802008310143DE
:107C600040208143029B019A20460095FEF7E4FBE9
:107C70003EBD000021281418E0B586B0002501950E
:107C80000126694602950E714D718E715620C8719C
:107C9000072101A8FFF7D2FE6946C8723F093F01DC
:107CA00080200837074340208743029901980B46FC
:107CB000024603910490009439461548FEF7BCFB38
:107CC000009439461248039B049AFEF7B5FB0195D0
:107CD00007206946029508714D718E715620C87152
:107CE000072101A8FFF7AAFE6946C872029E019DFE
:107CF00033462A46394607480094FEF79DFB334633
:107D00002A46394603480094FEF796FB06B0E0BDCC
:107D10002160141821281418E0B586B000250195BB
:107D20000126694602950E714D718E71A920C871A8
:107D3000072101A8FFF782FE6946C8723F093F018B
:107D400080200837074340208743029901980B465B
:107D5000024603910490009439462648FEF76CFBD6
:107D6000009439462348039B049AFEF765FB01956E
:107D700008206946029508714D718E71A920C8715D
:107D8000072101A8FFF75AFE6946C87202990198B7
:107D90000B46024603910490009439461648FEF7BC
:107DA0004BFB009439461448039B049AFEF744FBAE
:107DB000019506206946029508714D718E71562015
:107DC000C871072101A8FFF739FE6946C872029EF3
:107DD000019D33462A46394607480094FEF72CFB9E
:107DE00033462A46394604480094FEF725FB06B080
:107DF000E0BD000021601418212814181CB50121D1
:107E00001C20FFF781F800206A4650700121917014
:107E1000D0701071507191710F214020FDF784FFD7
:107E20006A460E214020FDF77FFF6A460D21402063
:107E3000FDF77AFF6A4605210020FDF775FF0E2148
:107E40004020FDF747FF0D214020FDF743FF0F21A4
:107E50004020FDF73FFF05210020FDF7C5FF1CBDB9
:107E600070B5214CE07800281BD021781F4DFF26EB
:107E7000F536A8680B00FFF76BFB05040B151E28F1
:107E800014000D214020FDF725FF0120AE6007E022
:107E9000002806D10D214020FDF7A6FF0220AE608C
:107EA000207070BD0028FCD10F214020FDF712FF8B
:107EB0000320AE60F4E70028F3D10F214020FDF746
:107EC00093FF0B48A8600420EAE70028E9D10F21BE
:107ED0004020FDF7FFFE0026267006A0FFF728FBD6
:107EE000E6700848E86070BD08000020AC0400207F
:107EF000B80B00006361743120706F776572206F7A
:107F00006B0D0A0030750000002805D00022491EC4
:107F100002D30270401CFAE7704710B50A21FCF743
:107F2000FFF800010843C0B210BD0000F8B50446D8
:107F30000F4D0E4868610026AE61052028610D488E
:107F4000012700683F06009008E0AE610A490098EA
:107F5000FCF7E6F8381AA9698142FCD8641EF4D20D
:107F60002869400840002861F8BD0000FFFFFF00BD
:107F700000E000E00000002010270000F8B50446F3
:107F80000F4D0E4868610026AE61052028610D483E
:107F9000012700683F06009008E0AE610A4900989A
:107FA000FCF7BEF8381AA9698142FCD8641EF4D2E5
:107FB0002869400840002861F8BD0000FFFFFF006D
:107FC00000E000E000000020A0860100F8B50446B3
:107FD0000F4D0E4868610026AE61052028610D48EE
:107FE000012700683F06009009E0AE617D21C900CD
:107FF0000098FCF795F8381AA9698142FCD8641EEC
:10800000F3D22869400840002861F8BDFFFFFF0057
:1080100000E000E0000000200CB500216A4600915D
:108020009180009905E000BF00BF00BF00BF491C60
:1080300000918142F7D30CBD10B50446C0B2FDF7E4
:108040001BFA002802D00020C04310BD204610BDFE
:1080500010B5002823D0124B0022001F196803E03E
:10806000814203D80A4649680029F9D1002A0AD07A
:108070001368841A9C4204D10068181810601046D6
:1080800002E0506000E01860002907D002680B1A77
:10809000934203D10B68D21802604968416010BD59
:1080A0009404002070B59AB0064664216846FCF737
:1080B000ACF800240120FDF76FFA3046FCF7CEF84B
:1080C00081B23046FFF766F9C820FFF77FFF012035
:1080D000FDF7C4FA642800D9642005000FD00246D9
:1080E00069460120FDF772FA6A4629460FA0FFF79C
:1080F0001FFA12A16846FCF793F800280DD1012061
:10810000FDF74AFA3046FCF7A9F881B23046FFF78E
:1081100041F9641CE4B20A2CD6D30A2C03D13146AF
:1081200007A0FFF705FA1AB070BD00007265635B27
:1081300025645D3A25730D0A00000000244F4B00B2
:10814000636D643A25732067707320636D642073D8
:10815000656E64206572726F720D0A0008B56A461A
:1081600002A1FCF7A3F8009808BD000025780000E4
:1081700070B54168094CA1610068FBF7B0FF0020B1
:10818000074B084E421E8100CD182A6089190A60EB
:10819000401C0828F7DBA069804770BD080000205C
:1081A00080E100E080E200E00107090F092904D81E
:1081B0000009092801D801207047002070470000FD
:1081C00038B51049044689680F4AD16004216846D1
:1081D000FFF79AFE002C02D0FCF70CFF38BD0121FE
:1081E0000020FEF7C7FC0020FEF7BCFE00210120A6
:1081F000FEF7C0FC00210420FEF7BCFC0020FDF7C8
:108200003DFB38BD000C10000020004001201E493D
:1082100080038860FEF7C8FB1C4F1D4E1D4D1E4C91
:108220002069002800D1276100F072F82878012821
:108230000ED1E06900280BD1FFF7FAFC1420E061B1
:108240003078401CC0B23070642801D30020287000
:1082500012480078002801D1FFF702FEFEF706FB66
:10826000FDF766FBFDF7B4FBFDF7D6FD0C48FFF705
:108270009DFCA069002803D1FFF7EEFB0520A0615B
:10828000FFF71CF9CCE7000000ED00E0B80B0000A0
:108290000400002027000020AC0400200A00002079
:1082A0001D530000F0B50B30C108C900144F002663
:1082B000144A0FE003688B420BD38B4205D95C1A3A
:1082C0004318456830C3083B00E04368136002C0B0
:1082D00004E0021D10680028ECD13046002803D1CC
:1082E0003868002801D00020F0BD064A064810601A
:1082F000064A121AD208D20044C001203860D7E7DB
:1083000098040020940400204C1E002048200020E7
:10831000F0B585B00020009001903048007800282A
:108320005AD01020FCF7E6FC012855D11020FCF7AC
:10833000D9FC0020FCF7E8FC02900120FCF7E4FCEB
:1083400003900220FCF7E0FC049025A00299FFF7BF
:10835000EFF829A00399FFF7EBF82CA00499FFF799
:10836000E7F8FCF703FD2F4C0299A0684218A260C1
:10837000E06803994618E66020690499451825616C
:108380006078401CC0B26070032825D103211046DC
:10839000FBF7C6FE0746A06003213046FBF7C0FE90
:1083A0000646E06003212846FBF7BAFE0B4900258C
:1083B00020610D7065703A0A69460A704F70320A82
:1083C0008A70CE70020A0A71487106221820FDF7E1
:1083D000C7FDA560E560256105B0F0BD2600002061
:1083E000706F7765723438765F6164635F76616C55
:1083F0003A25640D0A0000006261745F6164635F86
:1084000076616C3A25640D0A000000006261745FB9
:1084100074656D705F6164635F76616C3A25640DAD
:108420000A00000008000020F8B50027FF430025DF
:108430002748FBF727FF04468020FFF733FF009013
:1084400014E0802C01D9802000E0204686B2312043
:10845000800232462818009900F078F83A463146F2
:108460000098FDF71BFCA41B0746AD19002CE8D1B2
:108470001748001DFBF706FFB8421DD114491548E7
:108480000939FBF709FF1249012009390871104821
:1084900011210938FDF7EEFB0D490831FBF7FCFE11
:1084A0000B49032015220939800300F059F8009880
:1084B000FFF7CEFD0020F8BD0246394606A0FFF7C3
:1084C00037F80098FFF7C4FD0020C043F8BD000056
:1084D000811D00205858FAFA646174614352433395
:1084E000323A2530782C2066696C655F637263339D
:1084F000323A253078000000F8B5002501270C46F7
:1085000006467F0210E07019FDF764F9002803D0D9
:1085100007A0FFF70DF8F8BDFF35FF350235BC4267
:10852000F9D3FF3CFF3C023C002CECD1F8BD00002D
:10853000466C6173685F536563746F7245726173F3
:1085400065206973206661696C00000010B5002326
:1085500002E0C45CCC545B1C9342FAD310BD000013
:10856000F8B516460D46074600240AE0295D38197D
:10857000FDF79AF9002803D003A0FEF7D9FFF8BD54
:10858000641CB442F2D3F8BD466C6173685F5772E5
:1085900069746542797465206973206661696C0D40
:1085A0000A000000F8B500240746012608E0002C68
:1085B00006D0092C09D0601E354685403D4204D1C5
:1085C00002210020FDF786FB03E002210020FDF7D9
:1085D0000BFC0120FFF7AAFC641CE4B20A2CE6D3D2
:1085E000F8BD1CB501211C20FEF78EFC0020694659
:1085F000487001248C70C870087148718C716A468B
:108600000146FDF791FB00210846FDF763FB694633
:10861000CC704C706A4601210020FDF785FB0322D7
:1086200001210020FDF76CFB01210020FDF748FB34
:10863000012203210020FCF74BFF1CBD7CB5032267
:108640000A210020FDF750FB022208214020FDF7FF
:108650004BFB002203211046FCF73AFF00220321C6
:108660000120FCF735FF01211020FEF74DFCFCF73F
:108670006BFDFCF77BFB0020FDF76AFF0022032166
:108680001720FCF725FF0020FDF78CFF012121209A
:10869000FEF73AFC01210020FEF736FC01210846D6
:1086A000FEF732FC01211C20FEF72EFC0125684656
:1086B000457085700024C4700471447185716A46E8
:1086C00008214020FDF730FB684644706A460921C6
:1086D0004020FDF729FB6A4608210020FDF724FB16
:1086E000032208214020FDF76BFB052209214020D1
:1086F000FDF766FB08210020FDF7ECFA68464470A0
:108700006A4609210020FDF70FFB01220921002004
:10871000FDF756FB684645706A460A210020FDF7C2
:1087200003FB01220A210020FDF74AFBFFF759FF56
:108730007CBD00000080009600093D0000127A0018
:108740000024F4004086510100366E010400000050
:108750000300000020000000170000001B000000C4
:1087600050460000E022020018000000F000000067
:10877000E80300001F1C1F1E1F1E1F1F1E1F1E1FA1
:108780001F1D1F1E1F1E1F1F1E1F1E1FDDDDDDDD07
:10879000DCBBBBDDDDDDDDDDDDDDDDDD9888888892
:1087A0008888888877777777778888888555555639
:1087B0006666666666666666666888888333333290
:1087C00022222222222222222228888D24504F4C2B
:1087D0004346474D53472C302C302C300D0A0000B7
:1087E00024504F4C4346474D53472C312C300D0AF3
:1087F0000000000024504F4C4346474D53472C3057
:108800002C31332C300D0A0024504F4C4346474D39
:1088100053472C302C352C300D0A000024504F4C7F
:108820004346474D53472C302C302C310D0A000065
:1088300024504F4C4346474D53472C312C310D0AA1
:108840000000000024504F4C4346474D53472C3006
:108850002C31332C310D0A0024504F4C4346474DE8
:1088600053472C302C352C310D0A000024504F4C2E
:10887000434647534156450D0A0000009C880000BE
:10888000000000209C040000884B0000DC8C0000ED
:108890009C040020AC1D00007A75000002402033CB
:1088A000E087331C88336C8833308833CC87335867
:1088B0008833088833448833F48799424B51050044
:1088C00003000849424B0C4A020500085201394294
:1088D0004B49C4020C000453FFFF20C296300777B7
:1088E0002C610EEEBA51099919C46D078FF46A70A4
:1088F00035A563E9A395649E3288DB0EA4B8DC79C4
:108900001EE9D5E088D9D2972B4CB609BD7CB17E43
:10891000072DB8E7911DBF906410B71DF220B06A13
:108920004871B9F3DE41BE847DD4DA1AEBE4DD6D23
:1089300051B5D4F4C785D38356986C13C0A86B6423
:108940007AF962FDECC9658A4F5C0114D96C066343
:10895000633D0FFAF50D088DC8206E3B5E10694C23
:10896000E44160D5727167A2D1E4033C47D4044B63
:10897000FD850DD26BB50AA5FAA8B5356C98B24243
:10898000D6C9BBDB40F9BCACE36CD832755CDF45C3
:10899000CF0DD6DC593DD1ABAC30D9263A20C4DE60
:1089A000518051D7C81661D0BFB5F4B42123C4B3E8
:1089B000569995BACF0FA5BDB89EB802280888056C
:1089C0005FB2D90CC624E90BB1877C6F2F114C68BC
:1089D00058AB1D61C13D2D66B69041DC760671DB5A
:1089E00001BC20D2982A10D5EF8985B1711FB5B688
:1089F00006A5E4BF9F33D4B8E8A2C9077834F900CC
:108A00000F8EA8099618980EE1BB0D6A7F2D3D6D5B
:108A100008976C6491015C63E6F4516B6B62616C66
:108A20001CD83065854E0062F2ED95066C7BA50181
:108A30001BC1F4088257C40FF5C6D9B06550E9B719
:108A400012EAB8BE8B7C88B9FCDF1DDD62492DDAE5
:108A500015F37CD38C654CD4FB5861B24DCE51B527
:108A60003A7420B1BCA3E230BBD441A5DF4AD7950C
:108A7000D83D6DC4D1A4FBF4D6D36AE96943FCD9CF
:108A80006E34468867ADD0B860DA732D0444E51DB6
:108A900003335F4C0AAAC97C0DDD3C710550AA4125
:108AA000022710100BBE86200CC925B56857B38568
:108AB0006F2009D466B99FE461CE0EF9DE5E98C9D5
:108AC000D9292298D0B0B4A8D7C7173DB359810D82
:108AD000B42E3B5CBDB7AD6CBAC02083B8EDB6B365
:108AE000BF9A0CE2B6039AD2B1743947D5EAAF7790
:108AF000D29D1526DB048316DC73120B63E3843BE3
:108B000064943E6A6D0DA85A6A7A0BCF0EE49DFFFD
:108B1000099327AE20E40AB19E077D44930FF0D25B
:108B2000A3088768F2011EFEC206695D5762F7CB93
:108B300067658071366C19E7066B6E761BD4FEE0B4
:108B40002BD3895A7ADA10CC4ADD676FDFB9F9F98D
:108B5000EFBE8E43BEB717D58EB060E8A3D6D67EE3
:108B600093D1A1C4C2D83852F2DF4FF167BBD167AD
:108B700057BCA6DD06B53F4B36B248DA2B0DD84CB4
:108B80001B0AAFF64A0336607A0441C3EF60DF5533
:108B9000DF67A8EF8E6E3179BE69468CB361CB1A60
:108BA0008366BCA0D26F2536E2685295770CCC0361
:108BB000470BBBB91602222F260555BE3BBAC52866
:108BC0000BBDB2925AB42B046AB35CA7FFD7C23173
:108BD000CFD0B58B9ED92C1DAEDE5BB0C2649B2678
:108BE000F263EC9CA36A750A936D02A906099C3F87
:108BF000360EEB856707721357D0E205824ABF95A0
:108C0000147AB8E2AE2BB17B381BB60C9B8ED29295
:108C10000DBED5E5B7EFDC7C21DFDB0BD4D2D386EC
:108C200042E2D4F1F8B3DD686E83DA1FCD16BE815F
:108C30005B26B9F6E177B06F7747B718E65A088830
:108C4000706A0FFFCA3B06665C0B0111FF9E658FC1
:108C500069AE62F8D3FF6B6145CF6C1678E20AA06B
:108C6000EED20DD75483044EC2B30339612667A7F1
:108C7000F71660D04D476949DB776E3E4A6AD1AE40
:108C8000DC5AD6D9660BDF40F03BD83753AEBCA9CF
:108C9000C59EBBDE7FCFB247E9FFB5301CF2BDBD3C
:108CA0008AC2BACA3093B353A6A3B4240536D0BA45
:108CB0009306D7CD2957DE54BF67D9232E7A66B3E2
:108CC000B84A61C4021B685D942B6F2A37BE0BB48F
:0C8CD000A18E0CC31BDF055A8DEF022D96
:04000005000040C1F6
:00000001FF
