:020000040000FA
:1000000010020020D5000000EF0000004D050000A8
:1000100000000000000000000000000000000000E0
:10002000000000000000000000000000F3000000DD
:100030000000000000000000F5000000F9050000CD
:100040009D050000A5050000AD050000B9050000F4
:1000500075040000ED0700000D08000019080000FD
:100060007D05000085050000CD050000D9050000D4
:100070005905000061050000D5070000DD070000FC
:10008000E507000071050000F5070000FD0700000E
:10009000050800008D05000041080000C5050000AE
:1000A00093010000950500002D08000025080000C0
:1000B00061040000690500007D040000690400007F
:1000C0000348854600F04CF80048004785010000D1
:1000D0001002002009480A4A002100A1814200D9EB
:1000E0000244084802600848804708480047FEE785
:1000F000FEE7FEE7FEE7FEE7FEE700000000002067
:100100000000000008ED00E071070000C1000000E1
:1001100030B50B46014600202022012409E00D469F
:10012000D5409D4205D31D469540491B2546954027
:1001300040191546521E002DF1DC30BD03460B431D
:100140009B0703D009E008C9121F08C0042AFAD28D
:1001500003E00B780370401C491C521EF9D2704713
:10016000064C0125064E05E0E36807CC2B430C3C0A
:1001700098471034B442F7D3FFF7A6FF20090000D8
:100180004009000010B500F0F3FA00F0A1FB0020D8
:1001900010BD10B5C046C046C046C04610BD0000E8
:1001A000FCB500220192CA06D20E1305C9060093BF
:1001B0003C4C57019602D5038908030000F044FB2C
:1001C00010090E151B21282F343B41474F555A610A
:1001D000676E206840094001104304E020681F2139
:1001E00049018843384320605AE020681F21890272
:1001F00088433043F7E720681F21C9038843284319
:10020000F1E720681F210905884300990843EAE7C0
:1002100022681F20400682430A43226040E0606853
:1002200040094001104304E060681F2149018843F0
:100230003843606034E060681F218902884330439E
:10024000F7E760681F21C90388432843F1E7616825
:100250001F200005814300980143616020E0606831
:100260001F22520690430843E3E7A068400940017B
:10027000104304E0A0681F21490188433843A0606F
:100280000EE0A0681F21890288433043F7E7A16888
:100290001F20C00381432943A16001E00420019095
:1002A0000198FCBD402400400349096B014201D084
:1002B00001207047002070478024004001498000E1
:1002C000085870475024004070B5040023D0134DE7
:1002D00001206860022000F0D3FA6078A18862886B
:1002E0000843E188114308432189084369680843AA
:1002F0006860A868291588432178C907490D084313
:10030000A860A86804218843A17AC907490F084357
:10031000A860002070BD042070BD000000240040D3
:10032000044A0129916B02D08143916370470143D4
:10033000FBE7000080240040002802D0017810294B
:1003400001D90420704713498A68CB139A438A6005
:100350008A68CB149A434378DB071B0D1A438A60E3
:100360008A688B159A438378DB07DB0D1A438A6012
:1003700000780F2100050905401801020548090A07
:10038000403082680F231B059A431143816000208F
:1003900070470000002400400EB50121102000F03D
:1003A000CDF900F051F801206A46107000200121BB
:1003B000507049035180032149029180D0801081FF
:1003C00090726846FFF780FF0EBD08B500206946B1
:1003D00088704870032008706846FFF7ADFF002161
:1003E0000846FFF7DDFE02210120FFF7D9FE0521B7
:1003F0000220FFF7D5FE01218805FFF791FF08BD18
:100400001CB501211C2000F099F90021084600F0DC
:1004100093F80221002000F08FF80521002000F061
:100420008BF801206A46507090700021D1701171D4
:10043000517190710C21802000F032F803220C21C0
:10044000802000F021F81CBD10B50448016801228D
:1004500011430160022000F013FA10BD0024004097
:1004600010B5C046C04610BD10B5C046C046C04617
:10047000C04610BD10B5C046C04610BD10B5C04640
:10048000C046C046C04610BD92001018034A10B5C1
:100490008018012200F0A6F8002010BD300D0240A7
:1004A00070B50446214815460E460022201800F07B
:1004B00099F8B1001E4A09190020891808601B48E4
:1004C0002A78001F3146201800F08CF817486A7807
:1004D0000C383146201800F085F81448AA781030FE
:1004E0003146201800F07EF81048EA781430314682
:1004F000201800F077F80D482A7918303146201876
:1005000000F070F809486A7920303146201800F070
:1005100069F8084988680122D2039043AA79D20772
:10052000120C10438860002070BD00000C0D0240CA
:10053000000C0240000F0240034B10B50122C0180E
:1005400000F050F8002010BD0C0D024008B500204E
:1005500000900028FDD008BD10B5C046C04610BDB3
:1005600010B5C046C04610BD10B5C046C04610BD4F
:1005700010B5C046C046C046C04610BD10B5C04606
:10058000C04610BD10B5C046C04610BD10B5C0462F
:10059000C04610BD10B5C046C04610BD10B5C0461F
:1005A000C04610BD10B5C046C04610BD10B5C0460F
:1005B000C046C046C04610BD10B5C046C046C04685
:1005C000C04610BD10B5C046C04610BD10B5C046EF
:1005D000C046C046C04610BD10B5C046C046C04665
:1005E000C04610BD01238B400168012A02D0994307
:1005F000016070471943FBE710B5C046C04610BD07
:1006000010B58AB00024142248496846FFF796FDC9
:100610004648001F0068089000200590069007904B
:10062000434801886A4691834188518381881183B8
:10063000C088D0823E48203000883E4990820868B9
:100640000006420F3C48130000F0FEF805042A2C77
:10065000383B6800C8686A464005928B400D90425E
:1006600001D1049C5AE0C8686A464005528B400D8F
:10067000904201D1039C51E0C8686A464005128B44
:10068000400D904201D1029C48E0C8686A4640058E
:10069000D28A400D904201D1019C3FE0009C3DE098
:1006A00004463BE06846808A4A699205920D904272
:1006B000684601D1448C31E0048C2FE00124E4032E
:1006C0002CE0CA6BD243920724D16846808BCA685B
:1006D0005205520D904201D104981BE06846408BB0
:1006E000CA685205520D904201D1039812E0684643
:1006F000008BCA685205520D904201D1029809E060
:100700006846C08ACA685205520D904201D10198CC
:1007100000E00098CA6BD205140F444308680AB081
:100720004005410F2046C84010BD00000C090000E4
:10073000000C10000020004000127A0010B50A469C
:10074000810603D5DF210140044802E00146034849
:10075000001FFFF747FF002010BD000024200040CD
:1007600010B5FFF74DFF0149086010BD00000020E3
:1007700010B514484088144C80056169800D890AC1
:100780008902014361610F4820380089E168400512
:10079000400DC90AC9020143E160FFF7E1FF216A88
:1007A000206AE203104320620848C268084B1A40DE
:1007B000C2600368B02213430360036A13430362F9
:1007C000216210BD200C100000200040401D02409E
:1007D0004FFF000010B5C046C04610BD10B5C04662
:1007E000C04610BD10B5C046C04610BD10B5C046CD
:1007F000C04610BD10B5C046C04610BD10B5C046BD
:10080000C04610BD10B5C046C04610BD10B5C046AC
:10081000C046C046C04610BD10B5C046C046C04622
:10082000C04610BD10B5C046C04610BD10B5C0468C
:10083000C046C046C046C046C046C046C04610BDC1
:1008400010B5C046C04610BD30B47446641E25784D
:10085000641CAB4200D21D46635D5B00E31830BCF4
:10086000184702E008C8121F08C1002AFAD17047D1
:100870007047002001E001C1121F002AFBD1704720
:10088000F8B504460F4D0E4868610026AE6105209C
:1008900028610D48012700683F06009008E0AE611E
:1008A0000A490098FFF734FC381AA9698142FCD83C
:1008B000641EF4D22869400840002861F8BD000099
:1008C000FFFFFF0000E000E000000020A086010024
:1008D000FFF796FDFFF760FDFFF777FD094C10204D
:1008E000FFF7E2FC0028FAD00020FFF7E7FC2060C9
:1008F0000120FFF7E3FC60600220FFF7DFFCA0604F
:10090000EDE70000040000200080009600093D0093
:1009100000127A000024F4004086510100366E0176
:1009200040090000000000201000000062080000E4
:1009300050090000100000200002000072080000B2
:100940002000000000000000000000000000000087
:04000005000000C136
:00000001FF
