:020000040000FA
:1000000008030020D5000000EF0000004D090000AB
:1000100000000000000000000000000000000000E0
:10002000000000000000000000000000F3000000DD
:100030000000000000000000F5000000F9090000C9
:100040009D090000A5090000AD090000B9090000E4
:1000500059070000B90F0000D90F0000E50F00009C
:100060007D09000085090000CD090000D9090000C4
:100070005909000061090000A10F0000A90F00004C
:10008000B10F000071090000C10F0000C90F00008E
:10009000D10F00008D0900000D100000C5090000FF
:1000A000D306000095090000F90F0000F10F0000D1
:1000B0004507000069090000010900004D07000024
:1000C0000348854600F026FA00480047C5060000B0
:1000D0000803002009480A4A002100A1814200D9F2
:1000E0000244084802600848804708480047FEE785
:1000F000FEE7FEE7FEE7FEE7FEE700000000002067
:100100000000000008ED00E03D0F0000C10000000D
:1001100030B50B46014600202022012409E00D469F
:10012000D5409D4205D31D469540491B2546954027
:1001300040191546521E002DF1DC30BD03460B431D
:100140009B0703D009E008C9121F08C0042AFAD28D
:1001500003E00B780370401C491C521EF9D2704713
:10016000F0B507460846584087B0C00F04904800D5
:100170000E46590040084908BC1A884105D2384645
:1001800031461E4617460B460246580040081043AB
:100190004CD0300D039040055900400D490D05909D
:1001A000401A0290402872DA18030121000B090559
:1001B0000843019004980092002805D0019952420A
:1001C0000020884100920190029840210A1A01996A
:1001D000009800F00BF905460C466B4607CB00F083
:1001E00026F9C0197141039A0E0D0023D717564006
:1001F0001A467A40164344D0049A002A2DD0029A17
:10020000012A039A15DC1205C01A91410126360510
:10021000001C7141D20F059ED207009301920296F5
:100220002A46234600F023F907B0F0BD3846314690
:10023000FAE71605224A0F46B218C01AB741012143
:100240000905001C4F4100187F41114618187941DB
:10025000E20F10436D19644113E0E2076D08154386
:100260006408C2071443039A01261205C01A91417B
:100270003605001C7141CE07400830434908C018BC
:1002800051412A46234600F0E5F8CDE7FFE7049800
:1002900001224000C117121A00238B4104983146F5
:1002A000C417381AA141EEE730B40124E4076340D3
:1002B00030BC55E730B40124E407614030BC4FE75F
:1002C0000000E0FFF0B51FB488B00B990998002436
:1002D00048400999C00F490049080991C0070B9986
:1002E0000090490049080B9109990898A6460843CF
:1002F0001CD00B990A98084318D009980124400093
:10030000420D4800410D099824050003000B2043CD
:1003100009900B980003000B20430B9050181C49C8
:100320004018002201901446104605E000200146C6
:100330000DB0F0BD032801DA034600E003239C461C
:10034000C11A0AAE0AE05F0008ADED5B4F00F75B33
:100350007D430027AA187C41491C5B1E6145F2DDE4
:10036000410004AB5A522104120C0A43240C401CD5
:100370000828DFDB019802900099704601910090F7
:10038000059B049A0799069800F071F8D0E70000E1
:100390000DFCFFFF0EB505490291002100910A46B0
:1003A0000B46019100F063F803B000BD3304000078
:1003B0004A0009030123090B1B051943094B10B51A
:1003C000520D9A4201DA002010BD064B34339A4296
:1003D00003DC9A1A00F01AF810BD0349511888403E
:1003E00010BD0000FF030000CDFBFFFF10B5202A69
:1003F00004DB0146203A9140002010BD91402023AB
:100400009C1A0346E3401943904010BD10B5202AC2
:1004100004DB0846203AD040002110BD0B46D340F3
:10042000D0402024A21A91400843194610BD10B5AF
:10043000202A06DBCB170846203A1041C1170B4390
:1004400006E00B461341D0402024A21A91400843F5
:10045000194610BD10B5002B08DA0024401C61417C
:1004600092185B411A4301D14008400010BDF0B51D
:100470001FB482B005460C0003D0084600F0FEFD14
:1004800002E000F0FBFD20300246009021462846A5
:10049000FFF7ACFF049B059A04460F46184311432F
:1004A000084314D0184610431BD0009840210A1A64
:1004B00018460599FFF7AAFF05460E46009A0599CA
:1004C0000498FFF793FF084305D0012004E020467D
:1004D000394607B0F0BD0020C11705430E432C4339
:1004E000374300990E986305401A7905E40A002203
:1004F0000C43FD0A0A3002D500200146E9E7010558
:10050000101969410C9C0D9D00196941FFF7A2FF6C
:10051000DFE70000064C0125064E05E0E36807CC46
:100520002B430C3C98471034B442F7D3FFF7CCFD73
:10053000601A0000801A0000F0B50C465C4085B0DF
:10054000E40FE40703944C00002664085900944625
:10055000490802460296224321D062460A431ED031
:100560006200570D4A000E032303550D0124024675
:100570002C492405781B1B0B360B401823432643BC
:10058000614600901C46501AB44103D30098401CA9
:10059000009002E0921800985B41002803DA0020E6
:1005A000014605B0F0BD0020012109050746864639
:1005B00011E064461D46141BB54106D36546521B27
:1005C000B341744607430C43A646CD07400849088B
:1005D000284392185B4105460D43EAD11046184363
:1005E00013D06046194650407140084306D060461B
:1005F000101AB34106D20122002306E00022012393
:10060000DB0702E00122D243531000987446010533
:10061000381C6141029C039D00196941FFF71AFFD4
:10062000BFE70000FD03000070B54B005B0803430B
:100630000BD04B005C0D002633466542B341D41706
:10064000AD1AA34102DB0020014670BD120530182F
:10065000514170BD0EB5C217C10F5040CA074018B6
:100660000021054B0293019200910A460B46FFF7C9
:10067000FEFE03B000BD00003304000070B5CD0FD6
:100680004A0009030123090B1B0519430B4BED0716
:100690000024520D9A4201DA002070BD074B34331A
:1006A0009A4203DC9A1AFFF7B1FE02E0044951189E
:1006B00088402C43F1D0404270BD0000FF03000091
:1006C000CDFBFFFF10B500F039FC01F095F80020DC
:1006D00010BD10B5C046C046C046C04610BD0000A3
:1006E00000B58DB001211D2000F08AFB0020012102
:1006F0006B46009099808022DA808A0602920A0670
:1007000004928A050592CA05079203900B4A089243
:100710000B4A09920690502208AB1A741972694666
:100720000B9000F0B1F800F09BF8002000F0A0F86A
:10073000002000F089F80DB000BD00000800002086
:100740000825004010B5C046C04610BD10B5C046D3
:10075000C046C046C04610BD10B5C046C04610BD1C
:1007600010B502460021024800F03CF910BD00001F
:100770000025004010B502460C21024800F032F975
:1007800010BD00000025004028490A6802239A4352
:100790000378DB079B0F1A430A600A6804239A4315
:1007A0004378DB075B0F1A430A600A6838239A43D1
:1007B00083785B079B0E1A430A600A68C0239A433A
:1007C000C3789B071B0E1A430A600A680F231B029B
:1007D0009A4303791B071B0D1A430A600A68032317
:1007E0009B039A4343799B071B0C1A430A60C27907
:1007F000012A08D0002A0FD00A69807A120A120250
:1008000002430A617047CA680089094B00051A4013
:10081000000C0243CA6070478A680089120B1203F9
:100820000005000D02438A6070470000002500406B
:100830000F00FFFF10B501220021024800F0D2F89E
:1008400010BD0000042500408100044808184169DB
:1008500007221204914341617047000000100240DA
:1008600002480168C2041143016070470010024051
:1008700081000448081801690122D207114301616F
:10088000704700000010024070B5002932D01A4BAA
:1008900000228000C01842610C688A680D69144308
:1008A000CA682A4314434A6914438A691443CA69CB
:1008B00014430A462032157A2C43446104690F4DD3
:1008C0002C4004610469CD8801266D1E2C438D885F
:1008D00036042D04127CAD1B920515432C43046194
:1008E0001A68CC6A22431A600A6A8261496AC16145
:1008F000002070BD042070BD00100240000030E0F8
:1009000010B5C046C046C046C04610BD10B5084927
:100910000246064B0020CB62064BCB620B6A0C24CE
:100920009207A343120F13430B6210BD5A5A0000E3
:1009300000000240A5A50000034B10B50122C0181D
:1009400000F050F8002010BD0C0D024008B500204A
:1009500000900028FDD008BD10B5C046C04610BDAF
:1009600010B5C046C04610BD10B5C046C04610BD4B
:1009700010B5C046C046C046C04610BD10B5C04602
:10098000C04610BD10B5C046C04610BD10B5C0462B
:10099000C04610BD10B5C046C04610BD10B5C0461B
:1009A000C04610BD10B5C046C04610BD10B5C0460B
:1009B000C046C046C04610BD10B5C046C046C04681
:1009C000C04610BD10B5C046C04610BD10B5C046EB
:1009D000C046C046C04610BD10B5C046C046C04661
:1009E000C04610BD01238B400168012A02D0994303
:1009F000016070471943FBE710B5C046C04610BD03
:100A000070B5044600780025030000F067FB051C64
:100A1000040B0F171B00032000F064FA032000F002
:100A200031FA10E0032000F01DFA0CE00321084623
:100A300000F066FA032000F033FA04E0072000F02B
:100A4000CFF900E004252078012100F00BF8207890
:100A500000F034FA607800F031F9A07800F040F945
:100A6000284670BDF3B581B00C46002600F0FAFAB6
:100A7000002C00D001243E4D2F6A0198E903032881
:100A80003AD006DC00280CD0012815D0022804D169
:100A900026E0042845D048285CD004262F62304642
:100AA000FEBD28684008400020432860002CF5D097
:100AB000E8680005FAD5F1E7286A084328622D4A5C
:100AC000D06803210843D060286802218843610070
:100AD00008432860002CE1D028694006FAD5DDE7FC
:100AE000286804218843A10008432860002CD5D041
:100AF0006869C004FAD5D1E7286A084328621E4A0B
:100B0000D068032189030843D060286808218843FE
:100B1000E10008432860002CC0D0A8694006FAD53F
:100B2000BCE7286A0121090408432862134A1068B7
:100B3000012108431060142000F036FE28681021BF
:100B40008843210108432860002CA7D0E86B4003AC
:100B5000FAD5A3E706484030816982149143220305
:100B600011438161002C99D081690905FAD595E777
:100B700000200040401D0240800D02400024004043
:100B800010B58AB00024142248496846FFF7D6FA07
:100B90004648001F006808900020059006900790C6
:100BA000434801886A469183418851838188118333
:100BB000C088D0823E48203000883E499082086834
:100BC0000006420F3C48130000F088FA05042A2C66
:100BD000383B6800C8686A464005928B400D9042D9
:100BE00001D1049C5AE0C8686A464005528B400D0A
:100BF000904201D1039C51E0C8686A464005128BBF
:100C0000400D904201D1029C48E0C8686A46400508
:100C1000D28A400D904201D1019C3FE0009C3DE012
:100C200004463BE06846808A4A699205920D9042EC
:100C3000684601D1448C31E0048C2FE00124E403A8
:100C40002CE0CA6BD243920724D16846808BCA68D5
:100C50005205520D904201D104981BE06846408B2A
:100C6000CA685205520D904201D1039812E06846BD
:100C7000008BCA685205520D904201D1029809E0DA
:100C80006846C08ACA685205520D904201D1019847
:100C900000E00098CA6BD205140F444308680AB0FC
:100CA0004005410F2046C84010BD00002C1900002F
:100CB000000C10000020004000127A0010B504461D
:100CC00000F0D0F9054A116807200002814360074F
:100CD000400D01431160002010BD000000200040C5
:100CE00010B5044600F0BEF9054A11680320C002A1
:100CF0008143A007C00C01431160002010BD00001B
:100D0000002000401EB5002231490092019202925B
:100D10000B886C4623814B88E3808B88A380C9882D
:100D2000618083782B49032B07D0C3782A4C634317
:100D30002A4CA34228D906201EBD2389CC6864050D
:100D4000640DA34202D1C378022BF4D86B46DB8832
:100D5000CC686405640DA34202D1C378022BEAD8A3
:100D60006B469B88CC686405640DA34202D1C378AE
:100D7000032BE0D86B465B88CC686405640DA34206
:100D800002D1C378062BD6D8CB6B03246403A343CC
:100D90000478A407640C2343CB63CB6B1C24A343CC
:100DA00044786407E40E2343CB63CB6BFF24E13428
:100DB000A343C4782407E40D2343CB63CB6B807833
:100DC0009B089B008007800F0343CB6310461EBD2A
:100DD000000C10000020004000127A00006CDC02C1
:100DE00010B5064A0146D36B00200724E4034907E7
:100DF000A343890B0B43D36310BD000000200040C8
:100E000010B50A46810603D5DF210140044802E0FF
:100E100001460348001FFFF7E5FD002010BD00005C
:100E2000242000400D4948280BD04000401800887D
:100E30000B494005CA68400DD20AD2020243CA607B
:100E400009E0488906498005800D40318A69920A87
:100E5000920202438A61002070470000000C1000DB
:100E60000020004010B5064A0146536900200324C3
:100E7000A4028907A343090D0B43536110BD000071
:100E80000020004010B5054A0146136900203024B7
:100E90008907A343890E0B43136110BD0020004056
:100EA00010B5054A01469369002030248907A34301
:100EB000890E0B43936110BD0020004070B50446BD
:100EC000002500F0CFF806480168E0229143620750
:100ED000120E1143016000F029F8284670BD000091
:100EE00000200040054A0146136900209B089B0032
:100EF0008907890F0B4313617047000000200040F1
:100F000030B5094A0346946900200C259B07AC4381
:100F10001B0F1C439461936989079B089B00890FF1
:100F20000B43936130BD00000020004010B5FFF777
:100F300027FE0149086010BD0000002010B51448CC
:100F40004088144C80056169800D890A890201433B
:100F500061610F4820380089E1684005400DC90AE9
:100F6000C9020143E160FFF7E1FF216A206AE20361
:100F7000104320620848C268084B1A40C2600368E8
:100F8000B02213430360036A13430362216210BD5E
:100F9000200C100000200040401D02404FFF0000C8
:100FA00010B5C046C04610BD10B5C046C04610BD05
:100FB00010B5C046C04610BD10B5C046C04610BDF5
:100FC00010B5C046C04610BD10B5C046C04610BDE5
:100FD00010B5C046C04610BD10B5C046C046C0469C
:100FE000C04610BD10B5C046C046C046C04610BD84
:100FF00010B5C046C04610BD10B5C046C046C0467C
:10100000C046C046C046C046C04610BD10B5C0462A
:10101000C04610BDF8B50F4D0F4E074600242046C0
:10102000FFF7B8F92A463346FFF74CF900F02EFCDB
:1010300000220A4BFFF746F90022094BFFF790F810
:10104000FFF7B6F96100641CE4B27852802CE6D355
:10105000F8BD0000112D4454FB21A93F00FC9F4026
:101060000000A04003480249816003498160704745
:101070005A5A000000200040A5A500002021020CC3
:1010800001D010211046020A01D010460839020989
:1010900001D01046091F820801D01046891E42085F
:1010A00001D0881E7047081A7047F0B4040C8BB248
:1010B000264682B25E430D0C1046370C5843360468
:1010C00080190021794116466E43370C3604801989
:1010D000794126466E438919F0BC704730B4744696
:1010E000641E2578641CAB4200D21D46635D5B0024
:1010F000E31830BC184700004900CA020243100040
:1011000000D004204A0D01D001221043044A490DA9
:10111000914201D102210843012800D105207047E6
:10112000FF070000F7B596B014460021A160D1601A
:10113000179909914D00CD496D088D4205DC17992D
:1011400061602060002019B0F0BDC949C94E8D42D0
:1011500038DAD32709997F050029C74A17993346FA
:1011600017DDFFF7A1F8B54206D0C44AC44BFFF71C
:101170009BF86160206009E03A46C14BFFF794F8A4
:10118000C04AC14BFFF790F861602060012019B0A0
:10119000F0BDFEF7E5FFB54206D0B84AB84BFEF702
:1011A000DFFF6160206009E03A46B54BFEF7D8FFEB
:1011B000B44AB54BFEF7D4FF616020600020C04305
:1011C00019B0F0BDB1498D42179977DC4900490843
:1011D0000746AF4AAF4B0491FFF774F80022AE4BBD
:1011E000FEF7BEFFFFF74AFA0A90FFF733FAA24A6A
:1011F000334603910290FFF765F83A46049BFFF7E8
:1012000059F806460F469D4A9D4B03990298FFF7F1
:1012100059F82A0D01250C9232463B46FFF74AF851
:1012200061602060032D39D04800410D0C98401AB0
:10123000690169181139814230DA984928017944E5
:1012400008960D900818049743680268039902985D
:10125000FFF738F802460B46079106900499089864
:10126000FFF722F806460F46049B089AFFF722F87C
:10127000079B069AFFF718F805918949049079446D
:101280000D984018C368826803990298FFF71AF80E
:10129000059B049AFFF708F86D1CBDE70998002824
:1012A00009DA01226068D207504060600A9819B0DC
:1012B0004042F0BD02E00A9819B0F0BD09030122D6
:1012C000090B12050E908918179810914000754966
:1012D000400D40184111C006C00E0D911390202101
:1012E000081A1490002006900525079013980028EE
:1012F0000D980CD0401982006B4878448758139998
:101300008F40101841681498C1400F4304E0401901
:10131000810066487844475810993846FFF7C5FE63
:1013200006460A9138460E99FFF7BFFE8A190A9BB6
:101330008A4201D2012100E00021C9188C46AF0089
:10134000694679188B684E68C318834201D2012020
:1013500000E0002096193618002802D0964202D9E3
:1013600003E0964201D2012000E0002062461218FC
:101370004E6068468B60C25128466D1E0028B5DC61
:101380000121029849074018800F1390029805998F
:101390008000039E049D0B91FFF75CF907463046E1
:1013A0000891FEF7F7FF1D22D243FFF73DF9109099
:1013B0000F912846FEF7EEFF3D22D243FFF734F9A6
:1013C0000E900D910B98FEF7E5FF5D22D243FFF7DB
:1013D0002BF90B910C900D9B0E9AFEF7C1FE0F9B03
:1013E000109AFEF7BDFE3A46089BFEF7B9FE0025AF
:1013F0000E463A462846089BFEF756FF0F9B109A6A
:10140000FEF752FF0D9B0E9AFEF74EFF0B9B0C9AB8
:10141000FEF750FF264A274BFEF754FF07460D9173
:10142000254A264B31462846FEF74CFF3A460D9B8F
:10143000FEF796FE0F4615220C9092061D4B314684
:101440002846FEF73FFF3B460C9AFEF789FE179AA7
:10145000002A05DA139A524213920122D207514010
:1014600061602060139819B0F0BD0000FB21E93FD6
:101470007CD90240FB21F93F000040543163621ADD
:1014800061B4D03D7370032E8A19A33BFB2139410F
:1014900083C8C96D305FE43F0000E03F2E070000C5
:1014A000EE0600000BFCFFFFA2060000880600000D
:1014B000182D4454FB21F93D3326A611460B113C4F
:1014C000F0B51FB44E00F9207608800584B00F46B1
:1014D000864204DA0498FFF7D1F8002838D0049A3D
:1014E0003B4610461946FEF7EDFE044602462C48E0
:1014F0000D460B460621784400F05CF822462B4648
:10150000FEF7E0FE019100903946079B069A049889
:10151000FEF7D8FE0746029120462946019B009A15
:10152000FEF7D0FE3A46029BFEF7BEFE07460022BB
:101530000091D24320462946FFF776F8194A964291
:101540000ADA3A46009BFEF7AFFE0022164B23E074
:101550000020154909B0F0BD144A964202DD00246E
:10156000134D03E001225205B51A002422462B46F2
:10157000FEF79AFE0646019122462B4600200A49B4
:10158000FEF792FE0D4604463A463046009B01990E
:10159000FEF78AFE22462B46FEF78CFE09B0F0BD10
:1015A000460400003333D33F0000F03F0000E93F22
:1015B0000000D23FF8B504464F1EC8000838211875
:1015C00015461E46086849683A4606239A4310D0D5
:1015D0002A463346FEF776FE3A46D200083AA3186A
:1015E0001A687F1E5B68FEF7BBFD06223B469343ED
:1015F000EED1022F23D0042F11D0062F2FD12A464F
:101600003346FEF75FFEE36AA26AFEF7A9FD2A46AB
:101610003346FEF757FE636A226AFEF7A1FD2A46AB
:101620003346FEF74FFEE369A269FEF799FD2A46AD
:101630003346FEF747FE63692269FEF791FD2A46AD
:101640003346FEF73FFEE368A268FEF789FD2A46AF
:101650003346FEF737FE63682268FEF781FDF8BD6A
:10166000F0B51FB4054648000C46F921400889052D
:1016700086B088420BDA28462146FFF73DFD042854
:1016800001D100F071F8284621460BB0F0BD2A4682
:10169000234610461946FEF715FE06460F462A4613
:1016A0002346FEF70FFE00902548019132463B4647
:1016B00005217844FFF77EFF0290109803910028DF
:1016C00029D0204A204B01990098FEF7FBFD049099
:1016D000059168460FC8FEF7F5FD002201910090C4
:1016E000D24309990898FEF79FFF019B009AFEF7E5
:1016F000DBFD32463B46FEF7E5FD099B089AFEF707
:10170000D3FD059B049AFEF7CFFD2A462346FEF73C
:10171000D1FD0BB0F0BD0B4630463946029AFEF7BC
:10172000D1FD084A084BFEF71BFD019B009AFEF70E
:10173000C9FD2A462346FEF713FD0BB0F0BD00009D
:1017400082030000495555555555C5BF10B50122B6
:10175000FEF76AFF10BD002210B513461046114671
:10176000FEF7EAFE10BD0000034A10B50020110785
:10177000FEF75AFF10BD000001FDFFFF02E008C8A0
:10178000121F08C1002AFAD170477047002001E0FB
:1017900001C1121F002AFBD17047000001490860F7
:1017A0007047000004000020F8B504460F4D0E48B5
:1017B00068610026AE61052028610D480127006898
:1017C0003F06009008E0AE610A490098FEF7A0FCD1
:1017D000381AA9698142FCD8641EF4D228694008ED
:1017E00040002861F8BD0000FFFFFF0000E000E0BE
:1017F00000000020A08601000EB501211F20FFF788
:10180000FFFA0120FFF782F80420FFF70BFB00240A
:1018100069460C7004264E7003258D700C20C8702C
:101820006846FFF76FFA69460E714C718C7101A81A
:10183000FFF7E6F801211C20FFF7E2FA042100205F
:10184000FFF77AF801212320FFF7DAFA0120694631
:10185000087048704D710B20087106208870CC719B
:101860006846FEF791FF0120FEF77AFF0120FEF7A0
:1018700081FF0548FFF7CEFBFEF732FFFEF7DAFFE8
:101880000C20FFF791FFF9E70800002000B54A009F
:10189000234B520887B09A4203DC00221346009281
:1018A00029E0204B9A4208D1002808D10120FFF7F7
:1018B00075FFFFF750FF07B000BD9A4203DBFFF74B
:1018C00045FF07B000BD02AAFFF72CFC8107890F76
:1018D000012000290CD0012911D0022915D002A81D
:1018E0000FC8FFF7EDFD0122D207514007B000BD40
:1018F000009002A80FC8FFF7B3FE07B000BD02A812
:101900000FC8FFF7DDFD07B000BD009002A80FC8AB
:10191000FFF7A6FE0122D207514007B000BD00002C
:10192000FB21E93F0000F07F0080009600093D00A8
:1019300000127A000024F4004086510100366E0146
:101940004C5555555555A53F7751C1166CC156BFDD
:101950009015CB19A001FA3EAD529C804F7E92BEED
:10196000C4B1B4BD9EEE213ED43888BEE9FAA8BD0C
:1019700000004054FB21F93F3163621A61B4D03D4D
:101980000000601A61B4D03D7370032E8A19A33B26
:101990000000002E8A19A33BC14920259A837B3978
:1019A00000000000000000006E83F9A22915444EDB
:1019B000D15727FCC0DD34F5999562DB4190433C5B
:1019C000AB6351FE61C5BBDE3A6E24B7E0D24D4237
:1019D000EA2E49061C92D1091CEB1DFE3EA729B137
:1019E000F53582E88444BB2E26709CE9417E5FB4C5
:1019F00039D69139F43953838B5F849C3B28F9BDE8
:101A0000FF97F81F0F9805DE8B112FEF1F6D0A5AF5
:101A1000CF7E366DB709CB27663F464F2DEA5F9ED6
:101A2000C7BA27757BF1E5EBF739073DEA92528A91
:101A3000B15FFB6B085D8D1FA6F810111111813F7E
:101A4000D561C119A0012ABF7DFEB157E31DC73E74
:101A5000EB9C2B8AE6E55ABE7CD5CF5A3AD9E53DB8
:101A6000801A000000000020080000007C17000021
:101A7000881A000008000020000300008C170000F6
:081A800020000000000000003E
:04000005000000C136
:00000001FF
