:020000040000FA
:1000000008030020D5000000EF000000BD03000041
:1000100000000000000000000000000000000000E0
:10002000000000000000000000000000F3000000DD
:100030000000000000000000F5000000690400005E
:100040000D040000150400001D0400002904000038
:10005000010200005D0600007D0600008906000028
:10006000ED030000F50300003D040000490400001A
:10007000C9030000D1030000450600004D06000042
:1000800055060000E1030000650600006D06000053
:1000900075060000FD030000B106000035040000F5
:1000A00067010000050400009D06000095060000A1
:1000B000ED010000D9030000B1030000F5010000CC
:1000C0000348854600F036F8004800475901000013
:1000D0000803002009480A4A002100A1814200D9F2
:1000E0000244084802600848804708480047FEE785
:1000F000FEE7FEE7FEE7FEE7FEE700000000002067
:100100000000000008ED00E0E1050000C100000073
:1001100003460B439B0703D009E008C9121F08C020
:10012000042AFAD203E00B780370401C491C521ECB
:10013000F9D27047064C0125064E05E0E36807CC6E
:100140002B430C3C98471034B442F7D3FFF7BCFF65
:10015000280700004807000010B500F041FA00F041
:10016000D0FA002010BD10B5C046C046C046C046FB
:1001700010BD000000B58DB001211D2000F016FA61
:100180003421684600F0B4FA8021164800F0B0FA35
:10019000002001216A46009091802021D1808905AC
:1001A000029103901049089104900E49099106901C
:1001B0000590079008AA107410720B9069460420ED
:1001C00000F058F8042000F03FF801220321042039
:1001D00000F0BAF800F024F8042000F029F80DB07F
:1001E00000BD0000840000200400002010B5C046BF
:1001F000C04610BD10B5C046C046C046C04610BD82
:1002000010B500F07FF810BD81000448081841695E
:100210000722120491434161704700000010024020
:1002200002480168C2041143016070470010024097
:1002300081000448081801690122D20711430161B5
:10024000704700000010024081000448081841690E
:100250000122D204114341617047000000100240A6
:1002600003498000401840694003400F7047000078
:100270000010024070B5002932D01A4B00228000D5
:10028000C01842610C688A680D691443CA682A4321
:1002900014434A6914438A691443CA6914430A46D9
:1002A0002032157A2C43446104690F4D2C400461BF
:1002B0000469CD8801266D1E2C438D8836042D04DB
:1002C000127CAD1B920515432C4304611A68CC6A5D
:1002D00022431A600A6A8261496AC161002070BDC6
:1002E000042070BD00100240000030E0810004488E
:1002F000081801690122520711430161704700008B
:100300000010024070B50420FFF7AAFF052812D1A3
:100310000B490C48202300220C780578AC4202D00F
:100320000020C04305E0401C491C521C9A42F3D3F4
:100330000020401C03D00420FFF766FF70BDFEE7DD
:10034000840000200400002030B5C406E40E012320
:10035000A340134C23608407E50EFF24AC408907BB
:10036000090EA94000280BDA0007000F083885089D
:100370000C48AD002818C569A5430D43C56107E0C9
:1003800085080948AD0028180568A5430D43056098
:10039000012A02D00548036030BD04488038FAE7DE
:1003A00080E200E000ED00E000E400E080E100E039
:1003B00010B5C046C046C046C04610BD08B50020B6
:1003C00000900028FDD008BD10B5C046C04610BD45
:1003D00010B5C046C04610BD10B5C046C04610BDE1
:1003E00010B5C046C046C046C04610BD10B5C04698
:1003F000C04610BD10B5C046C04610BD10B5C046C1
:10040000C04610BD10B5C046C04610BD10B5C046B0
:10041000C04610BD10B5C046C04610BD10B5C046A0
:10042000C046C046C04610BD10B5C046C046C04616
:10043000C04610BD10B5C046C04610BD10B5C04680
:10044000C046C046C04610BD10B5C046C046C046F6
:10045000C04610BD01238B400168012A02D0994398
:10046000016070471943FBE710B5C046C04610BD98
:1004700010B58AB00024142248496846FFF748FEA8
:100480004648001F006808900020059006900790DD
:10049000434801886A46918341885183818811834A
:1004A000C088D0823E48203000883E49908208684B
:1004B0000006420F3C48130000F0FEF805042A2C09
:1004C000383B6800C8686A464005928B400D9042F0
:1004D00001D1049C5AE0C8686A464005528B400D21
:1004E000904201D1039C51E0C8686A464005128BD6
:1004F000400D904201D1029C48E0C8686A46400520
:10050000D28A400D904201D1019C3FE0009C3DE029
:1005100004463BE06846808A4A699205920D904203
:10052000684601D1448C31E0048C2FE00124E403BF
:100530002CE0CA6BD243920724D16846808BCA68EC
:100540005205520D904201D104981BE06846408B41
:10055000CA685205520D904201D1039812E06846D4
:10056000008BCA685205520D904201D1029809E0F1
:100570006846C08ACA685205520D904201D101985E
:1005800000E00098CA6BD205140F444308680AB013
:100590004005410F2046C84010BD00001407000070
:1005A000000C10000020004000127A0010B50A462E
:1005B000810603D5DF210140044802E001460348DB
:1005C000001FFFF747FF002010BD0000242000405F
:1005D00010B5FFF74DFF0149086010BD0000002075
:1005E00010B514484088144C80056169800D890A53
:1005F0008902014361610F4820380089E1684005A4
:10060000400DC90AC9020143E160FFF7E1FF216A19
:10061000206AE203104320620848C268084B1A406F
:10062000C2600368B02213430360036A134303628A
:10063000216210BD200C100000200040401D02402F
:100640004FFF000010B5C046C04610BD10B5C046F3
:10065000C04610BD10B5C046C04610BD10B5C0465E
:10066000C04610BD10B5C046C04610BD10B5C0464E
:10067000C04610BD10B5C046C04610BD10B5C0463E
:10068000C046C046C04610BD10B5C046C046C046B4
:10069000C04610BD10B5C046C04610BD10B5C0461E
:1006A000C046C046C046C046C046C046C04610BD53
:1006B00010B5C046C04610BD30B47446641E2578DF
:1006C000641CAB4200D21D46635D5B00E31830BC86
:1006D000184702E008C8121F08C1002AFAD1704763
:1006E0007047002001E001C1121F002AFBD17047B2
:1006F000002805D00022491E02D30270401CFAE7F0
:100700007047FFF737FD0420FFF7F0FDFEE700001C
:100710000080009600093D0000127A000024F400D9
:100720004086510100366E0148070000000000209D
:1007300084000000D2060000CC07000084000020E6
:1007400084020000E2060000200000000403020111
:10075000080706050C0B0A09100F0E0D14131211D1
:10076000181716151C1B1A19201F1E1D24232221C1
:10077000282726252C2B2A29302F2E2D34333231B1
:10078000383736353C3B3A39403F3E3D44434241A1
:10079000484746454C4B4A49504F4E4D5453525191
:1007A000585756555C5B5A59605F5E5D6463626181
:1007B000686766656C6B6A69706F6E6D7473727171
:0C07C000787776757C7B7A79807F7E7D6F
:04000005000000C136
:00000001FF
