:020000040000FA
:1000000000170020D5000000EF000000990C000050
:1000100000000000000000000000000000000000E0
:10002000000000000000000000000000F3000000DD
:100030000000000000000000F50000007910000042
:10004000550F00005D0F0000650F0000710F0000EC
:10005000EF080000C51600001D180000DD180000A4
:10006000350F00003D0F00004D100000591000003A
:10007000A50C0000AD0C0000AD160000B516000088
:10008000BD160000290F0000CD160000D516000097
:10009000DD160000450F0000771A0000D50F0000A4
:1000A000750400004D0F0000631A0000E9180000FD
:1000B000A5060000210F0000B50A0000AD080000F1
:1000C0000348854600F09CF900480047670400009B
:1000D0000017002009480A4A002100A1814200D9E6
:1000E0000244084802600848804708480047FEE785
:1000F000FEE7FEE7FEE7FEE7FEE700000000002067
:100100000000000008ED00E049160000C1000000FA
:1001100030B50B46014600202022012409E00D469F
:10012000D5409D4205D31D469540491B2546954027
:1001300040191546521E002DF1DC30BD03460B431D
:100140009B0703D009E008C9121F08C0042AFAD28D
:1001500003E00B780370401C491C521EF9D2704713
:10016000D2B201E00270401C491EFBD2704700224F
:10017000F6E710B513460A4604461946FFF7F0FFA6
:10018000204610BD30B505462A460B4610781C782F
:10019000521C5B1C002801D0A042F7D0002C03D0D9
:1001A000002802D06D1CEFE7284630BD421C0178C4
:1001B000401C0029FBD1801A7047F8B502464A401E
:1001C000D40F42004B0052085B089A4202D202460A
:1001D000084611464A0023D0C30D4A00DDB2120E74
:1001E000AD1A202D35DA49020126490AF6058A1989
:1001F000002C00D0524220214F1B1146B9402A4109
:100200001018C20D9A4221D0002C17D0012D08DC05
:10021000DA05801AD20F8019D207DBB200F0B7F8E6
:10022000F8BDDA05801A012340001B06C0188018AB
:100230005A428018CA0F1043490007E04908C20714
:100240001143DA05801A80194008801800F097F8E9
:10025000F8BD61000122511A001BF7E70122D20705
:100260005140AAE70122D2075040A6E770B50246E6
:100270004A40D50F40004A00ED07400852080028C8
:1002800014D0002A12D0C40DD30D41020120C005A4
:100290005202490A520AE41A091812187D3491428E
:1002A00001D3641C00E04900002C01DA002070BD7D
:1002B0000023914201D3891A0343400849000028D2
:1002C000F7D100290AD0914202D10121C90705E0E6
:1002D000914201D2012101E00121C943E005C0188A
:1002E000401900F04CF870BD10B50022962311465D
:1002F00000F04DF810BD410040020122400AD20535
:10030000090E80187F2901DA00207047962903DC46
:100310009622511AC8407047963988407047F0B508
:100320001FB40646002082B005464024019100908B
:100330001BE0019922460F46304600F083F8049AEC
:10034000059B801A994110D310461946224600F0A9
:1003500069F8361A8F410197224601200021009F3B
:1003600000F060F838184D4100902046641E0028C7
:10037000DFDC019B00982946324607B0F0BD00291A
:1003800004DA401C490001D140084000704770B4B5
:100390000024050C05D11024000402D1002921D02D
:1003A0001124050E01D100020834050F01D100010E
:1003B000241D850F01D18000A41C002801DB400012
:1003C000641C002908D020252E1B0D46F540A140B5
:1003D00000D001212943084301061B1B000ADB1D35
:1003E00002D5002070BC7047DB0518188018002962
:1003F000F8DA401C4900F5D170BC40084000704755
:10040000064C0125064E05E0E36807CC2B430C3C67
:1004100098471034B442F7D3FFF756FEF422000099
:100420001423000010B5202A04DB0146203A914035
:10043000002010BD914020239C1A0346E34019433D
:10044000904010BD10B5202A04DB0846203AD04069
:10045000002110BD0B46D340D0402024A21A914069
:100460000843194610BD10B501F0EEF801F0E2FEA8
:10047000002010BD10B5C046C046C046C04610BDE5
:1004800070B506460125384888B0057400244474C8
:100490008474C474343844638463C4630464294634
:1004A000212001F079F801211C2001F075F869463E
:1004B0004D738D73CC730C744C748D7403AA082126
:1004C000402000F089FB69464C7303AA09214020B3
:1004D00000F082FB03AA0821002000F07DFB03222C
:1004E0000821402000F0C4FB05220921402000F033
:1004F000BFFB0821002000F05DFB03206946C870A7
:1005000002200871487100F0A9FF6946CA7809798C
:100510005118C91C7143FFF7FBFD6946401E8871E5
:100520000F2008720A20C8710C704C708D706846DC
:1005300000F0BCF869464C770C770C480690012116
:10054000059405A800F06CF801221146102000F077
:1005500029F90121802000F003F9012200211C204B
:1005600000F0ECF908B070BD58000020FFFFFF1F3D
:1005700008B5002001F022F8032001F04FF8032015
:1005800001F02AF80121084600F03CFE0A2001F0A3
:10059000C3FD01206946087004204870002088705F
:1005A0000620C870684600F089FF012000F0DCFAE0
:1005B000FF20F53001F0D6FD0121042000F022FEDD
:1005C000042001F017F808BD1CB504460721684651
:1005D00001F048FD01210B2000F0DEFF00216846FC
:1005E000017041710422C270012282710171817017
:1005F000417001F0D3F801200004041BA0B201F007
:10060000A1F8A0B201F0AAF8002001F06BF801F007
:10061000BBF801220321052000F090F91CBD000069
:1006200030B51F4A1378802423431370137D047A56
:100630001B091B012407240F23431375137DDF249B
:1006400023401375164B0468203B9C63147D2025C2
:100650002C43147544689C639C6B5506AC43457AE7
:10066000AD07ED0FAD072C439C639C6B9D05AC4320
:10067000457AED07AD082C439C6301230129917D48
:10068000007A0AD083409943917510784006400E55
:1006900010701078C009FCD130BD83401943F3E7D6
:1006A000A000034010B500F007F910BD10B52B49AC
:1006B0000A7880231A430A70284A203A936A847978
:1006C0001B021B0A240623439362936AC4781B0A05
:1006D0001B0223439362936A7F242402A343047979
:1006E0006406640C23439362936A7F242404A34327
:1006F00044796406640A234393620A785206520ED0
:100700000A700A78D209FCD1CA79C3791207120F8C
:100710001B011A43CA71CA79037A120912011B0715
:100720001B0F1A43CA718A78DF231A408378DB07CC
:100730009B0E1A438A70CA78F7231A400378DB07A6
:100740001B0F1A43CA70CA784078BF23C0071A40EB
:10075000400E0243CA700020087110BDA000034083
:10076000044A0129116802D0814311607047014396
:10077000FBE70000A4000340044A034913680B4050
:100780000343136070470000FF002AFFA4000340EA
:1007900003490968014201D00120704700207047D9
:1007A000A400034010B50C4BFF280BD0012A1A7887
:1007B00010D082431A70D8784006400EC901084311
:1007C000D87010BD5878BF24D2072040520E104375
:1007D0005870F0E70243EDE7A00003401FB58EB06C
:1007E000AA206C462070552060700C20A07000205C
:1007F000E0701020207110220EA9601DFFF79EFCF2
:100800001321A01C01F0DCFB69464875000A8875BD
:10081000054A044810601721684601F083F812B0B9
:1008200010BD0000307500003400002007490A6840
:1008300002604A6842608A688260C968C160034891
:10084000A030C17810221143C170704700000340EE
:100850000C4A5178037C4906490EDB01194351705B
:100860000849036860390B6143684B6183688B6199
:10087000C368CB61007C012803D1907840210843F4
:1008800090707047A000034003490978014201D0ED
:100890000120704700207047A000034002494A78B9
:1008A00002434A7070470000A000034010B5C046E4
:1008B000C046C046C04610BD10B50124E403204622
:1008C000FFF766FF012809D12046FFF755FF0448CE
:1008D000FFF7ACFF02480FC801F094FB10BD000009
:1008E0002400002010B501F0C5FC002010BD10B59B
:1008F000C046C04610BD000070B50E460146154604
:10090000002409A001F0F6F805E0315D08A001F02F
:10091000F1F8641CA4B228466D1EADB20028F4D1D3
:1009200005A001F0E7F870BD25735B25645D3A0012
:1009300025303278090000000D0A000030B5C406E9
:10094000E40E0123A340134C23608407E50EFF242B
:10095000AC408907090EA94000280BDA0007000FF8
:10096000083885080C48AD002818C569A5430D4313
:10097000C56107E085080948AD0028180568A5434A
:100980000D430560012A02D00548036030BD0448CC
:100990008038FAE780E200E000ED00E000E400E0EB
:1009A00080E100E00C225043034A00218018C180FE
:1009B0000181418170470000701200200C235843D0
:1009C000044B1950C01882800021C18001814181EF
:1009D000704700007012002070B514460D460646A0
:1009E00000F024F80C20104946437318D888A04220
:1009F00017D3D888001BD8800DE05A8988598018F1
:100A0000521C5A810078287058899A886D1C90422F
:100A100001D1002058812046641EA4B20028ECD1E8
:100A200070BDFF2070BD0000701200200C214843F3
:100A30000C4940184189C2888918828889B28A4243
:100A400002D88288891A89B202898A4209D001892A
:100A5000C2889142018901D882888918C288891A7E
:100A600041817047701200200C2148430149401811
:100A7000C08870477012002030B50C220C4C5043D7
:100A80000219D3889588AB4210D213892058C01818
:100A90005B1C1381017010899188884201D100206C
:100AA0001081D088401CD080002030BDFF2030BD98
:100AB0007012002010B5C046C046C046C04610BDEA
:100AC000F3B58BB004460025FF2720216846089720
:100AD0000995FFF74CFB204A012C0CD0022C0AD0C0
:100AE000042C08D0062C06D0082C04D00C2C02D0E4
:100AF00004200DB0F0BD106A16460121490288435A
:100B00000C99C907890D084310626B461349A80068
:100B100009586D1C61431950082DF7D30C2C00D1D6
:100B2000019700211D46FF200890880008E0089CDE
:100B3000671E08970DD30A4CF4620A4CF4621350F6
:100B400014582B589C42F2D1491C0829EBD3099820
:100B5000CFE70720CDE7000000000240D4220000CC
:100B60005A5A0000A5A5000010B508490246064BD8
:100B70000020CB62064BCB620B6A0C249207A34386
:100B8000120F13430B6210BD5A5A000000000240BE
:100B9000A5A500000068C840C007C00F704700004E
:100BA000034B10B50022C01800F05CFA002010BD05
:100BB000100E0240034B10B50122C01800F052FA8B
:100BC000002010BD140D0240024A10B58018FFF736
:100BD000E1FF10BD000E024070B5044621481546E5
:100BE0000E460022201800F03DFAB1001E4A0919F5
:100BF0000020891808601B482A78001F31462018F9
:100C000000F030FA17486A780C383146201800F0A6
:100C100029FA1448AA7810303146201800F022FA38
:100C20001048EA7814303146201800F01BFA0D48BD
:100C30002A7918303146201800F014FA09486A79E8
:100C400020303146201800F00DFA0849886801224A
:100C5000D2039043AA79D207120C10438860002077
:100C600070BD00000C0D0240000C0240000F02405D
:100C700089000818024940180260002070470000EF
:100C8000000C0240034B10B50122C01800F0EAF935
:100C9000002010BD100D024008B500200090002873
:100CA000FDD008BD10B5C046C04610BD10B5C04649
:100CB000C04610BDF8B5012269460020FFF78CFE42
:100CC0003E4E00253E4C002872D16078062203007B
:100CD00000F020FF08051B212932404F556E684661
:100CE0000078AA2864D1FF2101313648FFF73FFA86
:100CF000012060706580E58025812570A5803248DF
:100D000030607D2000017061F8BD6846007855288C
:100D10004DD1022031E06846618800780918618071
:100D20002070032029E068466188007809186180F6
:100D30000002E080042020E06946E088097808434A
:100D4000E080638859186180002801D0052014E0F4
:100D500062702DE0684601781A4B20891954401CB6
:100D600080B22081638859186180E1888842EFD081
:100D70001EE068460078A0800720607018E0684692
:100D800000780102A0880143A18062880F48424098
:100D90006280914205D1E2880A49207800F06AF821
:100DA00005E00BA000F0A6FE0020FFF7FBFD65703C
:100DB00070690028A8D16570F8BD000034000020DB
:100DC000140000200014002030750000FFFF000018
:100DD000636865636B206572726F722C2072657632
:100DE0005F73756D3A253034782C20636865636BCA
:100DF0005F73756D3A253034780D0A00F8B50F46EB
:100E000006460146144615A000F074FE174DAA20B0
:100E1000287055206870200AAE70E8702C71002F81
:100E200004D0681D22463946FFF788F9641DA4B234
:100E3000A11EA81C01F0C4F82855641CA1B2000A28
:100E40006854491C8CB22246084909A0FFF754FD9A
:100E50002146064800F066FDF8BD000073656E642B
:100E600020636D643A253032780D0A0000130020AB
:100E7000733A000070B5A6B00E46044615468021B0
:100E800005A8FFF774F9214615A000F033FE0022F3
:100E90001146FE20FFF7B2FF0C2C1ED12A46314628
:100EA00001A8FFF74BF96846007A019CC10980212F
:100EB0008D43C109C9010D4340218D434106C90F2E
:100EC00089010D43290900070901000F0143049B13
:100ED000039A2046009600F009F826B070BD000085
:100EE000636D643A253032780D0A00000FB410B5F6
:100EF0000220FFF7C9FC0028FAD1012069460876D4
:100F00008002FFF739FC02A8FFF7A2FC0220FFF7DE
:100F1000C5FC032001F0B0F810BC08BC04B01847B1
:100F200010B5C046C04610BD10B5C046C046C0464C
:100F3000C04610BD10B5C046C04610BD10B5C04675
:100F4000C04610BD10B5C046C04610BD10B5C04665
:100F5000C04610BD10B500F011F810BD10B500F07E
:100F60002DF810BD10B5C046C046C046C04610BDE5
:100F700010B5C046C046C046C04610BD10B50A21D7
:100F80000020FFF721FE012803D10A210020FFF7EE
:100F900007FE06210020FFF717FE012803D10621D6
:100FA0000020FFF7FDFD01210020FFF70DFE0128C5
:100FB00003D101210020FFF7F3FD10BD10B508217A
:100FC0004020FFF701FE012803D108214020FFF750
:100FD000E7FD10BD10B500F025F810BD10B50022DA
:100FE0000421024800F03EF810BD00000414004047
:100FF00010B500220321024800F034F810BD0000B3
:101000000414004010B504210148FFF7C3FD10BDD2
:101010000414004010B503210148FFF7BBFD10BDCB
:101020000414004070B5FFF7F5FF0125064C0128B8
:1010300002D12571FFF7DCFFFFF7E4FF012802D1A1
:101040002571FFF7CBFF70BD0400002010B5C0462E
:10105000C046C046C04610BD10B5C046C046C046DA
:10106000C04610BD01238B400168012A02D099437C
:10107000016070471943FBE710B500F001F810BD9F
:10108000704700007CB50F240121204600F084FA4F
:101090002146002000F0FCFC00F00CFD002000F0D8
:1010A000E9F9002000F0F8F9FFF762FA01210320C6
:1010B00000F0A8F82B4D7D21C9002868FFF728F81B
:1010C00029490024401E88420BD8284948612848F5
:1010D0000722C3691B021B0A4E043343C3618C61A0
:1010E0000A610721684600F0BDFF01211C2000F0C5
:1010F00053FA69464C7001208870CC700C714C71A9
:1011000088716A4602210020FFF766FDE120400257
:1011100000F08AFB1748FFF7B3F900F0B1FC16485E
:10112000FFF752FA00F026FB01210C20FFF7C8FC64
:10113000002802D011A000F0DDFC01F02FF815A26C
:1011400017A11AA000F0D6FCFF2102310A461CA00C
:1011500000F0D0FC22A0296800F0CCFC26A000F012
:10116000C9FC7CBD00000020FFFFFF0000E000E0A4
:1011700004ED00E090D00300B80B0000466C6173F2
:10118000685F496E6974206973206661696C0D0A35
:101190000000000031353A32363A303900000000A4
:1011A0004D6179202037203230323500636F6D7009
:1011B000696C652074696D653A257325730D0A00A5
:1011C000534F4654564953494F4E3A2530782C20B8
:1011D0004857564953494F4E3A2530780D0A00007A
:1011E00053797374656D436F7265436C6F636B3ACB
:1011F00025640D0A0000000073797320696E69741C
:101200000D0A0000F3B581B00C46002600F066FC24
:10121000002C00D001243E4D2F6A0198E9030328D9
:101220003AD006DC00280CD0012815D0022804D1C1
:1012300026E0042845D048285CD004262F6230469A
:10124000FEBD28684008400020432860002CF5D0EF
:10125000E8680005FAD5F1E7286A084328622D4AB4
:10126000D06803210843D0602868022188436100C8
:1012700008432860002CE1D028694006FAD5DDE754
:10128000286804218843A10008432860002CD5D099
:101290006869C004FAD5D1E7286A084328621E4A63
:1012A000D068032189030843D06028680821884357
:1012B000E10008432860002CC0D0A8694006FAD598
:1012C000BCE7286A0121090408432862134A106810
:1012D000012108431060142000F0F6FE2868102158
:1012E0008843210108432860002CA7D0E86B400305
:1012F000FAD5A3E70648403081698214914322035E
:1013000011438161002C99D081690905FAD595E7CF
:1013100000200040401D0240800D0240002400409B
:1013200010B58AB00024142248496846FEF706FF2B
:101330004648001F0068089000200590069007901E
:10134000434801886A46918341885183818811838B
:10135000C088D0823E48203000883E49908208688C
:101360000006420F3C48130000F0D4FB05042A2C71
:10137000383B6800C8686A464005928B400D904231
:1013800001D1049C5AE0C8686A464005528B400D62
:10139000904201D1039C51E0C8686A464005128B17
:1013A000400D904201D1029C48E0C8686A46400561
:1013B000D28A400D904201D1019C3FE0009C3DE06B
:1013C00004463BE06846808A4A699205920D904245
:1013D000684601D1448C31E0048C2FE00124E40301
:1013E0002CE0CA6BD243920724D16846808BCA682E
:1013F0005205520D904201D104981BE06846408B83
:10140000CA685205520D904201D1039812E0684615
:10141000008BCA685205520D904201D1029809E032
:101420006846C08ACA685205520D904201D101989F
:1014300000E00098CA6BD205140F444308680AB054
:101440004005410F2046C84010BD0000B8220000F2
:10145000000C10000020004000127A0010B5FFF7C9
:101460005FFF03490968C904890FC84010BD000027
:101470000020004010B5044600F030FB054A11681A
:101480000720000281436007400D014311600020E6
:1014900010BD00000020004010B5044600F01EFB07
:1014A000054A11680320C0028143A007C00C014314
:1014B0001160002010BD0000002000401EB5002279
:1014C00031490092019202920B886C4623814B882D
:1014D000E3808B88A380C988618083782B49032BA4
:1014E00007D0C3782A4C63432A4CA34228D906204C
:1014F0001EBD2389CC686405640DA34202D1C37864
:10150000022BF4D86B46DB88CC686405640DA342DB
:1015100002D1C378022BEAD86B469B88CC6864055D
:10152000640DA34202D1C378032BE0D86B465B88DD
:10153000CC686405640DA34202D1C378062BD6D8CB
:10154000CB6B03246403A3430478A407640C2343F4
:10155000CB63CB6B1C24A34344786407E40E234382
:10156000CB63CB6BFF24E134A343C4782407E40DA1
:101570002343CB63CB6B80789B089B008007800F55
:101580000343CB6310461EBD000C1000002000403A
:1015900000127A00006CDC0210B50A46810603D501
:1015A000DF210140044802E001460348001FFFF725
:1015B00059FD002010BD00002420004010B5054A50
:1015C0000146136900200C248907A343090F0B432C
:1015D000136110BD0020004010B5054A0146136993
:1015E000002030248907A343890E0B43136110BDEB
:1015F0000020004070B50446002500F06FFA064850
:101600000168E02291436207120E1143016000F06D
:1016100013F8284670BD000000200040054A01462E
:10162000136900209B089B008907890F0B431361F6
:10163000704700000020004010B5FFF771FE01491F
:10164000086010BD0000002010B514484088144CFC
:1016500080056169800D890A8902014361610F4833
:1016600020380089E1684005400DC90AC9020143DC
:10167000E160FFF7E1FF216A206AE2031043206284
:101680000848C268084B1A40C2600368B02213437E
:101690000360036A13430362216210BD200C100033
:1016A00000200040401D02404FFF000010B5C04622
:1016B000C04610BD10B5C046C04610BD10B5C046EE
:1016C000C04610BD10B500F01FF810BD10B5C046E3
:1016D000C04610BD10B5C046C04610BD10B5C046CE
:1016E000C04610BD0146012200208A40D143014A74
:1016F000516170470058004002490969C140C8075C
:10170000C00F70470058004010B50020FFF7F4FFED
:10171000012812D10020FFF7E5FF0848084B816837
:10172000491C8160002081005A58002A01D0521EB5
:101730005A50401CC0B20928F5D310BD0400002047
:1017400034000020044A0146136800201B0C1B04CF
:101750000B4313607047000000580040044A0146E4
:10176000536800201B0C1B040B43536070470000A0
:101770000058004003490020CA6801231A43CA6088
:10178000704700000058004003490020CA680B154C
:101790001A43CA60704700000058004010B51E4947
:1017A0000022CB6803242403A3430478A407A40CD9
:1017B0002343CB60CB684C15A3434478E407A40DC6
:1017C0002343CB60CB688C15A3438478E407E40DF6
:1017D0002343CB60CB687024A343C4786407640EB2
:1017E0002343CB60CB680824A3430479E407240F88
:1017F0002343CB60CB680424A3434479E407640FFC
:101800002343CB60CB6880790224C007A343800FB9
:101810000343CB60104610BD0058004010B500F0E7
:1018200067F8C046C04610BD30B587B005460721F1
:1018300004A800F017FC01211C20FFF7ADFE0024D6
:101840006846447404AA09212046FFF7C5F901221D
:1018500009210020FFF70CFA01216846417404AA0F
:101860000A210020FFF7B8F901220A210020FFF722
:10187000FFF91021684600F0F5FB01210020FFF779
:101880008BFE40216846017044804470CC00039573
:101890008480FFF7E3FD650502906946284600F065
:1018A00089F80021284600F06BF80021284600F056
:1018B00075F8012203210620FFF740F8224605496A
:1018C0000020FFF77BF8E20003490220FFF776F8DB
:1018D00007B030BD700000207002002010B500F08D
:1018E00035F8C046C04610BD10B5C046C04610BD54
:1018F00010B50124A4070021204600F056F8002866
:101900000CD00021204600F03BF8204600F08CF877
:101910000349887001460020FFF7AEF810BD0000B3
:1019200004000020F8B5002401270D460646BF0735
:1019300005E0315D384600F07AF8641CA4B2284610
:101940006D1EADB20028F4D1F8BD000010B50A4CF0
:101950000021204600F029F800280CD00021204664
:1019600000F00EF8204600F05FF80449C870014608
:101970000120FFF781F810BD0001004004000020A5
:1019800010B500221430FFF76DFB002010BD10B51C
:101990000122001DFFF766FB002010BD10B50122DB
:1019A000001DFFF75FFB002010BD10B51030FFF7E2
:1019B000F1F810BD7CB505461A480C0003C801912A
:1019C00000900FD00020686060886178227808431A
:1019D000A1881143084368602078402804D0C028BB
:1019E00002D01DE004207CBDA0886946400A80002A
:1019F000095CE0688840FEF777FC0646A068FEF7C1
:101A000073FC3146FEF732FC3F210906FEF7D5FB99
:101A1000FEF771FC80B2A86104212846FFF7B7FFEA
:101A200000207CBDCC2200000068C0B2704770B5B9
:101A30000D46044603212046FFF7B7FF0028F9D0E2
:101A40002068000A00022843206001212046FFF799
:101A5000ACFF0028F9D001212046FFF791FF0020BC
:101A600070BD10B5C046C046C046C046C046C04660
:101A7000C046C04610BD10B5C046C04610BD0000EF
:101A800002481E210160E12101607047800F004083
:101A900000B50346084600F015F8054948682022BD
:101AA0009043DA07920E10434860002000BD00000A
:101AB000800F004002481E210160E1210160704753
:101AC000800F004004494A68000712091201000F04
:101AD00002434A6070470000800F004003480249FB
:101AE00081600349816070475A5A0000002000401D
:101AF000A5A500000FB410B503A9044B044A029831
:101B000000F024F810BC08BC04B018478521000080
:101B10002000002030B47446641E2578641CAB425B
:101B200000D21D46635D5B00E31830BC184702E03D
:101B300008C8121F08C1002AFAD170477047002058
:101B400001E001C1121F002AFBD17047FFB591B01F
:101B50000F460546002606E025280AD0149A139958
:101B600090476D1C761C28780028F5D1304615B0BA
:101B7000F0BD002400940121F34A029400E00443E4
:101B80006D1C2B780846203B98401042F7D12878EE
:101B90002A280ED0022128780246303A092A15D880
:101BA000009A0A235A43303A80180C436D1C009067
:101BB000F1E701CF0090002805DA0120400304433B
:101BC000009840420090022004436D1C28782E2883
:101BD00015D10420044368786D1C2A280AD101CF4E
:101BE0006D1C02900BE002990A22514330394018D3
:101BF0006D1C02902878014630390929F3D92878DC
:101C00006C2810D006DC4C281AD068280ED06A2820
:101C100017D104E0742813D07A2812D110E00120E3
:101C2000400504430CE00121090501E003210905F9
:101C30000C436978814203D10120000524186D1CF2
:101C40006D1C287803906E281ED00CDC632831D0E0
:101C500004DC00288AD0582811D1B2E064287BD057
:101C600069280CD178E073282DD004DC6F2870D05F
:101C7000702804D1A7E075286CD078286BD0149A0E
:101C800013999047761C62E06002400F022807D04B
:101C900003280AD0042838680AD006603F1D56E0A1
:101CA0003868F11706604160F8E738680680F5E7A4
:101CB0000670F3E73878694608740020487404A871
:101CC0000390012003E0386803900020C0433F1DCB
:101CD00061070FD5002101E00199491C029A019189
:101CE000914213DA8142F7DB019A0399895C00295A
:101CF000F2D10BE0002101E00199491C01918142E0
:101D0000FADB019A0399895C0029F5D101990098C1
:101D1000139A401A00902146149B00F03BF9019958
:101D20008019461807E0039803990078491C03912D
:101D3000149A139990470198401E0190401CF2D1CB
:101D40002146149B139A009800F014F986196D1C13
:101D500009E741E033E034E00A20002104900591D6
:101D60006002410F022905D001CFC2179446032912
:101D700005D007E0FF1DFF08FF0003CF06E000B21B
:101D8000C2179446042902D140B2C1178C460022E2
:101D90006146944506DA0A460021404291418C464C
:101DA0002D2102E0210504D52B216A46117601215F
:101DB00003E0E10701D02021F7E7019154E00A2078
:101DC0000BE0102009E010200490002104200443BF
:101DD00008200591029003E008200021059104905D
:101DE0006002410F022905D001CF00229446032949
:101DF00006D006E0FF1DFF08FF0003CF8C4603E07E
:101E000080B2042900D1C0B20021019121072BD555
:101E10000399702906D0049A1021059B4A401A4361
:101E200005D00EE040216A461176012108E06146A6
:101E3000014306D030216A4611760399517602217A
:101E40000191049A0821059B4A401A430CD161462E
:101E5000014301D1610707D530216A46117601217E
:101E600001910299491E02910399582904D037A182
:101E700003910FA90F910DE039A1F9E76146059B88
:101E8000049AFEF74CFA039B8C469B5C0F9A521EF9
:101E90000F92137061460143F0D10F9807A9081AF9
:101EA00020300390600704D5012000048443029889
:101EB00001E0012002900399884201DD401A00E010
:101EC000002041180290019809180098401A0090CB
:101ED000E00306D42146149B139A009800F05AF8A8
:101EE00086190020049008E006A9085C149A13994A
:101EF00090470498401C761C049001998842F3DBBB
:101F0000E0030CD52146149B139A009800F042F888
:101F1000861904E0149A302013999047761C029990
:101F2000481E02900029F5DC08E00F980F99007810
:101F3000491C0F91149A13999047761C0399481ED7
:101F400003900029F1DCFBE609280100303132332F
:101F500034353637383961626364656600000000E5
:101F600030313233343536373839414243444546CF
:101F700000000000F8B5044600251E4617468804F8
:101F800004D405E039462020B0476D1C641EF9D505
:101F90002846F8BDFFB50446002581B01E46C8039B
:101FA00001D5302700E02027880404D505E0384615
:101FB0000399B0476D1C641EF9D5284605B0F0BDE5
:101FC000034610B50020024603E09C5C201880B256
:101FD000521C8A42F9D30149484010BDFFFF00005E
:101FE0001FB504460648C07C002807D0684600F0AC
:101FF00021F8002C02D068460FC8A0471FBD000082
:102000005800002070B50A4DEC7C2E7CB44201D201
:10201000641CEC746C7C240164190FC4687C401C43
:10202000C0B26874297C884201D10020687470BDF8
:102030005800002030B50A4AD17C00290FD0491E33
:10204000D174917C090189183AC93AC0907C401C2E
:10205000C0B29074117C884201D10020907430BDD0
:1020600058000020002805D00022491E02D302702B
:10207000401CFAE770470000F8B504460F4D0E48C3
:1020800068610026AE61052028610D4801270068BF
:102090003F06009008E0AE610A490098FEF738F864
:1020A000381AA9698142FCD8641EF4D22869400814
:1020B00040002861F8BD0000FFFFFF0000E000E0E5
:1020C0000000002010270000F8B504460F4D0E4810
:1020D00068610026AE61052028610D48012700686F
:1020E0003F06009008E0AE610A490098FEF710F83C
:1020F000381AA9698142FCD8641EF4D228694008C4
:1021000040002861F8BD0000FFFFFF0000E000E094
:1021100000000020A0860100F8B504460F4D0E48CF
:1021200068610026AE61052028610D48012700681E
:102130003F06009009E0AE617D21C9000098FDF7DF
:10214000E7FF381AA9698142FCD8641EF3D22869D6
:10215000400840002861F8BDFFFFFF0000E000E0FC
:10216000000000200CB500216A4600919180009982
:1021700005E000BF00BF00BF00BF491C00918142C5
:10218000F7D30CBD10B50446C0B2FEF7ABFB002878
:1021900002D00020C04310BD204610BD70B590B0E5
:1021A00040216846FDF7E3FF0A20194C7D2515A65E
:1021B000ED002062206A0028FCD116A0FFF79AFCEF
:1021C00000202562FEF750FC402800D34020002864
:1021D000F0D0024669460020FEF7FEFB694612A0D9
:1021E000FFF788FC07A16846FDF7CCFF002806D062
:1021F0003046FDF7DBFF81B23046FFF793FB10B0AE
:1022000070BD000064667420746573740000000083
:1022100034000020776169742064746620746573EB
:10222000742E2E2E0D0A0000696F745F7265633A7A
:1022300025730000FEF726FF084C094D2069002891
:1022400003D108A02561FFF755FCFEF733FD0848D0
:10225000FFF7C6FEFFF714FCF0E700003400002093
:10226000B80B00006D63752068656172740D0A001B
:10227000DD070000F8B500240746012608E0002C21
:1022800006D0092C09D0601E354685403D4204D158
:1022900002210020FEF78EFC03E002210020FEF761
:1022A000F1FC0120FFF7E8FE641CE4B20A2CE6D33F
:1022B000F8BD00000080009600093D0000127A0081
:1022C0000024F4004086510100366E010400000035
:1022D0000300000020000000170000001B000000A9
:1022E00050460000E022020018000000F00000004C
:1022F000E803000014230000000000202400000078
:102300002E1B00003823000024000020DC160000F3
:102310003E1B000020000000000000000000000044
:1023200000000000000000000000000000000000AD
:082330000000000000000000A5
:04000005000000C136
:00000001FF
