:020000040000FA
:10000000F01A0020D5000000EF000000691A00007F
:1000100000000000000000000000000000000000E0
:10002000000000000000000000000000F3000000DD
:100030000000000000000000F5000000911D00001D
:10004000351D00003D1D0000451D0000511D000034
:10005000FF110000152400006D2500002D26000072
:10006000151D00001D1D0000651D0000711D000014
:10007000751A00007D1A0000FD2300000524000011
:100080000D240000091D00001D240000252400008F
:100090002D240000251D0000932800005D1D000098
:1000A000290B00002D1D00007F280000DD26000028
:1000B00005100000011D0000C5130000BD11000067
:1000C0000348854600F0F8FA004800471B0B000083
:1000D000F01A002009480A4A002100A1814200D9F3
:1000E0000244084802600848804708480047FEE785
:1000F000FEE7FEE7FEE7FEE7FEE700000000002067
:100100000000000008ED00E099230000C10000009D
:1001100030B50B46014600202022012409E00D469F
:10012000D5409D4205D31D469540491B2546954027
:1001300040191546521E002DF1DC30BD03460B431D
:100140009B0703D009E008C9121F08C0042AFAD28D
:1001500003E00B780370401C491C521EF9D2704713
:10016000D2B201E00270401C491EFBD2704700224F
:10017000F6E710B513460A4604461946FFF7F0FFA6
:10018000204610BD30B505462A460B4610781C782F
:10019000521C5B1C002801D0A042F7D0002C03D0D9
:1001A000002802D06D1CEFE7284630BDCAB2401EC1
:1001B0004178401C8A4202D00029F9D100207047C2
:1001C000421C0178401C0029FBD1801A70470000B6
:1001D0000FB400B58DB009900B9010A900200091CC
:1001E000C0430A9000200C900648069006480790ED
:1001F0006A4609A80F9900F0B3F90DB008BC04B025
:100200001847000081050000A1050000FFB5002788
:10021000FF4383B000205C6801909E681D46A96979
:100220007F1C049888470090296A88470028F6D1E7
:100230000098401C0CD0032040028443002E19DD9E
:10024000600614D500982B2809D02D280FD103E083
:100250000020C04307B0F0BD012080020443A9691B
:100260007F1C04988847761E0090002E02DD0098BF
:10027000302803D00598002825D035E00120400221
:100280000443A969761E7F1C049888470090002EBD
:1002900003DD782805D0582803D00598002810D011
:1002A00022E00598002801D010281DD1012040022D
:1002B0008443A969761E7F1C04988847009010200B
:1002C00002E0082000E00A2005900DE0012149022B
:1002D0000C43059A0199761E514308180190A969AB
:1002E0007F1C049888470090002E05DD0599009832
:1002F00000F020F90028E9DAE96904988847A005A8
:1003000002D40120C043A5E7E00722D1600611D541
:100310006005019800D5404229680A1D2A600968D5
:10032000220501D5087014E0220701D5088010E0ED
:1003300008600EE02868011D29600068210502D5CB
:100340000199017005E02107019901D5018000E0C4
:10035000016038467EE770B5064602F0F7FA046899
:1003600005460A220021304600F02CF92C6070BDB1
:10037000F8B502464A40D40F42004B0052085B08D1
:100380009A4202D20246084611464A0023D0C30DC3
:100390004A00DDB2120EAD1A202D35DA49020126CF
:1003A000490AF6058A19002C00D0524220214F1B21
:1003B0001146B9402A411018C20D9A4221D0002C92
:1003C00017D0012D08DCDA05801AD20F8019D20768
:1003D000DBB200F037F9F8BDDA05801A01234000DE
:1003E0001B06C01880185A428018CA0F10434900D3
:1003F00007E04908C2071143DA05801A801940084E
:10040000801800F017F9F8BD61000122511A001B95
:10041000F7E70122D2075140AAE70122D207504054
:10042000A6E770B502464A40D50F40004A00ED07E6
:1004300040085208002814D0002A12D0C40DD30D51
:1004400041020120C0055202490A520AE41A091861
:1004500012187D34914201D3641C00E04900002C45
:1004600001DA002070BD0023914201D3891A0343B1
:10047000400849000028F7D100290AD0914202D152
:100480000121C90705E0914201D2012101E00121CA
:10049000C943E005C018401900F0CCF870BD10B594
:1004A00000229623114600F0CDF810BD4100400215
:1004B0000122400AD205090E80187F2901DA0020A6
:1004C0007047962903DC9622511AC8407047963926
:1004D00088407047F0B51FB40646002082B005463C
:1004E0004024019100901BE0019922460F463046BE
:1004F00000F004F9049A059B801A994110D3104624
:100500001946224600F0EAF8361A8F410197224632
:1005100001200021009F00F0E1F838184D410090C3
:100520002046641E0028DFDC019B009829463246E5
:1005300007B0F0BD3A2800D23038202302469A4353
:10054000412A01D310463738884201D30020C043E6
:100550007047000002681378511801601846704710
:1005600010B5D16004495161044911620021116143
:10057000114600F0E3F810BD550500002907000002
:100580004268002A08D001680B78491C002B03D070
:10059000521E06C0184670470121C160881E704770
:1005A0004268002A0BD0C3680168002B07D183681A
:1005B0008B4204D0491E521C06C000207047002008
:1005C000C0437047F7B5009C0F4600262578641C91
:1005D000002D05D000F0A4F80068405DC007F5D1FB
:1005E0002B2D02D02D2D18D0641E39462046029A9C
:1005F00000F040FA002F04D03968A14201D10099DF
:1006000039607105022400290BDA4042002803DD1D
:1006100002F09CF90460A007FEBD012080020643A1
:10062000E3E70028F8DA02F091F904600048FEBD23
:10063000FFFFFF7F002904DA401C490001D1400878
:100640004000704770B40024050C05D1102400044C
:1006500002D1002921D01124050E01D10002083455
:10066000050F01D10001241D850F01D18000A41CBC
:10067000002801DB4000641C002908D020252E1B27
:100680000D46F540A14000D0012129430843010651
:100690001B1B000ADB1D02D5002070BC7047DB0568
:1006A000181880180029F8DA401C4900F5D170BCF0
:1006B0004008400070470000064C0125064E05E04A
:1006C000E36807CC2B430C3C98471034B442F7D373
:1006D000FFF7FAFCC8390000E839000010B5202AFD
:1006E00004DB0146203A9140002010BD91402023B8
:1006F0009C1A0346E3401943904010BD10B5202AD0
:1007000004DB0846203AD040002110BD0B46D34000
:10071000D0402024A21A91400843194610BD000081
:10072000004870471439000010B50446FFF7F8FF81
:100730000068005DC007C00F10BD0000F3B58DB0AC
:1007400000200A9001200B90002608460C300C4631
:1007500009906269012109989047051E2ED0252D28
:100760002DD0216A8847002818D062690121099894
:100770009047216A88470028F7D1411E626909988D
:10078000904700E0761CA1690D988847216A884748
:100790000028F7D1E1690D988847DAE7A1690D983B
:1007A00088470746A84201D1761CD2E7E1690D9837
:1007B00088477F1C02D10A98002877D049E100279A
:1007C00062693D463946099890472A280CD16269EA
:1007D000012109989047012506E00A214F433F185F
:1007E000303FEBD4102005436269012109989047FE
:1007F000014630390A2903D29B498F42DEDCECE7FF
:10080000E90600D4994F6C280AD04C2810D06828EB
:1008100024D06A282ED074280CD07A280AD00DE073
:1008200062690121099890476C2823D004211CE0BB
:10083000202005436269012109989047A7606560FF
:1008400065284FD026DC582839D01ADC452849D0F5
:1008500012DC252834D04128B0D143E0626901215F
:1008600009989047682802D008210D43E6E7012047
:10087000C002DEE70220DCE7462833D047282CD12F
:1008800030E05B2870D061282CD063286CD06428BD
:1008900023D161E06F284FD009DC662822D0672879
:1008A00020D0692826D06E2817D12EE0CDE0702800
:1008B0004DD073286FD075284ED078280DD154E0D4
:1008C000A1690D9888470546252800D16CE7E169A4
:1008D0000D9888476D1C00D16DE7BAE00A224CE004
:1008E0000A2252E0012023466A46C0430D99C046C1
:1008F000C046A3E02846402108436060A80723467D
:1009000001D5002239E000223FE0E80700D020E7CF
:100910002068011D21600068290501D5067018E7CF
:10092000290701D5068014E7A90703D5F11706604A
:1009300041600EE706600CE72846402108436060EE
:10094000A807234601D5082217E008221DE04849E0
:1009500028460840606016E0284640210843606051
:10096000A8072346BCD5B9E715E02846402108432F
:100970006060A80707D5234610220120C0430D99C7
:10098000C046C0465AE0234610220120C0430D99BC
:10099000FFF73CFC52E000210C910B4600916328CC
:1009A00002D05B2807D043E0E80601D40120A06014
:1009B000012000903CE062690121099890475E287F
:1009C00005D101200C900146626909989047216980
:1009D000002906D10B4601AA8F00491CD3510829D2
:1009E000FADB002835D0216900290ED1C117C90EC4
:1009F00009184A11930001AA9A1849094901411A94
:100A0000012013688840034313606269012109983B
:100A100090475D28E5D10C98002808D0002001AB54
:100A200081005A58401CD2435A500828F8DB01ABC9
:100A300001202246C0430D99C046C04600280ADA6C
:100A4000401C06D10B98002803D00020C0430FB0F3
:100A5000F0BD0A98FBE7E90702D10A99491C0A91FF
:100A6000361800200B9074E6CCCCCC0CFFFFFF7F37
:100A7000F1F7FFFFF7B582B0029C00272078641CD5
:100A800015460197302802D0002D15D015E02078AA
:100A90000127641C782804D0582802D0002D09D0E2
:100AA0000BE0002D01D0102D07D100271025207854
:100AB000641C02E0082500E00A250026009610E0EC
:100AC0000099012769430818020C294680B2714336
:100AD00000908E183804864201D3012001902078BE
:100AE000641C2946FFF726FD0028E9DA0398002850
:100AF00005D0002F01D0641E00E0029C0460019824
:100B0000002806D001F022FF02210160C81E05B0B6
:100B1000F0BD009930040843F9E710B501F03CFC42
:100B200002F062FD002010BD10B5C046C046C046B0
:100B3000C04610BDFCB500220192CA06D20E1305B4
:100B4000C90600933C4C57019602D503890803005F
:100B500001F0EEFE10090E151B21282F343B4147F2
:100B60004F555A61676E206840094001104304E008
:100B700020681F2149018843384320605AE02068DB
:100B80001F21890288433043F7E720681F21C903EA
:100B900088432843F1E720681F210905884300990D
:100BA0000843EAE722681F20400682430A43226086
:100BB00040E0606840094001104304E060681F2184
:100BC000490188433843606034E060681F2189022E
:100BD00088433043F7E760681F21C90388432843EF
:100BE000F1E761681F2000058143009801436160BF
:100BF00020E060681F22520690430843E3E7A068A4
:100C000040094001104304E0A0681F2149018843C6
:100C10003843A0600EE0A0681F218902884330435A
:100C2000F7E7A1681F20C00381432943A16001E0C9
:100C3000042001900198FCBD4024004002494A6B09
:100C400082434A6370470000802400400349096BD7
:100C5000014201D0012070470020704780240040ED
:100C600001498000085870475024004070B50400C6
:100C700023D0134D01206860022002F009FA607849
:100C8000A18862880843E188114308432189084309
:100C9000696808436860A868291588432178C907EE
:100CA000490D0843A860A86804218843A17AC907B0
:100CB000490F0843A860002070BD042070BD0000EB
:100CC000002400400149012048607047C0240040D2
:100CD000002802D00178102901D904207047134957
:100CE0008A68CB139A438A608A68CB149A43437804
:100CF000DB071B0D1A438A608A688B159A43837839
:100D0000DB07DB0D1A438A6000780F210005090517
:100D1000401801020548090A403082680F231B056C
:100D20009A43114381600020704700000024004076
:100D30000EB50C21684602F079F90121102001F06E
:100D4000D3FA00F011F901206A4610700020012149
:100D500050704903518009119180D080490111815F
:100D600090726846FFF782FF0EBD10B501211C206E
:100D700001F0BAFA0721002000F062FE00214020B5
:100D800000F05EFE0221402000F05AFE10BD08B5C2
:100D90000321684602F04AF90020694688704870CD
:100DA000032008706846FFF793FF07210020FFF734
:100DB000C1FE08210120FFF7BDFE10210220FFF730
:100DC000B9FEFFF77FFF08BD70B50646012538481C
:100DD00088B00574002444748474C47438388463FF
:100DE000C463046444642946212001F07DFA012192
:100DF0001C2001F079FA69464D738D73CC730C7425
:100E00004C748D7403AA0821402000F0C3FD69468C
:100E10004C7303AA0921402000F0BCFD03AA08215D
:100E2000002000F0B7FD03220821402000F0FEFD65
:100E300005220921402000F0F9FD0821002000F0E2
:100E400097FD03206946C87002200871487101F0BF
:100E5000ADF96946CA7809795118C91C7143FFF781
:100E600057F96946401E88710F2008720A20C87120
:100E70000C704C708D70684600F0C8F869464C776D
:100E80000C770C4806900121059405A800F078F82D
:100E900001221146102000F035F90121802000F0D8
:100EA0000FF9012200211C2000F0D0F908B070BD1C
:100EB00024010020FFFFFF1F08B5002001F026FAE3
:100EC000032001F053FA032001F02EFA0121084615
:100ED00001F040F80A2002F003F901206946087089
:100EE00004204870002088700620C870684601F011
:100EF0008DF9012000F0C0FAFF20F53002F016F95C
:100F00000121042001F026F8042001F01BFA08BD9D
:100F10001CB504460721684602F088F801210B2021
:100F200001F0E2F900216846017041710422C270AB
:100F30000122827101718170417001F0D7FA0120A4
:100F40000004041BA0B201F0A5FAA0B201F0AEFAB1
:100F5000002001F06FFA01F0BFFA01220321052001
:100F600000F074F91CBD000010B5044801680122AE
:100F700011430160022002F08BF810BD00240040F4
:100F800030B51F4A1378802423431370137D047AED
:100F90001B091B012407240F23431375137DDF2432
:100FA00023401375164B0468203B9C63147D202559
:100FB0002C43147544689C639C6B5506AC43457A7E
:100FC000AD07ED0FAD072C439C639C6B9D05AC43B7
:100FD000457AED07AD082C439C6301230129917DDF
:100FE000007A0AD083409943917510784006400EEC
:100FF00010701078C009FCD130BD83401943F3E76D
:10100000A000034010B500F0DFF810BD10B52B496B
:101010000A7880231A430A70284A203A936A84790E
:101020001B021B0A240623439362936AC4781B0A9B
:101030001B0223439362936A7F242402A34304790F
:101040006406640C23439362936A7F242404A343BD
:1010500044796406640A234393620A785206520E66
:101060000A700A78D209FCD1CA79C3791207120F23
:101070001B011A43CA71CA79037A120912011B07AC
:101080001B0F1A43CA718A78DF231A408378DB0763
:101090009B0E1A438A70CA78F7231A400378DB073D
:1010A0001B0F1A43CA70CA784078BF23C0071A4082
:1010B000400E0243CA700020087110BDA00003401A
:1010C000044A0129116802D081431160704701432D
:1010D000FBE70000A4000340044A034913680B40E7
:1010E0000343136070470000FF002AFFA400034081
:1010F00003490968014201D0012070470020704770
:10110000A400034010B50C4BFF280BD0012A1A781D
:1011100010D082431A70D8784006400EC9010843A7
:10112000D87010BD5878BF24D2072040520E10430B
:101130005870F0E70243EDE7A000034007490A6852
:1011400002604A6842608A688260C968C160034878
:10115000A030C17810221143C170704700000340D5
:101160000C4A5178037C4906490EDB011943517042
:101170000849036860390B6143684B6183688B6180
:10118000C368CB61007C012803D1907840210843DB
:1011900090707047A000034003490978014201D0D4
:1011A0000120704700207047A000034002494A78A0
:1011B00002434A7070470000A000034010B5C046CB
:1011C000C046C046C04610BD10B50124E403204609
:1011D000FFF78EFF012809D12046FFF77DFF044865
:1011E000FFF7ACFF02480FC801F084FE10BD0000FD
:1011F000EC00002010B502F0F1FA002010BD10B58F
:10120000C046C04610BD000070B50E4601461546EA
:10121000002409A001F07CFB05E0315D08A001F08D
:1012200077FB641CA4B228466D1EADB20028F4D131
:1012300005A001F06DFB70BD25735B25645D3A0070
:1012400025303278090000000D0A000030B5C406D0
:10125000E40E0123A340134C23608407E50EFF2412
:10126000AC408907090EA94000280BDA0007000FDF
:10127000083885080C48AD002818C569A5430D43FA
:10128000C56107E085080948AD0028180568A54331
:101290000D430560012A02D00548036030BD0448B3
:1012A0008038FAE780E200E000ED00E000E400E0D2
:1012B00080E100E00C225043034A00218018C180E5
:1012C00001814181704700003C1500200C235843E8
:1012D000044B1950C01882800021C18001814181D6
:1012E000704700003C15002070B514460D460646B8
:1012F00000F024F80C20104946437318D888A04207
:1013000017D3D888001BD8800DE05A8988598018D7
:10131000521C5A810078287058899A886D1C904216
:1013200001D1002058812046641EA4B20028ECD1CF
:1013300070BDFF2070BD00003C1500200C2148430B
:101340000C4940184189C2888918828889B28A422A
:1013500002D88288891A89B202898A4209D0018911
:10136000C2889142018901D882888918C288891A65
:10137000418170473C1500200C2148430149401829
:10138000C08870473C15002030B50C220C4C5043EF
:101390000219D3889588AB4210D213892058C018FF
:1013A0005B1C1381017010899188884201D1002053
:1013B0001081D088401CD080002030BDFF2030BD7F
:1013C0003C15002010B5C046C046C046C04610BD02
:1013D000F3B58BB004460025FF2720216846089707
:1013E0000995FEF7C4FE204A012C0CD0022C0AD02D
:1013F000042C08D0062C06D0082C04D00C2C02D0CB
:1014000004200DB0F0BD106A164601214902884340
:101410000C99C907890D084310626B461349A8004F
:1014200009586D1C61431950082DF7D30C2C00D1BD
:10143000019700211D46FF200890880008E0089CC5
:10144000671E08970DD30A4CF4620A4CF4621350DD
:1014500014582B589C42F2D1491C0829EBD3099807
:10146000CFE70720CDE70000000002407038000001
:101470005A5A0000A5A5000010B508490246064BBF
:101480000020CB62064BCB620B6A0C249207A3436D
:10149000120F13430B6210BD5A5A000000000240A5
:1014A000A5A5000070B5FF26C0B0013631466846DC
:1014B000FEF75DFE1E4D1F4CA888688060680028FE
:1014C00034D1642060600120FFF756FFA880002817
:1014D0002CD0B04200D93046A8806988814225D1FD
:1014E000024669460120FFF7FFFE1348206013A162
:1014F0006846FEF747FE6C4604E0401C04460FA118
:10150000FEF740FE0028F8D1012149020C48FEF701
:101510002EFE6846A988201A081A82B22146084879
:10152000FEF70CFE0020E8806880A88040B070BD07
:1015300018000020FC00002030750000244F4B00F4
:10154000DC150020F0B591B0074600251DA13846F6
:10155000FEF718FE040005D11BA13846FEF712FE67
:10156000040026D0E01BC6B240216846FEF7FFFD0E
:10157000402E1ED2324639466846FEF7DFFD2B006C
:1015800001F0D6F90809090909090905150968468C
:101590000078302807D06D1C671CEDB20C2DD5D318
:1015A000002011B0F0BD09480021417001E0062E75
:1015B00001D3FF20F5E76846FEF7CDFE03494870EA
:1015C000EEE700002C0000002A00000018000020B8
:1015D000F8B5002000901C481A4FC0882421381804
:1015E000FEF7E4FD060028D02A21FEF7DFFD050006
:1015F00023D0E91B7478144AC91C0120D1802A78B1
:10160000761C02E04C40401CC0B2315C9142F9D1E2
:10161000687869460870A8784870684601F0DAFF73
:10162000C7B2A7420AD02A46314608A001F070F995
:10163000224639460BA001F06BF9F8BD3046FFF7A2
:1016400081FFF8BDDC15002018000020705F737466
:101650006172743A25732C20705F656E643A25734D
:101660000D0A000067707320636865636B20657204
:10167000726F72212C7265635F636865636B5F7262
:1016800065733A253032782C20636865636B5F722E
:1016900065733A253032780D0A000000F0B59DB030
:1016A000642101A8FEF763FD00200446009036A0E7
:1016B00003C81A901B910120FFF7FCFD08211AA80E
:1016C00001F058F8C82001F00BFD0120FFF754FE8F
:1016D000642800D96420070042D0024601A90120F5
:1016E000FFF702FE2AA101A8FEF74CFD05780124B0
:1016F0000646002829D02A21FEF758FD0146027827
:1017000002E04540641CE4B2305D9042F9D1487873
:101710006A46107088785070684601F05BFFC0B26E
:10172000A84212D12C213046FEF740FD00241A4A6F
:1017300002E01155641CE4B2401C01782C29F8D158
:10174000154916A001F0E4F815E001AA394617A0E2
:1017500001F0DEF81DA101A8FEF714FD00280AD152
:101760000120FFF7A7FD08211AA801F003F8641C67
:10177000E4B20A2CA6D30A2C03D11AA914A001F0B2
:10178000C7F81DB0F0BD0000424B68F8020700002A
:10179000504F4C5253000000CC1500206770735F0F
:1017A0007665723A25730D0A000000003D3D3D3D0F
:1017B0003D3D3D3D3D3D3D3D7665723A2072656360
:1017C0005B25645D3A25730D0A000000244F4B0031
:1017D000636D643A25732067707320636D642073B2
:1017E000656E64206572726F720D0A00F0B59BB071
:1017F000642102A8FEF7BBFC002401211C2000F09C
:1018000073FD424E002070706A4650700121917045
:10181000D0701071507191710B21402000F0BAF816
:101820006A460A21402000F0B5F80B21402000F064
:1018300011F90120FFF73EFD4B27FF000120FFF7C4
:101840009BFD0546014632A001F062F8642D00D9E7
:101850006425002D13D02A4602A90120FFF744FD7C
:1018600002AA29462DA001F053F830A102A8FEF7E4
:1018700089FC002803D02FA001F04AF81AE00B21C0
:10188000402000F075F8C82001F02AFC0B21402010
:1018900000F0E0F80120FFF70DFD384601F020FCD4
:1018A000641CE4B2214627A001F032F800F0F6FFF4
:1018B0000A2CC3D30A2C20D010212448FEF757FC51
:1018C000FFF7ECFE00F0EAFFB06801F027FE00F041
:1018D000E5FF706901F022FE00F0E0FFB06801F062
:1018E0001DFE00F0DBFFF06801F018FE00F0D6FFEF
:1018F000306901F013FE1BB0F0BD0B21402000F059
:1019000037F813A001F004F8F5E7000018000020F4
:1019100072785F6C656E3A25640D0A007265635BD0
:1019200025645D3A25730D0A00000000313636301B
:101930000000000047505320696E6974206F6B0DE2
:101940000A000000693A25640D0A0000CC15002049
:1019500067707320696E6974206973206661696CB1
:101960000D0A00000068C840C007C00F70470000A3
:10197000034B10B50122C01800F000FA002010BD82
:10198000140D0240024A10B58018FFF7EBFF10BD9E
:10199000040D024070B50446214815460E4600224B
:1019A000201800F0EBF9B1001E4A0919002089182F
:1019B00008601B482A78001F3146201800F0DEF925
:1019C00017486A780C383146201800F0D7F91448C7
:1019D000AA7810303146201800F0D0F91048EA7883
:1019E00014303146201800F0C9F90D482A79183012
:1019F0003146201800F0C2F909486A792030314692
:101A0000201800F0BBF9084988680122D2039043EE
:101A1000AA79D207120C10438860002070BD000024
:101A20000C0D0240000C0240000F02408900081813
:101A3000024940180260002070470000000C02407C
:101A4000034B10B50122C01800F098F9002010BD1A
:101A50000C0D0240034B10B50122C01800F08EF9A6
:101A6000002010BD100D024008B500200090002895
:101A7000FDD008BD10B5C046C04610BD10B5C0466B
:101A8000C04610BDF8B5012269460020FFF72CFCC6
:101A90003E4E00253E4C002872D1A078062203005D
:101AA00000F046FF08051B212932404F556E68465D
:101AB0000078AA2864D1FF2101313648FEF757FB90
:101AC0000120A0702581A581E5816570658132487E
:101AD00030607D2000017061F8BD684600785528AF
:101AE0004DD1022031E06846218900780918218112
:101AF0006070032029E06846218900780918218157
:101B00000002A081042020E06946A08909780843EA
:101B1000A081238959182181002801D0052014E0D3
:101B2000A2702DE0684601781A4BE0891954401CD8
:101B300080B2E081238959182181A1898842EFD0A0
:101B40001EE06846007860810720A07018E06846B3
:101B50000078010260890143618122890F48424077
:101B60002281914205D1A2890A49607800F05CF88F
:101B700005E00BA000F0CCFE0020FFF79BFBA5705A
:101B800070690028A8D1A570F8BD0000FC000020F5
:101B900070000020DC17002030750000FFFF0000FF
:101BA000636865636B206572726F722C2072657654
:101BB0005F73756D3A253034782C20636865636BEC
:101BC0005F73756D3A253034780D0A00F0B50F4615
:101BD000C1B00446FF21154601316846FEF7C7FA39
:101BE000AA206E46307055207070B470280AF070CC
:101BF00005243571002F06D02A463946701DFEF7A0
:101C00009DFA6D1DACB2A11E3546B01C01F0ECF87A
:101C10002855641CA1B2000A6854491C89B2684660
:101C200000F07AFD41B0F0BDF0B5A5B00F46044616
:101C30001646802105A8FEF79AFA21461BA000F05F
:101C400067FE204601241C4D0B282DD00C2809D0FE
:101C50000D2827D0FE2803D118A000F059FE6C7182
:101C600025B0F0BD3246394601A8FEF767FA68464E
:101C7000007A019CC10980218E43C109C9010E432C
:101C800040218E434106C90F89010E4331090007E7
:101C90000901000F0143049B039A2046009700F0BE
:101CA00015F8DDE7EC70DBE72C71D9E7636D643A7A
:101CB000253032780D0A000070000020434D445F4B
:101CC00055505F41534B0D0A000000000FB410B592
:101CD0000220FFF761FA0028FAD101206946087650
:101CE0008002FFF7F9F902A8FFF73AFA0220FFF79E
:101CF0005DFA032001F0A4F910BC08BC04B0184739
:101D000010B5C046C04610BD10B5C046C046C0465E
:101D1000C04610BD10B5C046C04610BD10B5C04687
:101D2000C04610BD10B5C046C04610BD10B5C04677
:101D3000C04610BD10B5C046C04610BD10B5C04667
:101D4000C04610BD10B5C046C046C046C04610BD16
:101D500010B5C046C046C046C04610BD10B5C0460E
:101D6000C04610BD10B5C046C046C046C04610BDF6
:101D700010B5C046C046C046C04610BD01238B40CA
:101D80000168012A02D09943016070471943FBE7BB
:101D900010B500F001F810BD704700007CB50F24AD
:101DA0000121204600F0A0FA2146002000F07EFD2F
:101DB00000F08EFD002000F005FA002000F014FA7B
:101DC000FFF77AF80121032000F0C4F8364D7D2199
:101DD000C9002868FEF79CF934490024401E884257
:101DE0000BD83349486133480723C2691202120AEB
:101DF0004E043243C2618C610B6101F0ABF80721E4
:101E0000684601F013F901211C2000F06DFA6946C3
:101E10004C7001208870CC700C714C7188716A46CE
:101E200002210020FFF7B6FD23480470E1204002A4
:101E300000F002FC4B20C00100F09EFB01F0EDFC25
:101E4000FEF793FFFEF774FFFEF7A1FFFFF7CEFC4E
:101E50001A48FEF7B9FF00F021FD1948FFF758F8BE
:101E600000F030FB01210C20FFF7B2FA002802D06D
:101E700014A000F04DFD01F0A7F8194917480860BB
:101E800018A21BA11DA000F043FDFF2102310A464C
:101E90001FA000F03DFD26A0296800F039FD2AA012
:101EA00000F036FD7CBD000000000020FFFFFF00B9
:101EB00000E000E004ED00E08000002090D003008E
:101EC000B80B0000466C6173685F496E69742069E5
:101ED00073206661696C0D0A000000003075000017
:101EE000FC00002031363A35303A31300000000035
:101EF0004D6179203132203230323500636F6D70A0
:101F0000696C652074696D653A257325730D0A0047
:101F1000534F4654564953494F4E3A2530782C205A
:101F20004857564953494F4E3A2530780D0A00001C
:101F300053797374656D436F7265436C6F636B3A6D
:101F400025640D0A0000000073797320696E6974BE
:101F50000D0A0000F3B581B00C46002600F0CCFC61
:101F6000002C00D001243E4D2F6A0198E90303287C
:101F70003AD006DC00280CD0012815D0022804D164
:101F800026E0042845D048285CD004262F6230463D
:101F9000FEBD28684008400020432860002CF5D092
:101FA000E8680005FAD5F1E7286A084328622D4A57
:101FB000D06803210843D06028680221884361006B
:101FC00008432860002CE1D028694006FAD5DDE7F7
:101FD000286804218843A10008432860002CD5D03C
:101FE0006869C004FAD5D1E7286A084328621E4A06
:101FF000D068032189030843D060286808218843FA
:10200000E10008432860002CC0D0A8694006FAD53A
:10201000BCE7286A0121090408432862134A1068B2
:10202000012108431060142001F032F828681021C3
:102030008843210108432860002CA7D0E86B4003A7
:10204000FAD5A3E706484030816982149143220300
:1020500011438161002C99D081690905FAD595E772
:1020600000200040401D0240800D0240002400403E
:1020700010B58AB00024142248496846FEF75EF87D
:102080004648001F006808900020059006900790C1
:10209000434801886A46918341885183818811832E
:1020A000C088D0823E48203000883E49908208682F
:1020B0000006420F3C48130000F03AFC05042A2CAD
:1020C000383B6800C8686A464005928B400D9042D4
:1020D00001D1049C5AE0C8686A464005528B400D05
:1020E000904201D1039C51E0C8686A464005128BBA
:1020F000400D904201D1029C48E0C8686A46400504
:10210000D28A400D904201D1019C3FE0009C3DE00D
:1021100004463BE06846808A4A699205920D9042E7
:10212000684601D1448C31E0048C2FE00124E403A3
:102130002CE0CA6BD243920724D16846808BCA68D0
:102140005205520D904201D104981BE06846408B25
:10215000CA685205520D904201D1039812E06846B8
:10216000008BCA685205520D904201D1029809E0D5
:102170006846C08ACA685205520D904201D1019842
:1021800000E00098CA6BD205140F444308680AB0F7
:102190004005410F2046C84010BD000054380000E3
:1021A000000C10000020004000127A0010B5FFF76C
:1021B0005FFF03490968C904890FC84010BD0000CA
:1021C0000020004010B5044600F096FB054A116857
:1021D0000720000281436007400D01431160002089
:1021E00010BD00000020004010B5044600F084FB44
:1021F000054A11680320C0028143A007C00C0143B7
:102200001160002010BD0000002000401EB500221B
:1022100031490092019202920B886C4623814B88CF
:10222000E3808B88A380C988618083782B49032B46
:1022300007D0C3782A4C63432A4CA34228D90620EE
:102240001EBD2389CC686405640DA34202D1C37806
:10225000022BF4D86B46DB88CC686405640DA3427E
:1022600002D1C378022BEAD86B469B88CC68640500
:10227000640DA34202D1C378032BE0D86B465B8880
:10228000CC686405640DA34202D1C378062BD6D86E
:10229000CB6B03246403A3430478A407640C234397
:1022A000CB63CB6B1C24A34344786407E40E234325
:1022B000CB63CB6BFF24E134A343C4782407E40D44
:1022C0002343CB63CB6B80789B089B008007800FF8
:1022D0000343CB6310461EBD000C100000200040DD
:1022E00000127A00006CDC0210B50A46810603D5A4
:1022F000DF210140044802E001460348001FFFF7C8
:102300003DFD002010BD00002420004010B5054A0E
:102310000146136900200C248907A343090F0B43CE
:10232000136110BD0020004010B5054A0146136935
:10233000002030248907A343890E0B43136110BD8D
:102340000020004070B50446002500F0D5FA06488C
:102350000168E02291436207120E1143016000F010
:1023600013F8284670BD000000200040054A0146D1
:10237000136900209B089B008907890F0B43136199
:10238000704700000020004010B5FFF771FE0149C2
:10239000086010BD0000002010B514484088144C9F
:1023A00080056169800D890A8902014361610F48D6
:1023B00020380089E1684005400DC90AC90201437F
:1023C000E160FFF7E1FF216A206AE2031043206227
:1023D0000848C268084B1A40C2600368B022134321
:1023E0000360036A13430362216210BD200C1000D6
:1023F00000200040401D02404FFF000010B5C046C5
:10240000C04610BD10B5C046C04610BD10B5C04690
:10241000C04610BD10B500F01FF810BD10B5C04685
:10242000C04610BD10B5C046C04610BD10B5C04670
:10243000C04610BD0146012200208A40D143014A16
:10244000516170470058004002490969C140C807FE
:10245000C00F70470058004010B50020FFF7F4FF90
:10246000012812D10020FFF7E5FF0848084B41681A
:10247000491C4160002081005A58002A01D0521E98
:102480005A50401CC0B20A28F5D310BD10000020DD
:10249000FC000020044A0146136800201B0C1B04AA
:1024A0000B4313607047000000580040044A014687
:1024B000536800201B0C1B040B4353607047000043
:1024C0000058004003490020CA6801231A43CA602B
:1024D000704700000058004003490020CA680B15EF
:1024E0001A43CA60704700000058004010B51E49EA
:1024F0000022CB6803242403A3430478A407A40C7C
:102500002343CB60CB684C15A3434478E407A40D68
:102510002343CB60CB688C15A3438478E407E40D98
:102520002343CB60CB687024A343C4786407640E54
:102530002343CB60CB680824A3430479E407240F2A
:102540002343CB60CB680424A3434479E407640F9E
:102550002343CB60CB6880790224C007A343800F5C
:102560000343CB60104610BD0058004010B500F08A
:10257000B9F8C046C04610BD30B587B00546072142
:1025800004A800F053FD01211C20FFF7ADFE00243C
:102590006846447404AA09212046FFF7FBF901228A
:1025A00009210020FFF742FA01216846417404AA7C
:1025B0000A210020FFF7EEF901220A210020FFF78F
:1025C00035FA1021684600F031FD01210020FFF7A7
:1025D0008BFE40216846017044804470CC00039516
:1025E0008480FFF7E3FD650502906946284600F008
:1025F000EFF80021284600F0D1F80021284600F02D
:10260000DBF8012203210620FEF720FE22460549C1
:102610000020FEF75BFEE20003490220FEF756FEB3
:1026200007B030BD3C0100203C05002010B500F093
:1026300087F8C046C04610BD30B587B005460721B3
:1026400004A800F0F3FC01211C20FFF74DFE01213E
:102650006846417404AA03210020FFF79BF9012278
:1026600003210020FFF7E2F900246846447404AA1D
:1026700004212046FFF78EF9022204210020FFF7F3
:10268000D5F901210846FFF72FFE40216846017069
:1026900044804470CC0003958480FFF787FD0D4D86
:1026A00002906946284600F093F80021284600F081
:1026B00075F80021284600F07FF801220321072049
:1026C000FEF7C4FD224604490120FEF7FFFD07B0D6
:1026D00030BD0000000100403C03002010B5C046A2
:1026E000C04610BD10B50124A4070021204600F00B
:1026F0006AF800280CD00021204600F04FF8204650
:1027000000F0A0F80349087001460020FEF73CFEE7
:1027100010BD000010000020F8B5002401270D4670
:102720000646BF0705E0315D384600F08EF8641CB0
:10273000A4B228466D1EADB20028F4D1F8BD000049
:1027400010B50A4C0021204600F03DF800280CD0BE
:102750000021204600F022F8204600F073F80449DA
:10276000487001460120FEF70FFE10BD0001004039
:1027700010000020F8B50D4606460024064F05E07F
:10278000315D384600F061F8641CA4B228466D1E25
:10279000ADB20028F4D1F8BD0001004010B5002210
:1027A0001430FFF7EBFA002010BD10B50122001D18
:1027B000FFF7E4FA002010BD10B50122001DFFF75D
:1027C000DDFA002010BD10B51030FFF7CBF810BDBA
:1027D0007CB505461A480C0003C8019100900FD043
:1027E000002068606088617822780843A1881143DE
:1027F000084368602078402804D0C02802D01DE03B
:1028000004207CBDA0886946400A8000095CE0681D
:102810008840FDF744FE0646A068FDF740FE3146BD
:10282000FDF7FFFD3F210906FDF7A2FDFDF73EFE86
:1028300080B2A86104212846FFF7B7FF00207CBDC5
:10284000683800000068C0B2704770B50D46044695
:1028500003212046FFF7B7FF0028F9D02068000ABF
:1028600000022843206001212046FFF7ACFF00282A
:10287000F9D001212046FFF791FF002070BD10B56F
:10288000C046C046C046C046C046C046C046C04618
:1028900010BD10B5C046C04610BD000002481E2144
:1028A0000160E12101607047800F004000B50346E0
:1028B000084600F015F80549486820229043DA07D9
:1028C000920E10434860002000BD0000800F0040C1
:1028D00002481E210160E12101607047800F004025
:1028E00004494A68000712091201000F02434A60B6
:1028F00070470000800F004003480249816003498F
:10290000816070475A5A000000200040A5A50000D1
:102910000FB410B503A9044B044A029800F02AF83A
:1029200010BC08BC04B0184705350000E4000020C6
:1029300030B47446641E2578641CAB4200D21D4638
:10294000635D5B00E31830BC184700000048704727
:10295000E800002002E008C8121F08C1002AFAD1CE
:1029600070477047002001E001C1121F002AFBD10F
:1029700070470000FFB591B00F460546002606E0FF
:1029800025280AD0149A139990476D1C761C287834
:102990000028F5D1304615B0F0BD00240094012187
:1029A000F34A029400E004436D1C2B780846203B58
:1029B00098401042F7D128782A280ED00221287892
:1029C0000246303A092A15D8009A0A235A43303A67
:1029D00080180C436D1C0090F1E701CF0090002897
:1029E00005DA012040030443009840420090022091
:1029F00004436D1C28782E2815D1042004436878E0
:102A00006D1C2A280AD101CF6D1C02900BE002999F
:102A10000A225143303940186D1C02902878014633
:102A200030390929F3D928786C2810D006DC4C28D5
:102A30001AD068280ED06A2817D104E0742813D061
:102A40007A2812D110E00120400504430CE0012156
:102A5000090501E0032109050C436978814203D18E
:102A60000120000524186D1C6D1C287803906E2829
:102A70001ED00CDC632831D004DC00288AD0582812
:102A800011D1B2E064287BD069280CD178E073289A
:102A90002DD004DC6F2870D0702804D1A7E07528F1
:102AA0006CD078286BD0149A13999047761C62E00A
:102AB0006002400F022807D003280AD00428386893
:102AC0000AD006603F1D56E03868F1170660416085
:102AD000F8E738680680F5E70670F3E73878694666
:102AE00008740020487404A80390012003E03868AB
:102AF00003900020C0433F1D61070FD5002101E076
:102B00000199491C029A0191914213DA8142F7DB43
:102B1000019A0399895C0029F2D10BE0002101E0C0
:102B20000199491C01918142FADB019A0399895C60
:102B30000029F5D101990098139A401A0090214676
:102B4000149B00F03BF901998019461807E003989F
:102B500003990078491C0391149A1399904701989E
:102B6000401E0190401CF2D12146149B139A0098FC
:102B700000F014F986196D1C09E741E033E034E0F8
:102B80000A200021049005916002410F022905D01E
:102B900001CFC2179446032905D007E0FF1DFF08A7
:102BA000FF0003CF06E000B2C2179446042902D109
:102BB00040B2C1178C4600226146944506DA0A46A7
:102BC0000021404291418C462D2102E0210504D58F
:102BD0002B216A461176012103E0E10701D0202173
:102BE000F7E7019154E00A200BE0102009E01020E3
:102BF000049000210420044308200591029003E082
:102C000008200021059104906002410F022905D09F
:102C100001CF00229446032906D006E0FF1DFF08DD
:102C2000FF0003CF8C4603E080B2042900D1C0B27C
:102C30000021019121072BD50399702906D0049A10
:102C40001021059B4A401A4305D00EE040216A46F8
:102C50001176012108E06146014306D030216A4621
:102C600011760399517602210191049A0821059B5E
:102C70004A401A430CD16146014301D1610707D58F
:102C800030216A461176012101910299491E029173
:102C90000399582904D037A103910FA90F910DE092
:102CA00039A1F9E76146059B049AFDF713FC039BE4
:102CB0008C469B5C0F9A521E0F9213706146014323
:102CC000F0D10F9807A9081A20300390600704D5A7
:102CD000012000048443029801E00120029003993E
:102CE000884201DD401A00E000204118029001985E
:102CF00009180098401A0090E00306D42146149B5E
:102D0000139A009800F05AF886190020049008E001
:102D100006A9085C149A139990470498401C761CE5
:102D2000049001998842F3DBE0030CD52146149B03
:102D3000139A009800F042F8861904E0149A3020A3
:102D400013999047761C0299481E02900029F5DCE1
:102D500008E00F980F990078491C0F91149A139965
:102D60009047761C0399481E03900029F1DCFBE68E
:102D70000928010030313233343536373839616251
:102D80006364656600000000303132333435363715
:102D9000383941424344454600000000F8B5044636
:102DA00000251E461746880404D405E03946202035
:102DB000B0476D1C641EF9D52846F8BDFFB5044622
:102DC000002581B01E46C80301D5302700E020272A
:102DD000880404D505E038460399B0476D1C641E8D
:102DE000F9D5284605B0F0BD034610B500200246CF
:102DF00003E09C5C201880B2521C8A42F9D301493E
:102E0000484010BDFFFF0000034610B500200246F9
:102E100004E09C5C2018521CC0B2D2B28A42F8D3A3
:102E200010BD0000FFB581B004460E460090174665
:102E3000214618A0FFF76CFD68464078232821D072
:102E400024281DD1174D21462A7817A0FFF760FDD1
:102E50002878002814D1012028701B492046049BA3
:102E6000CB60C1C12A460021103A51717D21174C17
:102E7000090121623A46314600F0A6F9C820606295
:102E800005B0F0BD3A4631462046049B00F05AFC9E
:102E9000F6E7000063616E5F69643A253038780DAB
:102EA0000A000000800000206361745F63616E5F50
:102EB00069643A253038782C206466745F737461D5
:102EC00074653A25640D0A00DC180020FC0000201F
:102ED0001FB504460648C07C002807D0684600F0AD
:102EE00021F8002C02D068460FC8A0471FBD000083
:102EF0002401002070B50A4DEC7C2E7CB44201D236
:102F0000641CEC746C7C240164190FC4687C401C44
:102F1000C0B26874297C884201D10020687470BDF9
:102F20002401002030B50A4AD17C00290FD0491E67
:102F3000D174917C090189183AC93AC0907C401C2F
:102F4000C0B29074117C884201D10020907430BDD1
:102F5000240100201CB501211C20FFF7C5F9002029
:102F60006946487001248C70C870087148718C7172
:102F70006A460F214020FEF70DFD6A460E214020D3
:102F8000FEF708FD6A460D214020FEF703FD6A4664
:102F900005210020FEF7FEFC0E214020FEF7E8FC94
:102FA0000D214020FEF7E4FC0F214020FEF7E0FC5D
:102FB00005210020FEF74EFD69464C706A46062149
:102FC0000020FEF7E7FC1CBD10B50D214020FEF7E8
:102FD000CFFCFF24F534204600F082F80D2140207C
:102FE000FEF738FD204600F07BF80F214020FEF769
:102FF000BFFC204600F074F80F214020FEF72AFDA8
:10300000054800F06DF80F214020FEF7B1FC03A049
:10301000FFF77EFC10BD0000B80B00006361743147
:1030200020706F776572206F6B0D0A00002805D045
:103030000022491E02D30270401CFAE770470000CC
:10304000F8B504460F4D0E4868610026AE610520B4
:1030500028610D48012700683F06009008E0AE6136
:103060000A490098FDF754F8381AA9698142FCD83A
:10307000641EF4D22869400840002861F8BD0000B1
:10308000FFFFFF0000E000E000000020102700002C
:10309000F8B504460F4D0E4868610026AE61052064
:1030A00028610D48012700683F06009008E0AE61E6
:1030B0000A490098FDF72CF8381AA9698142FCD812
:1030C000641EF4D22869400840002861F8BD000061
:1030D000FFFFFF0000E000E000000020A0860100EC
:1030E000F8B504460F4D0E4868610026AE61052014
:1030F00028610D48012700683F06009009E0AE6195
:103100007D21C9000098FDF703F8381AA9698142AA
:10311000FCD8641EF3D22869400840002861F8BD3D
:10312000FFFFFF0000E000E0000000200CB50021E0
:103130006A4600919180009905E000BF00BF00BF82
:1031400000BF491C00918142F7D30CBD10B586B079
:1031500004462320694608704C70200A8870C8789D
:10316000E3210840FD211830084040084000C00617
:10317000C00E6946C870142101A8FCF7F8FF00983A
:103180000190029880210009000108300843402185
:103190008843029079204002211A03A80DD001290A
:1031A00009D108220749FCF7C9FF059801AC009036
:1031B0000FCCFEF78BFD06B010BD0249082208397E
:1031C000F1E70000D41500203FB58DB0AA206D4670
:1031D0002870552068700C20A8700024EC70102016
:1031E000287110220DA9681DFCF7A8FF1321A81C47
:1031F000FFF7FAFD69464875000A887517252A46C3
:1032000005A0FEF701F80848294644716846FFF713
:1032100083FA11B030BD0000494F545F55415254FC
:103220005F53454E4400000070000020094A002111
:103230000B01D35A834203D0491CC9B20629F7D3E4
:10324000062904D00348001F417000207047012068
:10325000704700008400002038B500240D48009419
:1032600001686A46090E11700168090C5170016805
:10327000090A91700068D07007A0FFF749FB0C485D
:10328000694602792038408C00F01CFA084824383E
:10329000047038BD080000206466745F6765745F61
:1032A0006261636B6261745F766F6C0D0A0000008F
:1032B000A400002038B500240D48009401686A4637
:1032C000090E11700168090C51700168090A9170AA
:1032D0000068D07007A0FFF71BFB0C486946027D11
:1032E0002038408E00F0EEF908482438047038BDCC
:1032F0000C0000206466745F6765745F6261745FD0
:1033000074656D705F6164630D0A0000A4000020A5
:1033100038B500240D48009401686A46090E117002
:103320000168090C51700168090A91700068D07039
:1033300007A0FFF7EDFA0C486946027D408A00F0CD
:10334000C1F90948001F047038BD000004000020C6
:103350006466745F6765745F7379735F706F7765B8
:10336000725F766F6C0D0A008400002070B5104803
:10337000104E81690024351D0F4800290FD00178B7
:1033800000290BD00DA0FFF7C3FA34702A796888A2
:10339000094900F097F928461438C48070BD0470BC
:1033A00034702A796888044900F08CF970BD0000F7
:1033B000FC0000208000002019000020737461725E
:1033C0005F6E756D3A25640D0A000000F8B50120A6
:1033D00069462D4F2D4E08703446B8690025103CC3
:1033E000002801D125703570207800280BD027499E
:1033F000254A10390979D269012812D002281BD038
:1034000003282DD124E022A0FFF782FA00222571A3
:1034100011460B20FEF7DAFBFF20F530F8610120A2
:1034200008E0002A02D0012903D019E02570357088
:1034300019E00220207013E01AA0FFF769FA0521B5
:103440000020FEF707FBFF202D30F8610320F1E795
:10345000002AEBD006210020FEF794FA01280AD0BA
:103460003078002806D109486946443002794088FE
:1034700000F028F9F8BD05210020FEF779FA357033
:10348000257068460570EEE7FC00002080000020F3
:103490006D63755F636174315F636F6E5F677069E1
:1034A0006F0D0A00675F636F6E5F636174315F6702
:1034B00070696F5F666C61673A25640D0A000000F1
:1034C00008B501210020FEF75DFA6946087007A0E3
:1034D000FFF71EFA0A486946027D408A00F0F2F8BA
:1034E000074900204439087008BD00006466745F15
:1034F0007379735F706F7765725F6465740D0A002E
:10350000C400002010B50446C0B2FDF773FE0028C9
:1035100002D00020C04310BD204610BD70B59AB047
:10352000064664216846FCF722FE00240120FDF7D0
:10353000C1FE3046FCF744FE81B23046FFF71AF96F
:10354000C820FFF7CDFD0120FDF716FF642800D944
:10355000642005000FD0024669460120FDF7C4FE35
:103560006A4629460FA0FFF7D3F912A16846FCF777
:1035700009FE00280DD10120FDF79CFE3046FCF726
:103580001FFE81B23046FFF7F5F8641CE4B20A2C46
:10359000D6D30A2C03D1314607A0FFF7B9F91AB0E8
:1035A00070BD00007265635B25645D3A25730D0A8A
:1035B00000000000244F4B00636D643A25732067C0
:1035C000707320636D642073656E64206572726F22
:1035D000720D0A0008B56A4602A1FCF7F9FD0098D1
:1035E00008BD000025780000FEF7D8FB284D294CC7
:1035F000206900281BD17D20000120611020FDF7EB
:1036000025FB012813D11020FDF718FB0020FDF742
:1036100027FB214908600120FDF722FB1F490860B4
:103620000220FDF71DFB1E490860FDF74BFBFEF76E
:1036300029FA1C48FFF74CFCFDF734FFFDF7C8FFE3
:103640002878022802D0012807D01DE068781649A2
:1036500000014018C068804716E0206A002807D0A3
:1036600012480078012803D0606A002803D00BE0DC
:103670000020287008E00EA0FFF74AF910480FC894
:10368000FFF7A2FDC8206062FFF708F9B0E700006D
:1036900080000020FC000020040000200800002022
:1036A0000C000020252E0000840000207500002062
:1036B0006466745F636174315F73656E640D0A00E4
:1036C000DC18002070B586B00E46044623206946FB
:1036D0000870C878E3210840FD21183008404008F0
:1036E0004000C006C00E6946C8702220487088702D
:1036F0001546142101A8FCF73AFD02988021000923
:10370000000108300843402188430290009801904E
:10371000200A694608734C738D7303A82A46314604
:103720000330FCF70BFD072103A8FFF76DFB69468B
:10373000C8740598009001A80FC8FEF7C7FA06B034
:1037400070BD00003FB581B0019800906846407898
:10375000232812D1694688784978000208430F214E
:103760000903884209D268468078212807D0EA28D0
:1037700003D168468089FFF7E9FC05B030BD072119
:1037800003A8FFF741FB6946C97C8142F5D1684631
:10379000808944BA21460BA0FFF7BAF80D4D2A786C
:1037A000002AEAD12046FFF741FD0028E5D102209A
:1037B00028706878291D00014018074980688861D1
:1037C000DBE70000636D645F696E6465783A2530FD
:1037D000780D0A0080000020FC000020F8B50024CD
:1037E0000746012608E0002C06D0092C09D0601EEF
:1037F000354685403D4204D102210020FEF7B8F84D
:1038000003E002210020FEF725F90120FFF718FC54
:10381000641CE4B20A2CE6D3F8BD1CB501211C20BF
:10382000FEF762FD00206946487001248C70C87064
:10383000087148718C716A460146FEF7ABF869461B
:10384000CC704C706A4601210020FEF7A3F81CBD25
:103850000080009600093D0000127A000024F40068
:103860004086510100366E01040000000300000094
:1038700020000000170000001B0000005046000060
:10388000E022020018000000F0000000E803000041
:103890000040404040404040404041414141414063
:1038A0004040404040404040404040404040404018
:1038B00040050202020202020202020202020202A7
:1038C00002202020202020202020200202020202AC
:1038D0000202909090909090101010101010101004
:1038E0001010101010101010101010100202020210
:1038F0000202888888888888080808080808080854
:10390000080808080808080808080808020202024F
:10391000400000009138000024504F4C4346474D72
:1039200053472C302C302C300D0A000024504F4CC3
:103930004346474D53472C312C300D0A0000000000
:1039400024504F4C4346474D53472C302C31332C99
:10395000300D0A0024504F4C4346474D53472C30FE
:103960002C352C300D0A000024504F4C4346474D57
:1039700053472C302C302C310D0A000024504F4C72
:103980004346474D53472C312C310D0A00000000AF
:1039900024504F4C4346474D53472C302C31332C49
:1039A000310D0A0024504F4C4346474D53472C30AD
:1039B0002C352C310D0A000024504F4C4346475300
:1039C0004156450D0A000000E839000000000020C3
:1039D000EC00000054290000D43A0000EC00002064
:1039E000041A00006429000020000000000000000C
:1039F00000000000000000000000000000000000C7
:103A000000000000000000002C39000068390000B0
:103A1000B83900007C39000018390000A4390000D2
:103A2000543900009039000040390000424B5105E4
:103A3000000300080000000000000000424B0C4A98
:103A4000020500080000000100000000424B49C4CC
:103A5000020C00040000FFFF000000000000000056
:103A60000000000000000000000000000000000056
:103A700001000000E80300006D33000001000100B8
:103A800004000000B80B0000113300000200020027
:103A900004000000B80B00005932000003000300CE
:103AA00004000000B80B0000B53200000400040060
:103AB00001000000B80B0000CD3300000500050038
:103AC00001000000B80B0000C1340000000000003D
:043AD00000000000F2
:04000005000000C136
:00000001FF
