:020000040000FA
:1000000008020020D5000000EF000000B504000049
:1000100000000000000000000000000000000000E0
:10002000000000000000000000000000F3000000DD
:100030000000000000000000F50000006105000065
:10004000050500000D050000150500002105000054
:100050007F030000DD0A0000FD0A0000090B00001C
:10006000E5040000ED040000350500004105000036
:10007000C1040000C9040000C50A0000CD0A000048
:10008000D50A0000D9040000E50A0000ED0A0000CE
:10009000F50A0000F5040000310B00002D050000FA
:1000A00093010000FD0400001D0B0000150B000073
:1000B0006B030000D10400008703000073030000FD
:1000C0000348854600F04CF80048004785010000D1
:1000D0000802002009480A4A002100A1814200D9F3
:1000E0000244084802600848804708480047FEE785
:1000F000FEE7FEE7FEE7FEE7FEE700000000002067
:100100000000000008ED00E0610A0000C1000000EE
:1001100030B50B46014600202022012409E00D469F
:10012000D5409D4205D31D469540491B2546954027
:1001300040191546521E002DF1DC30BD03460B431D
:100140009B0703D009E008C9121F08C0042AFAD28D
:1001500003E00B780370401C491C521EF9D2704713
:10016000064C0125064E05E0E36807CC2B430C3C0A
:1001700098471034B442F7D3FFF7A6FFC80C00002D
:10018000E80C000010B500F06BFC00F057FD0020FB
:1001900010BD10B5C046C046C046C04610BD10B523
:1001A000002000F00DFB002000F01CFB10BD1CB572
:1001B00001211C2000F096FB0120694648708870E0
:1001C000C87000240C714C716A460C21802000F02C
:1001D00005F900F0BDFC69464C708C70CC700C7158
:1001E0004C716A460121002000F0F8F80622012136
:1001F000002000F03FF90021012000F045F91CBD6E
:1002000008B5112000F0B0FB022000F09DFB012199
:10021000022000F0A9F9022000F0E2FB042000F027
:1002200073FB0121002000F09FF90020694608704F
:1002300004204870032088700C20C870684600F0C5
:10024000E3FA012000F0A6F80121042000F08CF967
:10025000042000F0C5FB08BD08B5002000F096FBA7
:10026000012000F0D1FB032000F09EFB0121084695
:1002700000F07AF90A2000F0BBFC01206946087002
:1002800004204870002088700620C870684600F07E
:10029000BBFA012000F07EF80121042000F064F98F
:1002A000042000F09DFB08BD10B50446112000F0AD
:1002B0005BFB022000F048FB0121022000F054F912
:1002C000022000F08DFB204600F01EFB01210020E3
:1002D00000F04AF9002000F083FB002000F05AF8FB
:1002E00010BD10B500F040FB022000F02DFB0121F5
:1002F000022000F039F9022000F072FB002000F02B
:1003000049F810BD10B50446032802D1012000F0C1
:1003100041F8204600F03AFB012000F075FB032075
:1003200000F042FB0121084600F01EF90A2000F00F
:100330005FFC012000F054FB032C02D0002000F0F1
:1003400029F810BD10B50321084600F06BFB03200F
:1003500000F038FB0121032000F006F9032000F033
:100360003FFB002000F016F810BD10B5C046C04697
:1003700010BD10B5C046C046C046C04610BD10B541
:10038000C046C04610BD10B5C046C046C046C046B7
:1003900010BD000010B508490246064B0020CB6294
:1003A000064BCB620B6A0C249207A343120F134334
:1003B0000B6210BD5A5A000000000240A5A50000C3
:1003C0000068C840C007C00F70470000024A10B55F
:1003D0008018FFF7F5FF10BD040D024070B504460C
:1003E000214815460E460022201800F0AFF8B10053
:1003F0001E4A09190020891808601B482A78001F26
:100400003146201800F0A2F817486A780C383146B7
:10041000201800F09BF81448AA78103031462018B4
:1004200000F094F81048EA7814303146201800F0B3
:100430008DF80D482A7918303146201800F086F8DA
:1004400009486A7920303146201800F07FF80849C1
:1004500088680122D2039043AA79D207120C104374
:100460008860002070BD00000C0D0240000C0240AE
:10047000000F02408900081802494018026000205D
:1004800070470000000C024010B5094A536801246F
:100490006403C007A343800C0343536050680323E5
:1004A0009B0289079843090D08435060002010BD46
:1004B000000F024008B5002000900028FDD008BDC4
:1004C00010B5C046C04610BD10B5C046C04610BDF0
:1004D00010B5C046C04610BD10B5C046C046C046A7
:1004E000C04610BD10B5C046C04610BD10B5C046D0
:1004F000C04610BD10B5C046C04610BD10B5C046C0
:10050000C04610BD10B5C046C04610BD10B5C046AF
:10051000C04610BD10B5C046C046C046C04610BD5E
:1005200010B5C046C046C046C04610BD10B5C04656
:10053000C04610BD10B5C046C046C046C04610BD3E
:1005400010B5C046C046C046C04610BD01238B4012
:100550000168012A02D09943016070471943FBE703
:1005600010B5C046C04610BDF3B581B00C4600269C
:1005700000F0E2FA002C00D001243E4D2F6A0198D1
:10058000E90303283AD006DC00280CD0012815D056
:10059000022804D126E0042845D048285CD004264F
:1005A0002F623046FEBD2868400840002043286086
:1005B000002CF5D0E8680005FAD5F1E7286A084371
:1005C00028622D4AD06803210843D06028680221A0
:1005D0008843610008432860002CE1D02869400668
:1005E000FAD5DDE7286804218843A1000843286084
:1005F000002CD5D06869C004FAD5D1E7286A084331
:1006000028621E4AD068032189030843D060286805
:1006100008218843E10008432860002CC0D0A86965
:100620004006FAD5BCE7286A01210904084328627C
:10063000134A1068012108431060142000F0B0FA3A
:10064000286810218843210108432860002CA7D086
:10065000E86B4003FAD5A3E706484030816982146D
:100660009143220311438161002C99D081690905CE
:10067000FAD595E700200040401D0240800D024061
:100680000024004010B58AB000241422484968466E
:10069000FFF754FD4648001F0068089000200590B1
:1006A00006900790434801886A46918341885183A8
:1006B00081881183C088D0823E48203000883E491E
:1006C000908208680006420F3C48130000F04CFA84
:1006D00005042A2C383B6800C8686A464005928B9E
:1006E000400D904201D1049C5AE0C8686A4640051A
:1006F000528B400D904201D1039C51E0C8686A467C
:100700004005128B400D904201D1029C48E0C86820
:100710006A464005D28A400D904201D1019C3FE0DB
:10072000009C3DE004463BE06846808A4A699205A9
:10073000920D9042684601D1448C31E0048C2FE048
:100740000124E4032CE0CA6BD243920724D168460B
:10075000808BCA685205520D904201D104981BE06B
:100760006846408BCA685205520D904201D10398E9
:1007700012E06846008BCA685205520D904201D1C2
:10078000029809E06846C08ACA685205520D904234
:1007900001D1019800E00098CA6BD205140F4443C0
:1007A00008680AB04005410F2046C84010BD00004F
:1007B000B40C0000000C10000020004000127A0071
:1007C00010B5044600F0B8F9054A11680720000288
:1007D00081436007400D01431160002010BD0000FF
:1007E0000020004010B5044600F0A6F9054A116843
:1007F0000320C0028143A007C00C01431160002008
:1008000010BD0000002000401EB5002231490092BA
:10081000019202920B886C4623814B88E3808B887F
:10082000A380C988618083782B49032B07D0C378C4
:100830002A4C63432A4CA34228D906201EBD238993
:10084000CC686405640DA34202D1C378022BF4D8AE
:100850006B46DB88CC686405640DA34202D1C37883
:10086000022BEAD86B469B88CC686405640DA342D2
:1008700002D1C378032BE0D86B465B88CC68640553
:10088000640DA34202D1C378062BD6D8CB6B0324C8
:100890006403A3430478A407640C2343CB63CB6BAA
:1008A0001C24A34344786407E40E2343CB63CB6B3F
:1008B000FF24E134A343C4782407E40D2343CB632E
:1008C000CB6B80789B089B008007800F0343CB6332
:1008D00010461EBD000C10000020004000127A00DF
:1008E000006CDC0210B50A46810603D5DF21014009
:1008F000044802E001460348001FFFF727FE0020DE
:1009000010BD0000242000400D4948280BD04000B5
:10091000401800880B494005CA68400DD20AD2022F
:100920000243CA6009E0488906498005800D4031CC
:100930008A69920A920202438A610020704700008D
:10094000000C10000020004010B5064A0146536913
:1009500000200324A4028907A343090D0B4353611C
:1009600010BD0000002000400649400040180088EB
:10097000054980054A69800D920A920202434A6144
:1009800000207047000C10000020004010B5054A00
:100990000146136900200C248907A343090F0B4368
:1009A000136110BD0020004010B5054A01461369CF
:1009B000002030248907A343890E0B43136110BD27
:1009C0000020004010B5054A0146936900203024FC
:1009D0008907A343890E0B43936110BD002000409B
:1009E00070B50446002500F0A7F806480168E0222B
:1009F00091436207120E1143016000F029F8284666
:100A000070BD000000200040054A01461369002027
:100A10009B089B008907890F0B43136170470000F7
:100A20000020004030B5094A0346946900200C2597
:100A30009B07AC431B0F1C439461936989079B0878
:100A40009B00890F0B43936130BD000000200040E4
:100A500010B5FFF717FE0149086010BD0000002027
:100A600010B514484088144C80056169800D890ACE
:100A70008902014361610F4820380089E16840051F
:100A8000400DC90AC9020143E160FFF7E1FF216A95
:100A9000206AE203104320620848C268084B1A40EB
:100AA000C2600368B02213430360036A1343036206
:100AB000216210BD200C100000200040401D0240AB
:100AC0004FFF000010B5C046C04610BD10B5C0466F
:100AD000C04610BD10B5C046C04610BD10B5C046DA
:100AE000C04610BD10B5C046C04610BD10B5C046CA
:100AF000C04610BD10B5C046C04610BD10B5C046BA
:100B0000C046C046C04610BD10B5C046C046C0462F
:100B1000C04610BD10B5C046C04610BD10B5C04699
:100B2000C046C046C046C046C046C046C04610BDCE
:100B300010B5C046C04610BD034802498160034954
:100B4000816070475A5A000000200040A5A50000AF
:100B500010B50C218020FFF739FC0128F9D0FF20C7
:100B6000F53000F045F810BD30B47446641E2578A9
:100B7000641CAB4200D21D46635D5B00E31830BCD1
:100B8000184702E008C8121F08C1002AFAD17047AE
:100B90007047002001E001C1121F002AFBD17047FD
:100BA000F8B504460F4D0E4868610026AE61052079
:100BB00028610D48012700683F06009008E0AE61FB
:100BC0000A490098FFF7A4FA381AA9698142FCD8AB
:100BD000641EF4D22869400840002861F8BD000076
:100BE000FFFFFF0000E000E000000020A086010001
:100BF000F8B504460F4D0E4868610026AE61052029
:100C000028610D48012700683F06009009E0AE61A9
:100C10007D21C9000098FFF77BFA381AA969814243
:100C2000FCD8641EF3D22869400840002861F8BD52
:100C3000FFFFFF0000E000E000000020FFF7B7FA30
:100C4000FFF7ADFAFFF784FF0320FFF72DFBFFF757
:100C50007FFF0220FFF728FBFFF77AFF0120FFF755
:100C600023FBFFF775FF0020FFF71EFBFFF770FF68
:100C70001120FFF736FBFFF76BFF1020FFF731FB6A
:100C8000FFF766FF0020FFF73DFBFFF761FFFFF76F
:100C9000E3FAFFF75DFFFFF755FBFFF759FFFFF79B
:100CA000AFFAFFF755FF0420FFF7FEFAFEE700005A
:100CB0000080009600093D0000127A000024F40034
:100CC0004086510100366E01E80C00000000002053
:100CD00004000000820B0000EC0C00000400002067
:0C0CE00004020000920B000000093D001F
:04000005000000C136
:00000001FF
