:020000040000FA
:1000000008020020D5000000EF0000002D030000D2
:1000100000000000000000000000000000000000E0
:10002000000000000000000000000000F3000000DD
:100030000000000000000000F5000000D9030000EF
:100040007D030000850300008D030000990300007C
:1000500003020000CD050000250700003107000065
:100060005D03000065030000AD030000B90300005C
:100070003903000041030000B5050000BD05000084
:10008000C505000051030000D5050000DD05000096
:10009000E50500006D03000059070000A5030000FE
:1000A0006701000075030000450700003D070000E0
:1000B000EF0100004903000075020000F701000095
:1000C0000348854600F036F8004800475901000013
:1000D0000802002009480A4A002100A1814200D9F3
:1000E0000244084802600848804708480047FEE785
:1000F000FEE7FEE7FEE7FEE7FEE700000000002067
:100100000000000008ED00E051050000C100000003
:1001100003460B439B0703D009E008C9121F08C020
:10012000042AFAD203E00B780370401C491C521ECB
:10013000F9D27047064C0125064E05E0E36807CC6E
:100140002B430C3C98471034B442F7D3FFF7BCFF65
:10015000D8070000F807000010B500F0F9F900F02A
:1001600025FB002010BD10B5C046C046C046C046A5
:1001700010BD1CB50721684600F00EFB01211C20B4
:1001800000F0CCF900206946487001206A4603213E
:10019000000300F075F81CBD1CB504460721684635
:1001A00000F0FAFA01210B2000F0B8F900216846AE
:1001B000017041710422C27001228271017181704B
:1001C000417000F06FFA01200004041BA0B200F09F
:1001D0003DFAA0B200F046FA002000F007FA00F065
:1001E00057FA01220321052000F010F81CBD10B5BC
:1001F000C046C04610BD10B5C046C046C046C04649
:1002000010BD10B5C046C04610BD000030B5C406D4
:10021000E40E0123A340134C23608407E50EFF2462
:10022000AC408907090EA94000280BDA0007000F2F
:10023000083885080C48AD002818C569A5430D434A
:10024000C56107E085080948AD0028180568A54381
:100250000D430560012A02D00548036030BD044803
:100260008038FAE780E200E000ED00E000E400E022
:1002700080E100E010B5C046C046C046C04610BD93
:1002800070B50446214815460E460022201800F09D
:1002900099F8B1001E4A09190020891808601B4806
:1002A0002A78001F3146201800F08CF817486A7829
:1002B0000C383146201800F085F81448AA78103020
:1002C0003146201800F07EF81048EA7814303146A4
:1002D000201800F077F80D482A7918303146201898
:1002E00000F070F809486A7920303146201800F093
:1002F00069F8084988680122D2039043AA79D20795
:10030000120C10438860002070BD00000C0D0240EC
:10031000000C0240000F0240034B10B5C01800F063
:1003200051F8002010BD0000080D024008B5002063
:1003300000900028FDD008BD10B5C046C04610BDD5
:1003400010B5C046C04610BD10B5C046C04610BD71
:1003500010B5C046C046C046C04610BD10B5C04628
:10036000C04610BD10B5C046C04610BD10B5C04651
:10037000C04610BD10B5C046C04610BD10B5C04641
:10038000C04610BD10B5C046C04610BD10B5C04631
:10039000C046C046C04610BD10B5C046C046C046A7
:1003A000C04610BD10B5C046C04610BD10B5C04611
:1003B000C046C046C04610BD10B5C046C046C04687
:1003C000C04610BD01238B400168012A02D0994329
:1003D000016070471943FBE710B5C046C04610BD29
:1003E00010B58AB00024142248496846FFF790FEF1
:1003F0004648001F0068089000200590069007906E
:10040000434801886A4691834188518381881183DA
:10041000C088D0823E48203000883E4990820868DB
:100420000006420F3C48130000F09AF905042A2CFC
:10043000383B6800C8686A464005928B400D904280
:1004400001D1049C5AE0C8686A464005528B400DB1
:10045000904201D1039C51E0C8686A464005128B66
:10046000400D904201D1029C48E0C8686A464005B0
:10047000D28A400D904201D1019C3FE0009C3DE0BA
:1004800004463BE06846808A4A699205920D904294
:10049000684601D1448C31E0048C2FE00124E40350
:1004A0002CE0CA6BD243920724D16846808BCA687D
:1004B0005205520D904201D104981BE06846408BD2
:1004C000CA685205520D904201D1039812E0684665
:1004D000008BCA685205520D904201D1029809E082
:1004E0006846C08ACA685205520D904201D10198EF
:1004F00000E00098CA6BD205140F444308680AB0A4
:100500004005410F2046C84010BD0000C407000050
:10051000000C10000020004000127A0010B50A46BE
:10052000810603D5DF210140044802E0014603486B
:10053000001FFFF747FF002010BD000024200040EF
:1005400010B5FFF74DFF0149086010BD0000002005
:1005500010B514484088144C80056169800D890AE3
:100560008902014361610F4820380089E168400534
:10057000400DC90AC9020143E160FFF7E1FF216AAA
:10058000206AE203104320620848C268084B1A4000
:10059000C2600368B02213430360036A134303621B
:1005A000216210BD200C100000200040401D0240C0
:1005B0004FFF000010B5C046C04610BD10B5C04684
:1005C000C04610BD10B5C046C04610BD10B500F005
:1005D0001FF810BD10B5C046C04610BD10B5C046CE
:1005E000C04610BD10B5C046C04610BD0146012230
:1005F00000208A40D143014A5161704700580040B1
:1006000002490969C140C807C00F7047005800403F
:1006100010B50020FFF7F4FF01280DD10A4C0003AC
:100620002178002909D000220321FFF775FE002060
:1006300020700020FFF7DAFF10BD01220321FFF731
:100640006BFE2078401CF3E704000020044A0146BA
:10065000136800201B0C1B040B4313607047000041
:1006600000580040044A0146536800201B0C1B043C
:100670000B435360704700000058004003490020BE
:10068000CA6801231A43CA6070470000005800403E
:1006900003490020CA680B151A43CA60704700005E
:1006A0000058004010B51E490022CB6803242403E3
:1006B000A3430478A407A40C2343CB60CB684C1558
:1006C000A3434478E407A40D2343CB60CB688C1587
:1006D000A3438478E407E40D2343CB60CB68702404
:1006E000A343C4786407640E2343CB60CB6808241B
:1006F000A3430479E407240F2343CB60CB6804248D
:10070000A3434479E407640F2343CB60CB6880792B
:100710000224C007A343800F0343CB60104610BDE3
:100720000058004010B5C046C046C046C04610BD87
:1007300010B5C046C046C046C04610BD10B5C04644
:10074000C04610BD10B5C046C046C046C046C046F3
:10075000C046C046C04610BD10B5C046C04610BD1C
:1007600030B47446641E2578641CAB4200D21D462A
:10077000635D5B00E31830BC184702E008C8121F35
:1007800008C1002AFAD170477047002001E001C17A
:10079000121F002AFBD17047002805D00022491EF5
:1007A00002D30270401CFAE770470000FFF7E1FC3B
:1007B0000248FFF7F1FCFFF761FFFEE7A8610000C8
:1007C0000080009600093D0000127A000024F40029
:1007D0004086510100366E01F8070000000000203D
:1007E000080000007A070000000800000800002050
:1007F000000200008A070000200000000000000046
:04000005000000C136
:00000001FF
