:020000040000FA
:1000000018020020D5000000EF0000006505000088
:1000100000000000000000000000000000000000E0
:10002000000000000000000000000000F3000000DD
:100030000000000000000000F500000011060000B4
:10004000B5050000BD050000C5050000D105000094
:10005000D504000005080000250800003108000054
:10006000950500009D050000E5050000F105000074
:100070007105000079050000ED070000F50700009C
:10008000FD070000890500000D08000015080000AC
:100090001D080000A505000059080000DD0500004E
:1000A00093010000AD050000450800003D08000078
:1000B000C10400008105000045050000C9040000DE
:1000C0000348854600F04CF80048004785010000D1
:1000D0001802002009480A4A002100A1814200D9E3
:1000E0000244084802600848804708480047FEE785
:1000F000FEE7FEE7FEE7FEE7FEE700000000002067
:100100000000000008ED00E089070000C1000000C9
:1001100030B50B46014600202022012409E00D469F
:10012000D5409D4205D31D469540491B2546954027
:1001300040191546521E002DF1DC30BD03460B431D
:100140009B0703D009E008C9121F08C0042AFAD28D
:1001500003E00B780370401C491C521EF9D2704713
:10016000064C0125064E05E0E36807CC2B430C3C0A
:1001700098471034B442F7D3FFF7A6FF24090000D4
:100180004409000010B500F0FFFA00F0B7FB0020B2
:1001900010BD10B500F0AEF8C046C04610BD00005E
:1001A000FCB500220192CA06D20E1305C9060093BF
:1001B0003C4C57019602D5038908030000F050FB20
:1001C00010090E151B21282F343B41474F555A610A
:1001D000676E206840094001104304E020681F2139
:1001E00049018843384320605AE020681F21890272
:1001F00088433043F7E720681F21C9038843284319
:10020000F1E720681F210905884300990843EAE7C0
:1002100022681F20400682430A43226040E0606853
:1002200040094001104304E060681F2149018843F0
:100230003843606034E060681F218902884330439E
:10024000F7E760681F21C90388432843F1E7616825
:100250001F200005814300980143616020E0606831
:100260001F22520690430843E3E7A068400940017B
:10027000104304E0A0681F21490188433843A0606F
:100280000EE0A0681F21890288433043F7E7A16888
:100290001F20C00381432943A16001E00420019095
:1002A0000198FCBD4024004002494A6B82434A63E6
:1002B000704700008024004002484168C213114387
:1002C00041607047002400400148406A70470000C8
:1002D000802400400349096B014201D0012070478E
:1002E0000020704780240040014980000858704772
:1002F0005024004010B51020FFF7ECFF012814D166
:100300001020FFF7D1FF0020FFF7EEFF074C206021
:100310000120FFF7E9FF60600220FFF7E5FFA06022
:10032000FFF7D2FFE06000F035F810BD04000020B8
:1003300070B5040023D0134D01206860022000F046
:10034000B5FA6078A18862880843E18811430843C0
:1003500021890843696808436860A86829158843AB
:100360002178C907490D0843A860A868042188437B
:10037000A17AC907490F0843A860002070BD042076
:1003800070BD000000240040014901204860704712
:10039000C02400400149002048607047C02400404C
:1003A000002802D00178102901D904207047134990
:1003B0008A68CB139A438A608A68CB149A4343783D
:1003C000DB071B0D1A438A608A688B159A43837872
:1003D000DB07DB0D1A438A6000780F210005090551
:1003E000401801020548090A403082680F231B05A6
:1003F0009A431143816000207047000000240040B0
:100400000EB50C21684600F047FA0121102000F0DB
:10041000A1F900F049F801206A461070002001217E
:10042000507049035180032149029180D08010818E
:1004300090726846FFF77CFF0EBD10B501211C20AD
:1004400000F088F90021084600F082F8022100201F
:1004500000F07EF80521002000F07AF810BD08B504
:100460000321684600F018FA0020694688700120D0
:100470004870032008706846FFF792FF0021084685
:10048000FFF78EFE02210120FFF78AFE05210220E0
:10049000FFF786FEFFF710FF01220321182000F06E
:1004A0001DF8FFF771FF08BD10B50448016801226F
:1004B00011430160022000F0F9F910BD0024004052
:1004C00010B5C046C04610BD10B5C046C046C046B7
:1004D000C04610BD10B5C046C04610BD30B5C406FC
:1004E000E40E0123A340134C23608407E50EFF2490
:1004F000AC408907090EA94000280BDA0007000F5D
:10050000083885080C48AD002818C569A5430D4377
:10051000C56107E085080948AD0028180568A543AE
:100520000D430560012A02D00548036030BD044830
:100530008038FAE780E200E000ED00E000E400E04F
:1005400080E100E010B5C046C046C046C04610BDC0
:10055000034B10B50122C01800F050F8002010BD68
:100560000C0D024008B5002000900028FDD008BD09
:1005700010B5C046C04610BD10B5C046C04610BD3F
:1005800010B5C046C04610BD10B5C046C046C046F6
:10059000C04610BD10B5C046C04610BD10B5C0461F
:1005A000C04610BD10B5C046C04610BD10B5C0460F
:1005B000C04610BD10B5C046C04610BD10B5C046FF
:1005C000C04610BD10B5C046C046C046C04610BDAE
:1005D00010B5C046C046C046C04610BD10B5C046A6
:1005E000C04610BD10B5C046C046C046C04610BD8E
:1005F00010B5C046C046C046C04610BD01238B4062
:100600000168012A02D09943016070471943FBE752
:1006100010B5C046C04610BD10B58AB000241422E3
:1006200048496846FFF78AFD4648001F0068089061
:100630000020059006900790434801886A46918300
:100640004188518381881183C088D0823E48203000
:1006500000883E49908208680006420F3C4813001B
:1006600000F0FEF805042A2C383B6800C8686A468A
:100670004005928B400D904201D1049C5AE0C8681D
:100680006A464005528B400D904201D1039C51E0D7
:10069000C8686A464005128B400D904201D1029C09
:1006A00048E0C8686A464005D28A400D904201D1B0
:1006B000019C3FE0009C3DE004463BE06846808AA8
:1006C0004A699205920D9042684601D1448C31E00E
:1006D000048C2FE00124E4032CE0CA6BD243920780
:1006E00024D16846808BCA685205520D904201D1D0
:1006F00004981BE06846408BCA685205520D904230
:1007000001D1039812E06846008BCA685205520D69
:10071000904201D1029809E06846C08ACA68520531
:10072000520D904201D1019800E00098CA6BD205A9
:10073000140F444308680AB04005410F2046C840E2
:1007400010BD000010090000000C10000020004047
:1007500000127A0010B50A46810603D5DF21014058
:10076000044802E001460348001FFFF747FF00204E
:1007700010BD00002420004010B5FFF74DFF0149D7
:10078000086010BD0000002010B514484088144CCB
:1007900080056169800D890A8902014361610F4802
:1007A00020380089E1684005400DC90AC9020143AB
:1007B000E160FFF7E1FF216A206AE2031043206253
:1007C0000848C268084B1A40C2600368B02213434D
:1007D0000360036A13430362216210BD200C100002
:1007E00000200040401D02404FFF000010B5C046F1
:1007F000C04610BD10B5C046C04610BD10B5C046BD
:10080000C04610BD10B5C046C04610BD10B5C046AC
:10081000C04610BD10B5C046C04610BD10B5C0469C
:10082000C04610BD10B5C046C046C046C04610BD4B
:1008300010B5C046C046C046C04610BD10B5C04643
:10084000C04610BD10B5C046C046C046C046C046F2
:10085000C046C046C04610BD10B5C046C04610BD1B
:1008600030B47446641E2578641CAB4200D21D4629
:10087000635D5B00E31830BC184702E008C8121F34
:1008800008C1002AFAD170477047002001E001C179
:10089000121F002AFBD17047002805D00022491EF4
:1008A00002D30270401CFAE770470000F8B5044616
:1008B0000F4D0E4868610026AE61052028610D4885
:1008C000012700683F06009008E0AE610A490098E1
:1008D000FFF71EFC381AA9698142FCD8641EF4D2C5
:1008E0002869400840002861F8BD0000FFFFFF00B4
:1008F00000E000E000000020A0860100FFF79DFD61
:10090000FFF77EFDFFF7ABFDFEE7000000800096DD
:1009100000093D0000127A000024F40040865101D5
:1009200000366E01440900000000002014000000A1
:100930007A0800005809000014000020040200009A
:100940008A080000200000000000000000000000F5
:0809500000000000000000009F
:04000005000000C136
:00000001FF
