:020000040000FA
:1000000008020020D5000000EF000000C10300003E
:1000100000000000000000000000000000000000E0
:10002000000000000000000000000000F3000000DD
:100030000000000000000000F5000000A106000024
:100040001104000019040000210400002D04000028
:100050008B020000B1090000D1090000DD09000099
:10006000F1030000F903000075060000810600009E
:10007000CD030000D503000099090000A10900008C
:10008000A9090000E5030000B9090000C10900004A
:10009000C909000001040000050A0000390400003D
:1000A0009301000009040000F1090000E9090000C3
:1000B00057020000DD030000FD0200005F020000A7
:1000C0000348854600F04CF80048004785010000D1
:1000D0000802002009480A4A002100A1814200D9F3
:1000E0000244084802600848804708480047FEE785
:1000F000FEE7FEE7FEE7FEE7FEE700000000002067
:100100000000000008ED00E035090000C10000001B
:1001100030B50B46014600202022012409E00D469F
:10012000D5409D4205D31D469540491B2546954027
:1001300040191546521E002DF1DC30BD03460B431D
:100140009B0703D009E008C9121F08C0042AFAD28D
:1001500003E00B780370401C491C521EF9D2704713
:10016000064C0125064E05E0E36807CC2B430C3C0A
:1001700098471034B442F7D3FFF7A6FF680B00008E
:10018000880B000010B500F0D5FB00F0BFFC00208C
:1001900010BD10B5C046C046C046C04610BD1CB517
:1001A0000721684600F05AFC01211C2000F0A8FB42
:1001B0000020694688704870012424036A460321A0
:1001C000204600F0A7F800220321204600F0EEF8B8
:1001D0001CBD10B586B01021684600F03FFC04211C
:1001E00004A800F03BFC0121142000F089FB012150
:1001F000032000F059FA01216B4619700020187194
:100200005870D87055221A72597210249C72172295
:100210001A730422DA725A7319229A735971D880A8
:10022000184600F071F905206B46187402205874C6
:100230009C747F20D87404A800F08CF9012000F091
:1002400009F901220321172000F024F8012000F011
:1002500021F906B010BD10B5C046C04610BD10B59E
:10026000C046C046C046C04610BD03071B0F092B41
:1002700007D803091B01902B03D8904201D888426C
:1002800001D2012070470020704710B5C046C0461B
:1002900010BD000030B5C406E40E0123A340134C8A
:1002A00023608407E50EFF24AC408907090EA940AE
:1002B00000280BDA0007000F083885080C48AD004D
:1002C0002818C569A5430D43C56107E0850809489D
:1002D000AD0028180568A5430D430560012A02D02A
:1002E0000548036030BD04488038FAE780E200E04A
:1002F00000ED00E000E400E080E100E010B5C04661
:10030000C046C046C04610BD0068C840C007C00F08
:100310007047000070B50446214815460E4600227D
:10032000201800F0B3F9B1001E4A091900208918FD
:1003300008601B482A78001F3146201800F0A6F9F3
:1003400017486A780C383146201800F09FF9144895
:10035000AA7810303146201800F098F91048EA7851
:1003600014303146201800F091F90D482A791830E0
:100370003146201800F08AF909486A792030314660
:10038000201800F083F9084988680122D2039043BD
:10039000AA79D207120C10438860002070BD0000BB
:1003A0000C0D0240000C0240000F0240034B10B540
:1003B000C01800F06BF9002010BD0000080D0240CD
:1003C00008B5002000900028FDD008BD10B5C0463B
:1003D000C04610BD10B5C046C04610BD10B5C046E1
:1003E000C04610BD10B5C046C046C046C04610BD90
:1003F00010B5C046C04610BD10B5C046C04610BDC1
:1004000010B5C046C04610BD10B5C046C04610BDB0
:1004100010B5C046C04610BD10B5C046C04610BDA0
:1004200010B5C046C046C046C04610BD10B5C04657
:10043000C046C046C04610BD10B500F057F810BD0C
:1004400010B502460721024800F020F910BD000057
:100450000414004070B5094C0546002203212046D3
:1004600000F014F900220421204600F00FF92A467A
:100470000621204600F00AF970BD00000414004077
:1004800010B500220421024800F000F910BD000060
:100490000414004010B502460721024800F0F6F8A7
:1004A00010BD000000140040034630B501200202D8
:1004B00093420FD8084A146BC503C907AC43090C13
:1004C0000C431463116BDB05490A4902DB0D194328
:1004D000116330BD042030BD0014004010B504216C
:1004E0000148FFF711FF10BD0414004010B5FFF7DD
:1004F000F5FF012804D103490A200870FFF7C0FF67
:1005000010BD00000400002070B504460020FFF775
:10051000C1FF0F4D2868082188432178C907090FBA
:1005200008432860601C00F049F868680721090248
:10053000884321794907490D084368606179E0885B
:10054000FFF7B2FF2046083000F060F870BD0000F1
:100550000014004070B504460020FFF771FF2078BA
:1005600059220021FFF781FE134E30680007A07862
:1005700001D4122200E024220021FFF776FE002899
:1005800018D1607859220021FFF76FFE050011D1C4
:1005900020784006400E706360784006400E70621E
:1005A000A0788006800EB062E078F0620120FFF74C
:1005B00047FF284670BD000000140040124A116831
:1005C000131499430378DB075B0C1943116001781E
:1005D000002902D0012907D013E011688078C908EA
:1005E000C9004007400F0AE04078402801D30420AA
:1005F000704711683F231B0299438006800C01431A
:1006000011600020704700000014004010B5184A27
:100610007D211368C9001B060ED5536801242343AE
:10062000536002E053689B0704D4491E0904090C77
:10063000F8D11BE0002919D0017891604178D16090
:1006400081781161017991614179D161817911627A
:10065000C078506150684008400050601068000643
:1006600002D550688007FCD4002010BD092010BDC1
:100670000014004010B5C046C046C046C04610BD7C
:1006800010B5C046C046C046C04610BD01238B40D1
:100690000168012A02D09943016070471943FBE7C2
:1006A00010B5C046C04610BDF3B581B00C4600265B
:1006B00000F0ACF9002C00D001243E4D2F6A0198C7
:1006C000E90303283AD006DC00280CD0012815D015
:1006D000022804D126E0042845D048285CD004260E
:1006E0002F623046FEBD2868400840002043286045
:1006F000002CF5D0E8680005FAD5F1E7286A084330
:1007000028622D4AD06803210843D060286802215E
:100710008843610008432860002CE1D02869400626
:10072000FAD5DDE7286804218843A1000843286042
:10073000002CD5D06869C004FAD5D1E7286A0843EF
:1007400028621E4AD068032189030843D0602868C4
:1007500008218843E10008432860002CC0D0A86924
:100760004006FAD5BCE7286A01210904084328623B
:10077000134A1068012108431060142000F078F932
:10078000286810218843210108432860002CA7D045
:10079000E86B4003FAD5A3E706484030816982142C
:1007A0009143220311438161002C99D0816909058D
:1007B000FAD595E700200040401D0240800D024020
:1007C0000024004010B58AB000241422484968462D
:1007D000FFF7B4FC4648001F006808900020059011
:1007E00006900790434801886A4691834188518367
:1007F00081881183C088D0823E48203000883E49DD
:10080000908208680006420F3C48130000F00AF985
:1008100005042A2C383B6800C8686A464005928B5C
:10082000400D904201D1049C5AE0C8686A464005D8
:10083000528B400D904201D1039C51E0C8686A463A
:100840004005128B400D904201D1029C48E0C868DF
:100850006A464005D28A400D904201D1019C3FE09A
:10086000009C3DE004463BE06846808A4A69920568
:10087000920D9042684601D1448C31E0048C2FE007
:100880000124E4032CE0CA6BD243920724D16846CA
:10089000808BCA685205520D904201D104981BE02A
:1008A0006846408BCA685205520D904201D10398A8
:1008B00012E06846008BCA685205520D904201D181
:1008C000029809E06846C08ACA685205520D9042F3
:1008D00001D1019800E00098CA6BD205140F44437F
:1008E00008680AB04005410F2046C84010BD00000E
:1008F000540B0000000C10000020004000127A0091
:1009000010B50A46810603D5DF210140044802E004
:1009100001460348001FFFF7B9FE002010BD00008C
:100920002420004010B5FFF74DFF0149086010BDBD
:100930000000002010B514484088144C80056169FF
:10094000800D890A8902014361610F4820380089BE
:10095000E1684005400DC90AC9020143E160FFF7A3
:10096000E1FF216A206AE203104320620848C2685E
:10097000084B1A40C2600368B02213430360036A45
:1009800013430362216210BD200C100000200040C0
:10099000401D02404FFF000010B5C046C04610BDCC
:1009A00010B5C046C04610BD10B5C046C04610BD0B
:1009B00010B5C046C04610BD10B5C046C04610BDFB
:1009C00010B5C046C04610BD10B5C046C04610BDEB
:1009D00010B5C046C046C046C04610BD10B5C046A2
:1009E000C046C046C04610BD10B5C046C04610BD8A
:1009F00010B5C046C046C046C046C046C046C04608
:100A0000C04610BD10B5C046C04610BD03480249DF
:100A100081600349816070475A5A000000200040FD
:100A2000A5A5000030B47446641E2578641CAB4252
:100A300000D21D46635D5B00E31830BC184702E03E
:100A400008C8121F08C1002AFAD170477047002059
:100A500001E001C1121F002AFBD17047002805D018
:100A60000022491E02D30270401CFAE770470000C2
:100A7000F8B504460F4D0E4868610026AE610520AA
:100A800028610D48012700683F06009008E0AE612C
:100A90000A490098FFF73CFB381AA9698142FCD843
:100AA000641EF4D22869400840002861F8BD0000A7
:100AB000FFFFFF0000E000E000000020A086010032
:100AC000F8B504460F4D0E4868610026AE6105205A
:100AD00028610D48012700683F06009009E0AE61DB
:100AE0007D21C9000098FFF713FB381AA9698142DC
:100AF000FCD8641EF3D22869400840002861F8BD84
:100B0000FFFFFF0000E000E000000020FFF747FBD0
:100B1000FFF75FFB01250D4C2D03FF26F5362078EE
:100B20000028FCD02078401E207001220321284696
:100B3000FFF73CFC3046FFF7C3FF002203212846A5
:100B4000FFF734FC3046FFF7BBFFE8E70400002066
:100B50000080009600093D0000127A000024F40095
:100B60004086510100366E01880B00000000002015
:100B7000080000003E0A0000900B00000800002062
:100B8000000200004E0A00002000000000000000EB
:04000005000000C136
:00000001FF
