:020000040000FA
:1000000008020020D5000000EF000000BD03000042
:1000100000000000000000000000000000000000E0
:10002000000000000000000000000000F3000000DD
:100030000000000000000000F50000009106000034
:1000400029040000310400003904000045040000C8
:1000500079020000A1090000C1090000CD090000DB
:10006000ED030000F50300006506000071060000C6
:10007000C9030000D10300008909000091090000B4
:1000800099090000E1030000A9090000B10900007E
:10009000B909000019040000F5090000510400002E
:1000A0009301000021040000E1090000D9090000CB
:1000B00065020000D9030000E90200006D020000A3
:1000C0000348854600F04CF80048004785010000D1
:1000D0000802002009480A4A002100A1814200D9F3
:1000E0000244084802600848804708480047FEE785
:1000F000FEE7FEE7FEE7FEE7FEE700000000002067
:100100000000000008ED00E025090000C10000002B
:1001100030B50B46014600202022012409E00D469F
:10012000D5409D4205D31D469540491B2546954027
:1001300040191546521E002DF1DC30BD03460B431D
:100140009B0703D009E008C9121F08C0042AFAD28D
:1001500003E00B780370401C491C521EF9D2704713
:10016000064C0125064E05E0E36807CC2B430C3C0A
:1001700098471034B442F7D3FFF7A6FFE00A000017
:10018000000B000010B500F0CDFB00F091FC00204A
:1001900010BD10B5C046C046C046C04610BD1CB517
:1001A0000721684600F052FC01211C2000F0A0FB52
:1001B0000020694688704870012424036A460321A0
:1001C000204600F0A5F800220321204600F0ECF8BC
:1001D0006A460521002000F09BF80120694648701E
:1001E0006A460721002000F093F80721002000F064
:1001F00087F80128F9D001220321204600F0D4F825
:1002000001220521002000F0CFF81CBD1FB50121FF
:10021000142000F06DFB01206B461870002119714D
:10022000587009229A7055221A72587210229A72C6
:1002300017221A730422DA725A7319229A735871A8
:10024000D980184600F07AF9012000F005F9012262
:100250000321172000F014F8012000F01DF900F030
:10026000EFF91FBD10B5C046C04610BD10B5C04661
:10027000C046C046C04610BD10B5C046C04610BD01
:1002800030B5C406E40E0123A340134C2360840759
:10029000E50EFF24AC408907090EA94000280BDABF
:1002A0000007000F083885080C48AD002818C569FC
:1002B000A5430D43C56107E085080948AD0028182E
:1002C0000568A5430D430560012A02D00548036077
:1002D00030BD04488038FAE780E200E000ED00E03D
:1002E00000E400E080E100E010B5C046C046C04632
:1002F000C04610BD0068C840C007C00F704700006E
:10030000024A10B58018FFF7F5FF10BD040D02403A
:1003100070B50446214815460E460022201800F00C
:10032000ADF9B1001E4A09190020891808601B4860
:100330002A78001F3146201800F0A0F917486A7883
:100340000C383146201800F099F91448AA7810307A
:100350003146201800F092F91048EA7814303146FE
:10036000201800F08BF90D482A79183031462018F2
:1003700000F084F909486A7920303146201800F0ED
:100380007DF9084988680122D2039043AA79D207EF
:10039000120C10438860002070BD00000C0D02405C
:1003A000000C0240000F0240034B10B5C01800F0D3
:1003B00065F9002010BD0000080D024008B50020BE
:1003C00000900028FDD008BD10B5C046C04610BD45
:1003D00010B5C046C04610BD10B5C046C04610BDE1
:1003E00010B5C046C046C046C04610BD10B5C04698
:1003F000C04610BD10B5C046C04610BD05490A69CB
:1004000004231A430A610A69012383401A430A61DB
:1004100030BF704700ED00E010B5C046C04610BDCB
:1004200010B5C046C04610BD10B5C046C04610BD90
:1004300010B5C046C04610BD10B5C046C046C04647
:10044000C04610BD10B5C046C046C046C04610BD2F
:1004500010B500F04DF810BD70B5094C05460022EE
:100460000321204600F00AF900220421204600F072
:1004700005F92A460621204600F000F970BD00006B
:100480000414004010B500220321024800F0F6F8E1
:1004900010BD00000414004010B5024607210248B8
:1004A00000F0ECF810BD000000140040034630B529
:1004B0000120020293420FD8084A146BC503C907F2
:1004C000AC43090C0C431463116BDB05490A490268
:1004D000DB0D1943116330BD042030BD0014004012
:1004E00010B503210148FFF705FF10BD04140040BB
:1004F00010B5FFF7F5FF012815D10F490870FFF778
:10050000C1FF0124240303212046FFF7F9FE01283F
:100510000AD0012203212046FFF746FF01220521D0
:100520000020FFF741FF10BD002203212046FFF706
:100530003BFF0022F3E700000400002070B50446F2
:100540000020FFF7A9FF0F4D286808218843217874
:10055000C907090F08432860601C00F015F8686897
:1005600007210902884321794907490D084368603A
:100570006179E088FFF79AFF2046083000F02CF8F8
:1005800070BD000000140040124A11681314994312
:100590000378DB075B0C194311600178002902D056
:1005A000012907D013E011688078C908C900400705
:1005B000400F0AE04078402801D3042070471168BA
:1005C0003F231B0299438006800C014311600020E9
:1005D000704700000014004010B5184A7D211368D0
:1005E000C9001B060ED5536801242343536002E063
:1005F00053689B0704D4491E0904090CF8D11BE079
:10060000002919D0017891604178D1608178116119
:10061000017991614179D16181791162C07850612C
:1006200050684008400050601068000602D55068CD
:100630008007FCD4002010BD092010BD001400402C
:100640000748416801221143416041688907FCD590
:10065000416849084900416041688907FCD47047F6
:100660000014004010B5C046C046C046C04610BD8C
:1006700010B5C046C046C046C04610BD01238B40E1
:100680000168012A02D09943016070471943FBE7D2
:1006900010B5C046C04610BDF3B581B00C4600266B
:1006A00000F0ACF9002C00D001243E4D2F6A0198D7
:1006B000E90303283AD006DC00280CD0012815D025
:1006C000022804D126E0042845D048285CD004261E
:1006D0002F623046FEBD2868400840002043286055
:1006E000002CF5D0E8680005FAD5F1E7286A084340
:1006F00028622D4AD06803210843D060286802216F
:100700008843610008432860002CE1D02869400636
:10071000FAD5DDE7286804218843A1000843286052
:10072000002CD5D06869C004FAD5D1E7286A0843FF
:1007300028621E4AD068032189030843D0602868D4
:1007400008218843E10008432860002CC0D0A86934
:100750004006FAD5BCE7286A01210904084328624B
:10076000134A1068012108431060142000F078F942
:10077000286810218843210108432860002CA7D055
:10078000E86B4003FAD5A3E706484030816982143C
:100790009143220311438161002C99D0816909059D
:1007A000FAD595E700200040401D0240800D024030
:1007B0000024004010B58AB000241422484968463D
:1007C000FFF7BCFC4648001F006808900020059019
:1007D00006900790434801886A4691834188518377
:1007E00081881183C088D0823E48203000883E49ED
:1007F000908208680006420F3C48130000F00AF996
:1008000005042A2C383B6800C8686A464005928B6C
:10081000400D904201D1049C5AE0C8686A464005E8
:10082000528B400D904201D1039C51E0C8686A464A
:100830004005128B400D904201D1029C48E0C868EF
:100840006A464005D28A400D904201D1019C3FE0AA
:10085000009C3DE004463BE06846808A4A69920578
:10086000920D9042684601D1448C31E0048C2FE017
:100870000124E4032CE0CA6BD243920724D16846DA
:10088000808BCA685205520D904201D104981BE03A
:100890006846408BCA685205520D904201D10398B8
:1008A00012E06846008BCA685205520D904201D191
:1008B000029809E06846C08ACA685205520D904203
:1008C00001D1019800E00098CA6BD205140F44438F
:1008D00008680AB04005410F2046C84010BD00001E
:1008E000CC0A0000000C10000020004000127A002A
:1008F00010B50A46810603D5DF210140044802E015
:1009000001460348001FFFF7B9FE002010BD00009C
:100910002420004010B5FFF74DFF0149086010BDCD
:100920000000002010B514484088144C800561690F
:10093000800D890A8902014361610F4820380089CE
:10094000E1684005400DC90AC9020143E160FFF7B3
:10095000E1FF216A206AE203104320620848C2686E
:10096000084B1A40C2600368B02213430360036A55
:1009700013430362216210BD200C100000200040D0
:10098000401D02404FFF000010B5C046C04610BDDC
:1009900010B5C046C04610BD10B5C046C04610BD1B
:1009A00010B5C046C04610BD10B5C046C04610BD0B
:1009B00010B5C046C04610BD10B5C046C04610BDFB
:1009C00010B5C046C046C046C04610BD10B5C046B2
:1009D000C046C046C04610BD10B5C046C04610BD9A
:1009E00010B5C046C046C046C046C046C046C04618
:1009F000C04610BD10B5C046C04610BD03480249F0
:100A000081600349816070475A5A0000002000400D
:100A1000A5A5000030B47446641E2578641CAB4262
:100A200000D21D46635D5B00E31830BC184702E04E
:100A300008C8121F08C1002AFAD170477047002069
:100A400001E001C1121F002AFBD17047002805D028
:100A50000022491E02D30270401CFAE770470000D2
:100A6000F8B504460F4D0E4868610026AE610520BA
:100A700028610D48012700683F06009008E0AE613C
:100A80000A490098FFF744FB381AA9698142FCD84B
:100A9000641EF4D22869400840002861F8BD0000B7
:100AA000FFFFFF0000E000E000000020A086010042
:100AB00001210320FFF7F0FDFFF771FBFFF7A6FB15
:100AC0000120FFF79BFCFEE70080009600093D0037
:100AD00000127A000024F4004086510100366E01B5
:100AE000000B000000000020080000002E0A00009B
:100AF000080B000008000020000200003E0A000071
:080B00002000000000000000CD
:04000005000000C136
:00000001FF
