:020000040000FA
:1000000008020020D5000000EF0000002D040000D1
:1000100000000000000000000000000000000000E0
:10002000000000000000000000000000F3000000DD
:100030000000000000000000F5000000D9040000EE
:100040007D040000850400008D0400009904000078
:100050009D030000CD060000ED060000F90600003B
:100060005D04000065040000AD040000B904000058
:100070003904000041040000B5060000BD06000080
:10008000C506000051040000D5060000DD06000092
:10009000E50600006D04000021070000A504000033
:1000A00093010000750400000D0700000507000023
:1000B00089030000490400000D04000091030000C2
:1000C0000348854600F04CF80048004785010000D1
:1000D0000802002009480A4A002100A1814200D9F3
:1000E0000244084802600848804708480047FEE785
:1000F000FEE7FEE7FEE7FEE7FEE700000000002067
:100100000000000008ED00E051060000C100000002
:1001100030B50B46014600202022012409E00D469F
:10012000D5409D4205D31D469540491B2546954027
:1001300040191546521E002DF1DC30BD03460B431D
:100140009B0703D009E008C9121F08C0042AFAD28D
:1001500003E00B780370401C491C521EF9D2704713
:10016000064C0125064E05E0E36807CC2B430C3C0A
:1001700098471034B442F7D3FFF7A6FFEC0700000E
:100180000C08000010B500F063FA00F01BFB002023
:1001900010BD10B500F032F8C046C04610BD0000DA
:1001A000054A5168FF23F133C0069943C00D01434E
:1001B00051600020704700000024004002494A6B53
:1001C00082434A637047000080240040024841682F
:1001D000C213114341607047002400400349096B7A
:1001E000014201D001207047002070478024004068
:1001F0000148006A704700008024004010B50820C4
:10020000FFF7ECFF012808D10820FFF7D7FFFFF721
:10021000EFFF0249086000F035F810BD040000202F
:1002200070B5040023D0134D01206860022000F057
:10023000A1FA6078A18862880843E18811430843E5
:1002400021890843696808436860A86829158843BC
:100250002178C907490D0843A860A868042188438C
:10026000A17AC907490F0843A860002070BD042087
:1002700070BD00000024004001490120C8607047A3
:10028000C024004001490020C8607047C0240040DD
:10029000134942688A628268CA62114980398A6851
:1002A000F8239A43037BDB061B0E1A438A608A6895
:1002B0000B149A430378DB075B0C1A438A608A6845
:1002C0004B149A434378DB079B0C1A438A608A6875
:1002D00080788B14C0079A43C00C02438A60704731
:1002E000802400400EB50C21684600F039FA012147
:1002F000102000F093F900F03BF800206A461070DF
:100300000321507009035180012149029180D0805E
:100310004901118190726846FFF782FF0EBD10B54A
:1003200001211C2000F07AF90021084600F074F841
:1003300010BD1FB50020FFF733FF00206A46507044
:10034000907001211170052149020191012189025A
:10035000029110736846FFF79BFFFFF737FF0122FA
:100360000321182000F01EF8FFF786FF1FBD0000D4
:1003700010B504480168012211430160022000F019
:10038000F9F910BD0024004010B5C046C04610BDAC
:1003900010B5C046C046C046C04610BD10B5C046E8
:1003A000C04610BD30B5C406E40E0123A340134C73
:1003B00023608407E50EFF24AC408907090EA9409D
:1003C00000280BDA0007000F083885080C48AD003C
:1003D0002818C569A5430D43C56107E0850809488C
:1003E000AD0028180568A5430D430560012A02D019
:1003F0000548036030BD04488038FAE780E200E039
:1004000000ED00E000E400E080E100E010B5C0464F
:10041000C046C046C04610BD034B10B50122C018EF
:1004200000F050F8002010BD0C0D024008B500206F
:1004300000900028FDD008BD10B5C046C04610BDD4
:1004400010B5C046C04610BD10B5C046C04610BD70
:1004500010B5C046C046C046C04610BD10B5C04627
:10046000C04610BD10B5C046C04610BD10B5C04650
:10047000C04610BD10B5C046C04610BD10B5C04640
:10048000C04610BD10B5C046C04610BD10B5C04630
:10049000C046C046C04610BD10B5C046C046C046A6
:1004A000C04610BD10B5C046C04610BD10B5C04610
:1004B000C046C046C04610BD10B5C046C046C04686
:1004C000C04610BD01238B400168012A02D0994328
:1004D000016070471943FBE710B5C046C04610BD28
:1004E00010B58AB00024142248496846FFF726FE5A
:1004F0004648001F0068089000200590069007906D
:10050000434801886A4691834188518381881183D9
:10051000C088D0823E48203000883E4990820868DA
:100520000006420F3C48130000F0FEF805042A2C98
:10053000383B6800C8686A464005928B400D90427F
:1005400001D1049C5AE0C8686A464005528B400DB0
:10055000904201D1039C51E0C8686A464005128B65
:10056000400D904201D1029C48E0C8686A464005AF
:10057000D28A400D904201D1019C3FE0009C3DE0B9
:1005800004463BE06846808A4A699205920D904293
:10059000684601D1448C31E0048C2FE00124E4034F
:1005A0002CE0CA6BD243920724D16846808BCA687C
:1005B0005205520D904201D104981BE06846408BD1
:1005C000CA685205520D904201D1039812E0684664
:1005D000008BCA685205520D904201D1029809E081
:1005E0006846C08ACA685205520D904201D10198EE
:1005F00000E00098CA6BD205140F444308680AB0A3
:100600004005410F2046C84010BD0000D80700003B
:10061000000C10000020004000127A0010B50A46BD
:10062000810603D5DF210140044802E0014603486A
:10063000001FFFF747FF002010BD000024200040EE
:1006400010B5FFF74DFF0149086010BD0000002004
:1006500010B514484088144C80056169800D890AE2
:100660008902014361610F4820380089E168400533
:10067000400DC90AC9020143E160FFF7E1FF216AA9
:10068000206AE203104320620848C268084B1A40FF
:10069000C2600368B02213430360036A134303621A
:1006A000216210BD200C100000200040401D0240BF
:1006B0004FFF000010B5C046C04610BD10B5C04683
:1006C000C04610BD10B5C046C04610BD10B5C046EE
:1006D000C04610BD10B5C046C04610BD10B5C046DE
:1006E000C04610BD10B5C046C04610BD10B5C046CE
:1006F000C046C046C04610BD10B5C046C046C04644
:10070000C04610BD10B5C046C04610BD10B5C046AD
:10071000C046C046C046C046C046C046C04610BDE2
:1007200010B5C046C04610BD30B47446641E25786E
:10073000641CAB4200D21D46635D5B00E31830BC15
:10074000184702E008C8121F08C1002AFAD17047F2
:100750007047002001E001C1121F002AFBD1704741
:10076000002805D00022491E02D30270401CFAE77F
:1007700070470000F8B504460F4D0E48686100262A
:10078000AE61052028610D48012700683F060090F2
:1007900008E0AE610A490098FFF7BAFC381AA96967
:1007A0008142FCD8641EF4D22869400840002861C8
:1007B000F8BD0000FFFFFF0000E000E000000020A7
:1007C000A0860100FFF7ABFDFFF78CFDFFF7B1FD41
:1007D000FEE700000080009600093D0000127A004C
:1007E0000024F4004086510100366E010C08000020
:1007F000000000200800000042070000140800006C
:100800000800002000020000520700002000000045
:0408100000000000E4
:04000005000000C136
:00000001FF
