:020000040000FA
:1000000028020020D5000000EF000000CD04000011
:1000100000000000000000000000000000000000E0
:10002000000000000000000000000000F3000000DD
:100030000000000000000000F5000000790500004D
:100040001D050000250500002D05000039050000F4
:10005000F90300000509000025090000310900002E
:10006000FD040000050500004D05000059050000D5
:10007000D9040000E1040000ED080000F5080000CC
:10008000FD080000F10400000D0900001509000042
:100090001D0900000D05000059090000450500007C
:1000A0009301000015050000450900003D0900000E
:1000B00081020000E904000001040000ED030000DB
:1000C0000348854600F04CF80048004785010000D1
:1000D0002802002009480A4A002100A1814200D9D3
:1000E0000244084802600848804708480047FEE785
:1000F000FEE7FEE7FEE7FEE7FEE700000000002067
:100100000000000008ED00E089080000C1000000C8
:1001100030B50B46014600202022012409E00D469F
:10012000D5409D4205D31D469540491B2546954027
:1001300040191546521E002DF1DC30BD03460B431D
:100140009B0703D009E008C9121F08C0042AFAD28D
:1001500003E00B780370401C491C521EF9D2704713
:10016000064C0125064E05E0E36807CC2B430C3C0A
:1001700098471034B442F7D3FFF7A6FF540B0000A2
:10018000740B000010B500F07FFB00F05FFC002056
:1001900010BD10B5C046C046C046C04610BD1CB517
:1001A00001211C2000F018FB01206946487088706E
:1001B0000024CC700C714C7188716A462146C020B5
:1001C00000F02EF969464C706A460121C02000F00B
:1001D00027F96A460521C02000F022F901220021FA
:1001E000C02000F069F901221146C02000F064F936
:1001F0000521C02000F00AF91CBD000030B51F4ADF
:100200001378802423431370137D047A1B091B0188
:100210002407240F23431375137DDF242340137514
:10022000164B0468203B9C63147D20252C431475D9
:1002300044689C639C6B5506AC43457AAD07ED0F53
:10024000AD072C439C639C6B9D05AC43457AED0741
:10025000AD082C439C6301230129917D007A0AD0CB
:1002600083409943917510784006400E10701078C5
:10027000C009FCD130BD83401943F3E7A00003401F
:1002800010B5C046C04610BD10B52B490A78802372
:100290001A430A70284A203A936A84791B021B0A7F
:1002A000240623439362936AC4781B0A1B022343E8
:1002B0009362936A7F242402A34304796406640C46
:1002C00023439362936A7F242404A34344796406FE
:1002D000640A234393620A785206520E0A700A781F
:1002E000D209FCD1CA79C3791207120F1B011A4334
:1002F000CA71CA79037A120912011B071B0F1A432C
:10030000CA718A78DF231A408378DB079B0E1A4371
:100310008A70CA78F7231A400378DB071B0F1A4349
:10032000CA70CA784078BF23C0071A40400E024303
:10033000CA700020087110BDA0000340044A0129C2
:10034000116802D08143116070470143FBE7000050
:10035000A4000340044A034913680B40034313609D
:1003600070470000FF002AFFA4000340034909680A
:10037000014201D00120704700207047A4000340D3
:1003800007490A6802604A6842608A688260C968F0
:10039000C1600348A030C17810221143C17070477A
:1003A000000003400C4A5178037C4906490EDB01EA
:1003B000194351700849036860390B6143684B6108
:1003C00083688B61C368CB61007C012803D190787E
:1003D0004021084390707047A000034002494A78CA
:1003E00002434A7070470000A000034010B5C046A9
:1003F000C046C046C04610BD10B5C046C04610BD80
:1004000010B5C046C046C046C04610BD034B10B52F
:100410000122C01800F0A6F8002010BD140D024003
:1004200070B50446214815460E460022201800F0FB
:1004300099F8B1001E4A09190020891808601B4864
:100440002A78001F3146201800F08CF817486A7887
:100450000C383146201800F085F81448AA7810307E
:100460003146201800F07EF81048EA781430314602
:10047000201800F077F80D482A79183031462018F6
:1004800000F070F809486A7920303146201800F0F1
:1004900069F8084988680122D2039043AA79D207F3
:1004A000120C10438860002070BD00000C0D02404B
:1004B000000C0240000F0240890008180249401851
:1004C0000260002070470000000C024008B50020C8
:1004D00000900028FDD008BD10B5C046C04610BD34
:1004E00010B5C046C04610BD10B5C046C04610BDD0
:1004F00010B5C046C046C046C04610BD10B5C04687
:10050000C04610BD10B5C046C04610BD10B5C046AF
:10051000C04610BD10B5C046C04610BD10B5C0469F
:10052000C04610BD10B5C046C04610BD10B5C0468F
:10053000C046C046C04610BD10B5C046C046C04605
:10054000C04610BD10B5C046C04610BD10B5C0466F
:10055000C046C046C04610BD10B5C046C046C046E5
:10056000C04610BD01238B400168012A02D0994387
:10057000016070471943FBE710B5C046C04610BD87
:10058000F3B581B00C46002600F0EAF9002C00D04B
:1005900001243E4D2F6A0198E90303283AD006DC76
:1005A00000280CD0012815D0022804D126E0042808
:1005B00045D048285CD004262F623046FEBD28680E
:1005C0004008400020432860002CF5D0E868000572
:1005D000FAD5F1E7286A084328622D4AD06803213A
:1005E0000843D060286802218843610008432860DE
:1005F000002CE1D028694006FAD5DDE728680421FF
:100600008843A10008432860002CD5D06869C00445
:10061000FAD5D1E7286A084328621E4AD068032128
:1006200089030843D060286808218843E100084313
:100630002860002CC0D0A8694006FAD5BCE7286A1B
:100640000121090408432862134A10680121084364
:100650001060142000F0ACF92868102188432101B3
:1006600008432860002CA7D0E86B4003FAD5A3E725
:10067000064840308169821491432203114381610D
:10068000002C99D081690905FAD595E70020004032
:10069000401D0240800D02400024004010B58AB089
:1006A0000024142248496846FFF748FD4648001FC9
:1006B0000068089000200590069007904348018844
:1006C0006A4691834188518381881183C088D08292
:1006D0003E48203000883E49908208680006420F5C
:1006E0003C48130000F048F905042A2C383B680008
:1006F000C8686A464005928B400D904201D1049C27
:100700005AE0C8686A464005528B400D904201D1BC
:10071000039C51E0C8686A464005128B400D904228
:1007200001D1029C48E0C8686A464005D28A400D63
:10073000904201D1019C3FE0009C3DE004463BE03B
:100740006846808A4A699205920D9042684601D1B6
:10075000448C31E0048C2FE00124E4032CE0CA6BCC
:10076000D243920724D16846808BCA685205520D45
:10077000904201D104981BE06846408BCA6852053C
:10078000520D904201D1039812E06846008BCA686E
:100790005205520D904201D1029809E06846C08A84
:1007A000CA685205520D904201D1019800E00098AC
:1007B000CA6BD205140F444308680AB04005410FC4
:1007C0002046C84010BD0000400B0000000C100087
:1007D0000020004000127A0010B50A46810603D5B9
:1007E000DF210140044802E001460348001FFFF7F3
:1007F000B9FE002010BD00002420004010B5054ABD
:100800000146136900200C248907A343090F0B43F9
:10081000136110BD0020004010B5054A0146136960
:10082000002030248907A343890E0B43136110BDB8
:100830000020004070B50446002500F091F80648FD
:100840000168E02291436207120E1143016000F03B
:1008500013F8284670BD000000200040054A0146FC
:10086000136900209B089B008907890F0B431361C4
:10087000704700000020004010B5FFF70FFF01494E
:10088000086010BD0000002010B514484088144CCA
:1008900080056169800D890A8902014361610F4801
:1008A00020380089E1684005400DC90AC9020143AA
:1008B000E160FFF7E1FF216A206AE2031043206252
:1008C0000848C268084B1A40C2600368B02213434C
:1008D0000360036A13430362216210BD200C100001
:1008E00000200040401D02404FFF000010B5C046F0
:1008F000C04610BD10B5C046C04610BD10B5C046BC
:10090000C04610BD10B5C046C04610BD10B5C046AB
:10091000C04610BD10B5C046C04610BD10B5C0469B
:10092000C04610BD10B5C046C046C046C04610BD4A
:1009300010B5C046C046C046C04610BD10B5C04642
:10094000C04610BD10B5C046C046C046C046C046F1
:10095000C046C046C04610BD10B5C046C04610BD1A
:100960000348024981600349816070475A5A000078
:1009700000200040A5A5000030B47446641E257810
:10098000641CAB4200D21D46635D5B00E31830BCC3
:10099000184702E008C8121F08C1002AFAD17047A0
:1009A0007047002001E001C1121F002AFBD17047EF
:1009B000F8B504460F4D0E4868610026AE6105206B
:1009C00028610D48012700683F06009008E0AE61ED
:1009D0000A490098FFF79CFB381AA9698142FCD8A4
:1009E000641EF4D22869400840002861F8BD000068
:1009F000FFFFFF0000E000E000000020A0860100F3
:100A0000F8B504460F4D0E4868610026AE6105201A
:100A100028610D48012700683F06009009E0AE619B
:100A20007D21C9000098FFF773FB381AA96981423C
:100A3000FCD8641EF3D22869400840002861F8BD44
:100A4000FFFFFF0000E000E00000002086B0002073
:100A5000FFF7D4FE0120FFF701FF0320FFF7DCFEC4
:100A600001210846FFF78CFD0A20FFF7C9FF01208E
:100A7000FFF7E0FEFFF793FB01212120FFF7ACFE1B
:100A8000002469468C710320C870022008714871E7
:100A90000F2008720A20C8710C70012048708C70F9
:100AA0006846FFF7F1FB69464C750C7521480490C8
:100AB0000121039403A8FFF7A1FB01218020FFF788
:100AC0003DFC1D4C0127FF03254614353846FFF732
:100AD0004DFC0128FAD13846FFF73CFC164814308B
:100AE000FFF74EFC29794806F0D42868206060683A
:100AF0000A0703091B01120F13438026B343CE09D3
:100B0000F601334349064026C90FB34389010B431D
:100B10000020636005E029182318097A401C197227
:100B2000C0B28242F7D80448FFF73CFC1020FFF720
:100B300055FCCBE7FFFFFF1F04000020008000965C
:100B400000093D0000127A000024F40040865101A3
:100B500000366E01740B000000000020040000004D
:100B600092090000780B000004000020240200001D
:080B7000A209000000093D008C
:04000005000000C136
:00000001FF
